{
	"contracts/core/ERC20.sol": {
		"ERC20": {
			"abi": [
				{
					"inputs": [
						{
							"internalType": "string",
							"name": "_name",
							"type": "string"
						},
						{
							"internalType": "string",
							"name": "_symbol",
							"type": "string"
						},
						{
							"internalType": "uint8",
							"name": "_decimals",
							"type": "uint8"
						},
						{
							"internalType": "uint256",
							"name": "_initialSupply",
							"type": "uint256"
						}
					],
					"stateMutability": "nonpayable",
					"type": "constructor"
				},
				{
					"anonymous": false,
					"inputs": [
						{
							"indexed": true,
							"internalType": "address",
							"name": "owner",
							"type": "address"
						},
						{
							"indexed": true,
							"internalType": "address",
							"name": "spender",
							"type": "address"
						},
						{
							"indexed": false,
							"internalType": "uint256",
							"name": "value",
							"type": "uint256"
						}
					],
					"name": "Approval",
					"type": "event"
				},
				{
					"anonymous": false,
					"inputs": [
						{
							"indexed": true,
							"internalType": "address",
							"name": "from",
							"type": "address"
						},
						{
							"indexed": true,
							"internalType": "address",
							"name": "to",
							"type": "address"
						},
						{
							"indexed": false,
							"internalType": "uint256",
							"name": "value",
							"type": "uint256"
						}
					],
					"name": "Transfer",
					"type": "event"
				},
				{
					"inputs": [
						{
							"internalType": "address",
							"name": "",
							"type": "address"
						},
						{
							"internalType": "address",
							"name": "",
							"type": "address"
						}
					],
					"name": "allownce",
					"outputs": [
						{
							"internalType": "uint256",
							"name": "",
							"type": "uint256"
						}
					],
					"stateMutability": "view",
					"type": "function"
				},
				{
					"inputs": [
						{
							"internalType": "address",
							"name": "spender",
							"type": "address"
						},
						{
							"internalType": "uint256",
							"name": "amount",
							"type": "uint256"
						}
					],
					"name": "approve",
					"outputs": [
						{
							"internalType": "bool",
							"name": "",
							"type": "bool"
						}
					],
					"stateMutability": "nonpayable",
					"type": "function"
				},
				{
					"inputs": [
						{
							"internalType": "address",
							"name": "",
							"type": "address"
						}
					],
					"name": "balanceOf",
					"outputs": [
						{
							"internalType": "uint256",
							"name": "",
							"type": "uint256"
						}
					],
					"stateMutability": "view",
					"type": "function"
				},
				{
					"inputs": [],
					"name": "decimals",
					"outputs": [
						{
							"internalType": "uint8",
							"name": "",
							"type": "uint8"
						}
					],
					"stateMutability": "view",
					"type": "function"
				},
				{
					"inputs": [],
					"name": "name",
					"outputs": [
						{
							"internalType": "string",
							"name": "",
							"type": "string"
						}
					],
					"stateMutability": "view",
					"type": "function"
				},
				{
					"inputs": [],
					"name": "symbol",
					"outputs": [
						{
							"internalType": "string",
							"name": "",
							"type": "string"
						}
					],
					"stateMutability": "view",
					"type": "function"
				},
				{
					"inputs": [],
					"name": "totalSupply",
					"outputs": [
						{
							"internalType": "uint256",
							"name": "",
							"type": "uint256"
						}
					],
					"stateMutability": "view",
					"type": "function"
				},
				{
					"inputs": [
						{
							"internalType": "address",
							"name": "to",
							"type": "address"
						},
						{
							"internalType": "uint256",
							"name": "amount",
							"type": "uint256"
						}
					],
					"name": "transfer",
					"outputs": [
						{
							"internalType": "bool",
							"name": "",
							"type": "bool"
						}
					],
					"stateMutability": "nonpayable",
					"type": "function"
				},
				{
					"inputs": [
						{
							"internalType": "address",
							"name": "from",
							"type": "address"
						},
						{
							"internalType": "address",
							"name": "to",
							"type": "address"
						},
						{
							"internalType": "uint256",
							"name": "amount",
							"type": "uint256"
						}
					],
					"name": "transferFrom",
					"outputs": [
						{
							"internalType": "bool",
							"name": "",
							"type": "bool"
						}
					],
					"stateMutability": "nonpayable",
					"type": "function"
				}
			],
			"devdoc": {
				"kind": "dev",
				"methods": {},
				"version": 1
			},
			"evm": {
				"assembly": "    /* \"contracts/core/ERC20.sol\":101:3116  contract ERC20 is IERC20 {... */\n  mstore(0x40, 0x80)\n    /* \"contracts/core/ERC20.sol\":806:1146  constructor( //when Deploy contract → create money → assign to creator... */\n  callvalue\n  dup1\n  iszero\n  tag_1\n  jumpi\n  revert(0x00, 0x00)\ntag_1:\n  pop\n  mload(0x40)\n  sub(codesize, bytecodeSize)\n  dup1\n  bytecodeSize\n  dup4\n  codecopy\n  dup2\n  dup2\n  add\n  0x40\n  mstore\n  dup2\n  add\n  swap1\n  tag_2\n  swap2\n  swap1\n  tag_3\n  jump\t// in\ntag_2:\n    /* \"contracts/core/ERC20.sol\":1024:1029  _name */\n  dup4\n    /* \"contracts/core/ERC20.sol\":1018:1022  name */\n  0x00\n    /* \"contracts/core/ERC20.sol\":1018:1029  name =_name */\n  swap1\n  dup2\n  tag_6\n  swap2\n  swap1\n  tag_7\n  jump\t// in\ntag_6:\n  pop\n    /* \"contracts/core/ERC20.sol\":1049:1056  _symbol */\n  dup3\n    /* \"contracts/core/ERC20.sol\":1040:1046  symbol */\n  0x01\n    /* \"contracts/core/ERC20.sol\":1040:1056  symbol = _symbol */\n  swap1\n  dup2\n  tag_8\n  swap2\n  swap1\n  tag_7\n  jump\t// in\ntag_8:\n  pop\n    /* \"contracts/core/ERC20.sol\":1076:1085  _decimals */\n  dup2\n    /* \"contracts/core/ERC20.sol\":1067:1075  decimals */\n  0x02\n  0x00\n    /* \"contracts/core/ERC20.sol\":1067:1085  decimals=_decimals */\n  0x0100\n  exp\n  dup2\n  sload\n  dup2\n  0xff\n  mul\n  not\n  and\n  swap1\n  dup4\n  0xff\n  and\n  mul\n  or\n  swap1\n  sstore\n  pop\n    /* \"contracts/core/ERC20.sol\":1106:1138  _mint(msg.sender,_initialSupply) */\n  tag_9\n    /* \"contracts/core/ERC20.sol\":1112:1122  msg.sender */\n  caller\n    /* \"contracts/core/ERC20.sol\":1123:1137  _initialSupply */\n  dup3\n    /* \"contracts/core/ERC20.sol\":1106:1111  _mint */\n  shl(0x20, tag_10)\n    /* \"contracts/core/ERC20.sol\":1106:1138  _mint(msg.sender,_initialSupply) */\n  0x20\n  shr\n  jump\t// in\ntag_9:\n    /* \"contracts/core/ERC20.sol\":806:1146  constructor( //when Deploy contract → create money → assign to creator... */\n  pop\n  pop\n  pop\n  pop\n    /* \"contracts/core/ERC20.sol\":101:3116  contract ERC20 is IERC20 {... */\n  jump(tag_11)\n    /* \"contracts/core/ERC20.sol\":1154:1549  function _mint(address to, uint256 amount) internal {... */\ntag_10:\n    /* \"contracts/core/ERC20.sol\":1398:1399  0 */\n  0x00\n    /* \"contracts/core/ERC20.sol\":1384:1400  to != address(0) */\n  0xffffffffffffffffffffffffffffffffffffffff\n  and\n    /* \"contracts/core/ERC20.sol\":1384:1386  to */\n  dup3\n    /* \"contracts/core/ERC20.sol\":1384:1400  to != address(0) */\n  0xffffffffffffffffffffffffffffffffffffffff\n  and\n  sub\n    /* \"contracts/core/ERC20.sol\":1375:1425  require( to != address(0), \"mint to zero address\") */\n  tag_13\n  jumpi\n  mload(0x40)\n  0x08c379a000000000000000000000000000000000000000000000000000000000\n  dup2\n  mstore\n  0x04\n  add\n  tag_14\n  swap1\n  tag_15\n  jump\t// in\ntag_14:\n  mload(0x40)\n  dup1\n  swap2\n  sub\n  swap1\n  revert\ntag_13:\n    /* \"contracts/core/ERC20.sol\":1451:1457  amount */\n  dup1\n    /* \"contracts/core/ERC20.sol\":1436:1447  totalSupply */\n  0x03\n  0x00\n    /* \"contracts/core/ERC20.sol\":1436:1457  totalSupply += amount */\n  dup3\n  dup3\n  sload\n  tag_16\n  swap2\n  swap1\n  tag_17\n  jump\t// in\ntag_16:\n  swap3\n  pop\n  pop\n  dup2\n  swap1\n  sstore\n  pop\n    /* \"contracts/core/ERC20.sol\":1485:1491  amount */\n  dup1\n    /* \"contracts/core/ERC20.sol\":1468:1477  balanceOf */\n  0x04\n    /* \"contracts/core/ERC20.sol\":1468:1481  balanceOf[to] */\n  0x00\n    /* \"contracts/core/ERC20.sol\":1478:1480  to */\n  dup5\n    /* \"contracts/core/ERC20.sol\":1468:1481  balanceOf[to] */\n  0xffffffffffffffffffffffffffffffffffffffff\n  and\n  0xffffffffffffffffffffffffffffffffffffffff\n  and\n  dup2\n  mstore\n  0x20\n  add\n  swap1\n  dup2\n  mstore\n  0x20\n  add\n  0x00\n  keccak256\n  0x00\n    /* \"contracts/core/ERC20.sol\":1468:1491  balanceOf[to] += amount */\n  dup3\n  dup3\n  sload\n  tag_18\n  swap2\n  swap1\n  tag_17\n  jump\t// in\ntag_18:\n  swap3\n  pop\n  pop\n  dup2\n  swap1\n  sstore\n  pop\n    /* \"contracts/core/ERC20.sol\":1530:1532  to */\n  dup2\n    /* \"contracts/core/ERC20.sol\":1509:1541  Transfer(address(0), to, amount) */\n  0xffffffffffffffffffffffffffffffffffffffff\n  and\n    /* \"contracts/core/ERC20.sol\":1526:1527  0 */\n  0x00\n    /* \"contracts/core/ERC20.sol\":1509:1541  Transfer(address(0), to, amount) */\n  0xffffffffffffffffffffffffffffffffffffffff\n  and\n  0xddf252ad1be2c89b69c2b068fc378daa952ba7f163c4a11628f55a4df523b3ef\n    /* \"contracts/core/ERC20.sol\":1534:1540  amount */\n  dup4\n    /* \"contracts/core/ERC20.sol\":1509:1541  Transfer(address(0), to, amount) */\n  mload(0x40)\n  tag_19\n  swap2\n  swap1\n  tag_20\n  jump\t// in\ntag_19:\n  mload(0x40)\n  dup1\n  swap2\n  sub\n  swap1\n  log3\n    /* \"contracts/core/ERC20.sol\":1154:1549  function _mint(address to, uint256 amount) internal {... */\n  pop\n  pop\n  jump\t// out\n    /* \"#utility.yul\":7:82   */\ntag_21:\n    /* \"#utility.yul\":40:46   */\n  0x00\n    /* \"#utility.yul\":73:75   */\n  0x40\n    /* \"#utility.yul\":67:76   */\n  mload\n    /* \"#utility.yul\":57:76   */\n  swap1\n  pop\n    /* \"#utility.yul\":7:82   */\n  swap1\n  jump\t// out\n    /* \"#utility.yul\":88:205   */\ntag_22:\n    /* \"#utility.yul\":197:198   */\n  0x00\n    /* \"#utility.yul\":194:195   */\n  0x00\n    /* \"#utility.yul\":187:199   */\n  revert\n    /* \"#utility.yul\":211:328   */\ntag_23:\n    /* \"#utility.yul\":320:321   */\n  0x00\n    /* \"#utility.yul\":317:318   */\n  0x00\n    /* \"#utility.yul\":310:322   */\n  revert\n    /* \"#utility.yul\":334:451   */\ntag_24:\n    /* \"#utility.yul\":443:444   */\n  0x00\n    /* \"#utility.yul\":440:441   */\n  0x00\n    /* \"#utility.yul\":433:445   */\n  revert\n    /* \"#utility.yul\":457:574   */\ntag_25:\n    /* \"#utility.yul\":566:567   */\n  0x00\n    /* \"#utility.yul\":563:564   */\n  0x00\n    /* \"#utility.yul\":556:568   */\n  revert\n    /* \"#utility.yul\":580:682   */\ntag_26:\n    /* \"#utility.yul\":621:627   */\n  0x00\n    /* \"#utility.yul\":672:674   */\n  0x1f\n    /* \"#utility.yul\":668:675   */\n  not\n    /* \"#utility.yul\":663:665   */\n  0x1f\n    /* \"#utility.yul\":656:661   */\n  dup4\n    /* \"#utility.yul\":652:666   */\n  add\n    /* \"#utility.yul\":648:676   */\n  and\n    /* \"#utility.yul\":638:676   */\n  swap1\n  pop\n    /* \"#utility.yul\":580:682   */\n  swap2\n  swap1\n  pop\n  jump\t// out\n    /* \"#utility.yul\":688:868   */\ntag_27:\n    /* \"#utility.yul\":736:813   */\n  0x4e487b7100000000000000000000000000000000000000000000000000000000\n    /* \"#utility.yul\":733:734   */\n  0x00\n    /* \"#utility.yul\":726:814   */\n  mstore\n    /* \"#utility.yul\":833:837   */\n  0x41\n    /* \"#utility.yul\":830:831   */\n  0x04\n    /* \"#utility.yul\":823:838   */\n  mstore\n    /* \"#utility.yul\":857:861   */\n  0x24\n    /* \"#utility.yul\":854:855   */\n  0x00\n    /* \"#utility.yul\":847:862   */\n  revert\n    /* \"#utility.yul\":874:1155   */\ntag_28:\n    /* \"#utility.yul\":957:984   */\n  tag_72\n    /* \"#utility.yul\":979:983   */\n  dup3\n    /* \"#utility.yul\":957:984   */\n  tag_26\n  jump\t// in\ntag_72:\n    /* \"#utility.yul\":949:955   */\n  dup2\n    /* \"#utility.yul\":945:985   */\n  add\n    /* \"#utility.yul\":1087:1093   */\n  dup2\n    /* \"#utility.yul\":1075:1085   */\n  dup2\n    /* \"#utility.yul\":1072:1094   */\n  lt\n    /* \"#utility.yul\":1051:1069   */\n  0xffffffffffffffff\n    /* \"#utility.yul\":1039:1049   */\n  dup3\n    /* \"#utility.yul\":1036:1070   */\n  gt\n    /* \"#utility.yul\":1033:1095   */\n  or\n    /* \"#utility.yul\":1030:1118   */\n  iszero\n  tag_73\n  jumpi\n    /* \"#utility.yul\":1098:1116   */\n  tag_74\n  tag_27\n  jump\t// in\ntag_74:\n    /* \"#utility.yul\":1030:1118   */\ntag_73:\n    /* \"#utility.yul\":1138:1148   */\n  dup1\n    /* \"#utility.yul\":1134:1136   */\n  0x40\n    /* \"#utility.yul\":1127:1149   */\n  mstore\n    /* \"#utility.yul\":917:1155   */\n  pop\n    /* \"#utility.yul\":874:1155   */\n  pop\n  pop\n  jump\t// out\n    /* \"#utility.yul\":1161:1290   */\ntag_29:\n    /* \"#utility.yul\":1195:1201   */\n  0x00\n    /* \"#utility.yul\":1222:1242   */\n  tag_76\n  tag_21\n  jump\t// in\ntag_76:\n    /* \"#utility.yul\":1212:1242   */\n  swap1\n  pop\n    /* \"#utility.yul\":1251:1284   */\n  tag_77\n    /* \"#utility.yul\":1279:1283   */\n  dup3\n    /* \"#utility.yul\":1271:1277   */\n  dup3\n    /* \"#utility.yul\":1251:1284   */\n  tag_28\n  jump\t// in\ntag_77:\n    /* \"#utility.yul\":1161:1290   */\n  swap2\n  swap1\n  pop\n  jump\t// out\n    /* \"#utility.yul\":1296:1604   */\ntag_30:\n    /* \"#utility.yul\":1358:1362   */\n  0x00\n    /* \"#utility.yul\":1448:1466   */\n  0xffffffffffffffff\n    /* \"#utility.yul\":1440:1446   */\n  dup3\n    /* \"#utility.yul\":1437:1467   */\n  gt\n    /* \"#utility.yul\":1434:1490   */\n  iszero\n  tag_79\n  jumpi\n    /* \"#utility.yul\":1470:1488   */\n  tag_80\n  tag_27\n  jump\t// in\ntag_80:\n    /* \"#utility.yul\":1434:1490   */\ntag_79:\n    /* \"#utility.yul\":1508:1537   */\n  tag_81\n    /* \"#utility.yul\":1530:1536   */\n  dup3\n    /* \"#utility.yul\":1508:1537   */\n  tag_26\n  jump\t// in\ntag_81:\n    /* \"#utility.yul\":1500:1537   */\n  swap1\n  pop\n    /* \"#utility.yul\":1592:1596   */\n  0x20\n    /* \"#utility.yul\":1586:1590   */\n  dup2\n    /* \"#utility.yul\":1582:1597   */\n  add\n    /* \"#utility.yul\":1574:1597   */\n  swap1\n  pop\n    /* \"#utility.yul\":1296:1604   */\n  swap2\n  swap1\n  pop\n  jump\t// out\n    /* \"#utility.yul\":1610:1749   */\ntag_31:\n    /* \"#utility.yul\":1699:1705   */\n  dup3\n    /* \"#utility.yul\":1694:1697   */\n  dup2\n    /* \"#utility.yul\":1689:1692   */\n  dup4\n    /* \"#utility.yul\":1683:1706   */\n  mcopy\n    /* \"#utility.yul\":1740:1741   */\n  0x00\n    /* \"#utility.yul\":1731:1737   */\n  dup4\n    /* \"#utility.yul\":1726:1729   */\n  dup4\n    /* \"#utility.yul\":1722:1738   */\n  add\n    /* \"#utility.yul\":1715:1742   */\n  mstore\n    /* \"#utility.yul\":1610:1749   */\n  pop\n  pop\n  pop\n  jump\t// out\n    /* \"#utility.yul\":1755:2189   */\ntag_32:\n    /* \"#utility.yul\":1844:1849   */\n  0x00\n    /* \"#utility.yul\":1869:1935   */\n  tag_84\n    /* \"#utility.yul\":1885:1934   */\n  tag_85\n    /* \"#utility.yul\":1927:1933   */\n  dup5\n    /* \"#utility.yul\":1885:1934   */\n  tag_30\n  jump\t// in\ntag_85:\n    /* \"#utility.yul\":1869:1935   */\n  tag_29\n  jump\t// in\ntag_84:\n    /* \"#utility.yul\":1860:1935   */\n  swap1\n  pop\n    /* \"#utility.yul\":1958:1964   */\n  dup3\n    /* \"#utility.yul\":1951:1956   */\n  dup2\n    /* \"#utility.yul\":1944:1965   */\n  mstore\n    /* \"#utility.yul\":1996:2000   */\n  0x20\n    /* \"#utility.yul\":1989:1994   */\n  dup2\n    /* \"#utility.yul\":1985:2001   */\n  add\n    /* \"#utility.yul\":2034:2037   */\n  dup5\n    /* \"#utility.yul\":2025:2031   */\n  dup5\n    /* \"#utility.yul\":2020:2023   */\n  dup5\n    /* \"#utility.yul\":2016:2032   */\n  add\n    /* \"#utility.yul\":2013:2038   */\n  gt\n    /* \"#utility.yul\":2010:2122   */\n  iszero\n  tag_86\n  jumpi\n    /* \"#utility.yul\":2041:2120   */\n  tag_87\n  tag_25\n  jump\t// in\ntag_87:\n    /* \"#utility.yul\":2010:2122   */\ntag_86:\n    /* \"#utility.yul\":2131:2183   */\n  tag_88\n    /* \"#utility.yul\":2176:2182   */\n  dup5\n    /* \"#utility.yul\":2171:2174   */\n  dup3\n    /* \"#utility.yul\":2166:2169   */\n  dup6\n    /* \"#utility.yul\":2131:2183   */\n  tag_31\n  jump\t// in\ntag_88:\n    /* \"#utility.yul\":1850:2189   */\n  pop\n    /* \"#utility.yul\":1755:2189   */\n  swap4\n  swap3\n  pop\n  pop\n  pop\n  jump\t// out\n    /* \"#utility.yul\":2209:2564   */\ntag_33:\n    /* \"#utility.yul\":2276:2281   */\n  0x00\n    /* \"#utility.yul\":2325:2328   */\n  dup3\n    /* \"#utility.yul\":2318:2322   */\n  0x1f\n    /* \"#utility.yul\":2310:2316   */\n  dup4\n    /* \"#utility.yul\":2306:2323   */\n  add\n    /* \"#utility.yul\":2302:2329   */\n  slt\n    /* \"#utility.yul\":2292:2414   */\n  tag_90\n  jumpi\n    /* \"#utility.yul\":2333:2412   */\n  tag_91\n  tag_24\n  jump\t// in\ntag_91:\n    /* \"#utility.yul\":2292:2414   */\ntag_90:\n    /* \"#utility.yul\":2443:2449   */\n  dup2\n    /* \"#utility.yul\":2437:2450   */\n  mload\n    /* \"#utility.yul\":2468:2558   */\n  tag_92\n    /* \"#utility.yul\":2554:2557   */\n  dup5\n    /* \"#utility.yul\":2546:2552   */\n  dup3\n    /* \"#utility.yul\":2539:2543   */\n  0x20\n    /* \"#utility.yul\":2531:2537   */\n  dup7\n    /* \"#utility.yul\":2527:2544   */\n  add\n    /* \"#utility.yul\":2468:2558   */\n  tag_32\n  jump\t// in\ntag_92:\n    /* \"#utility.yul\":2459:2558   */\n  swap2\n  pop\n    /* \"#utility.yul\":2282:2564   */\n  pop\n    /* \"#utility.yul\":2209:2564   */\n  swap3\n  swap2\n  pop\n  pop\n  jump\t// out\n    /* \"#utility.yul\":2570:2656   */\ntag_34:\n    /* \"#utility.yul\":2605:2612   */\n  0x00\n    /* \"#utility.yul\":2645:2649   */\n  0xff\n    /* \"#utility.yul\":2638:2643   */\n  dup3\n    /* \"#utility.yul\":2634:2650   */\n  and\n    /* \"#utility.yul\":2623:2650   */\n  swap1\n  pop\n    /* \"#utility.yul\":2570:2656   */\n  swap2\n  swap1\n  pop\n  jump\t// out\n    /* \"#utility.yul\":2662:2780   */\ntag_35:\n    /* \"#utility.yul\":2733:2755   */\n  tag_95\n    /* \"#utility.yul\":2749:2754   */\n  dup2\n    /* \"#utility.yul\":2733:2755   */\n  tag_34\n  jump\t// in\ntag_95:\n    /* \"#utility.yul\":2726:2731   */\n  dup2\n    /* \"#utility.yul\":2723:2756   */\n  eq\n    /* \"#utility.yul\":2713:2774   */\n  tag_96\n  jumpi\n    /* \"#utility.yul\":2770:2771   */\n  0x00\n    /* \"#utility.yul\":2767:2768   */\n  0x00\n    /* \"#utility.yul\":2760:2772   */\n  revert\n    /* \"#utility.yul\":2713:2774   */\ntag_96:\n    /* \"#utility.yul\":2662:2780   */\n  pop\n  jump\t// out\n    /* \"#utility.yul\":2786:2925   */\ntag_36:\n    /* \"#utility.yul\":2841:2846   */\n  0x00\n    /* \"#utility.yul\":2872:2878   */\n  dup2\n    /* \"#utility.yul\":2866:2879   */\n  mload\n    /* \"#utility.yul\":2857:2879   */\n  swap1\n  pop\n    /* \"#utility.yul\":2888:2919   */\n  tag_98\n    /* \"#utility.yul\":2913:2918   */\n  dup2\n    /* \"#utility.yul\":2888:2919   */\n  tag_35\n  jump\t// in\ntag_98:\n    /* \"#utility.yul\":2786:2925   */\n  swap3\n  swap2\n  pop\n  pop\n  jump\t// out\n    /* \"#utility.yul\":2931:3008   */\ntag_37:\n    /* \"#utility.yul\":2968:2975   */\n  0x00\n    /* \"#utility.yul\":2997:3002   */\n  dup2\n    /* \"#utility.yul\":2986:3002   */\n  swap1\n  pop\n    /* \"#utility.yul\":2931:3008   */\n  swap2\n  swap1\n  pop\n  jump\t// out\n    /* \"#utility.yul\":3014:3136   */\ntag_38:\n    /* \"#utility.yul\":3087:3111   */\n  tag_101\n    /* \"#utility.yul\":3105:3110   */\n  dup2\n    /* \"#utility.yul\":3087:3111   */\n  tag_37\n  jump\t// in\ntag_101:\n    /* \"#utility.yul\":3080:3085   */\n  dup2\n    /* \"#utility.yul\":3077:3112   */\n  eq\n    /* \"#utility.yul\":3067:3130   */\n  tag_102\n  jumpi\n    /* \"#utility.yul\":3126:3127   */\n  0x00\n    /* \"#utility.yul\":3123:3124   */\n  0x00\n    /* \"#utility.yul\":3116:3128   */\n  revert\n    /* \"#utility.yul\":3067:3130   */\ntag_102:\n    /* \"#utility.yul\":3014:3136   */\n  pop\n  jump\t// out\n    /* \"#utility.yul\":3142:3285   */\ntag_39:\n    /* \"#utility.yul\":3199:3204   */\n  0x00\n    /* \"#utility.yul\":3230:3236   */\n  dup2\n    /* \"#utility.yul\":3224:3237   */\n  mload\n    /* \"#utility.yul\":3215:3237   */\n  swap1\n  pop\n    /* \"#utility.yul\":3246:3279   */\n  tag_104\n    /* \"#utility.yul\":3273:3278   */\n  dup2\n    /* \"#utility.yul\":3246:3279   */\n  tag_38\n  jump\t// in\ntag_104:\n    /* \"#utility.yul\":3142:3285   */\n  swap3\n  swap2\n  pop\n  pop\n  jump\t// out\n    /* \"#utility.yul\":3291:4453   */\ntag_3:\n    /* \"#utility.yul\":3406:3412   */\n  0x00\n    /* \"#utility.yul\":3414:3420   */\n  0x00\n    /* \"#utility.yul\":3422:3428   */\n  0x00\n    /* \"#utility.yul\":3430:3436   */\n  0x00\n    /* \"#utility.yul\":3479:3482   */\n  0x80\n    /* \"#utility.yul\":3467:3476   */\n  dup6\n    /* \"#utility.yul\":3458:3465   */\n  dup8\n    /* \"#utility.yul\":3454:3477   */\n  sub\n    /* \"#utility.yul\":3450:3483   */\n  slt\n    /* \"#utility.yul\":3447:3567   */\n  iszero\n  tag_106\n  jumpi\n    /* \"#utility.yul\":3486:3565   */\n  tag_107\n  tag_22\n  jump\t// in\ntag_107:\n    /* \"#utility.yul\":3447:3567   */\ntag_106:\n    /* \"#utility.yul\":3627:3628   */\n  0x00\n    /* \"#utility.yul\":3616:3625   */\n  dup6\n    /* \"#utility.yul\":3612:3629   */\n  add\n    /* \"#utility.yul\":3606:3630   */\n  mload\n    /* \"#utility.yul\":3657:3675   */\n  0xffffffffffffffff\n    /* \"#utility.yul\":3649:3655   */\n  dup2\n    /* \"#utility.yul\":3646:3676   */\n  gt\n    /* \"#utility.yul\":3643:3760   */\n  iszero\n  tag_108\n  jumpi\n    /* \"#utility.yul\":3679:3758   */\n  tag_109\n  tag_23\n  jump\t// in\ntag_109:\n    /* \"#utility.yul\":3643:3760   */\ntag_108:\n    /* \"#utility.yul\":3784:3858   */\n  tag_110\n    /* \"#utility.yul\":3850:3857   */\n  dup8\n    /* \"#utility.yul\":3841:3847   */\n  dup3\n    /* \"#utility.yul\":3830:3839   */\n  dup9\n    /* \"#utility.yul\":3826:3848   */\n  add\n    /* \"#utility.yul\":3784:3858   */\n  tag_33\n  jump\t// in\ntag_110:\n    /* \"#utility.yul\":3774:3858   */\n  swap5\n  pop\n    /* \"#utility.yul\":3577:3868   */\n  pop\n    /* \"#utility.yul\":3928:3930   */\n  0x20\n    /* \"#utility.yul\":3917:3926   */\n  dup6\n    /* \"#utility.yul\":3913:3931   */\n  add\n    /* \"#utility.yul\":3907:3932   */\n  mload\n    /* \"#utility.yul\":3959:3977   */\n  0xffffffffffffffff\n    /* \"#utility.yul\":3951:3957   */\n  dup2\n    /* \"#utility.yul\":3948:3978   */\n  gt\n    /* \"#utility.yul\":3945:4062   */\n  iszero\n  tag_111\n  jumpi\n    /* \"#utility.yul\":3981:4060   */\n  tag_112\n  tag_23\n  jump\t// in\ntag_112:\n    /* \"#utility.yul\":3945:4062   */\ntag_111:\n    /* \"#utility.yul\":4086:4160   */\n  tag_113\n    /* \"#utility.yul\":4152:4159   */\n  dup8\n    /* \"#utility.yul\":4143:4149   */\n  dup3\n    /* \"#utility.yul\":4132:4141   */\n  dup9\n    /* \"#utility.yul\":4128:4150   */\n  add\n    /* \"#utility.yul\":4086:4160   */\n  tag_33\n  jump\t// in\ntag_113:\n    /* \"#utility.yul\":4076:4160   */\n  swap4\n  pop\n    /* \"#utility.yul\":3878:4170   */\n  pop\n    /* \"#utility.yul\":4209:4211   */\n  0x40\n    /* \"#utility.yul\":4235:4297   */\n  tag_114\n    /* \"#utility.yul\":4289:4296   */\n  dup8\n    /* \"#utility.yul\":4280:4286   */\n  dup3\n    /* \"#utility.yul\":4269:4278   */\n  dup9\n    /* \"#utility.yul\":4265:4287   */\n  add\n    /* \"#utility.yul\":4235:4297   */\n  tag_36\n  jump\t// in\ntag_114:\n    /* \"#utility.yul\":4225:4297   */\n  swap3\n  pop\n    /* \"#utility.yul\":4180:4307   */\n  pop\n    /* \"#utility.yul\":4346:4348   */\n  0x60\n    /* \"#utility.yul\":4372:4436   */\n  tag_115\n    /* \"#utility.yul\":4428:4435   */\n  dup8\n    /* \"#utility.yul\":4419:4425   */\n  dup3\n    /* \"#utility.yul\":4408:4417   */\n  dup9\n    /* \"#utility.yul\":4404:4426   */\n  add\n    /* \"#utility.yul\":4372:4436   */\n  tag_39\n  jump\t// in\ntag_115:\n    /* \"#utility.yul\":4362:4436   */\n  swap2\n  pop\n    /* \"#utility.yul\":4317:4446   */\n  pop\n    /* \"#utility.yul\":3291:4453   */\n  swap3\n  swap6\n  swap2\n  swap5\n  pop\n  swap3\n  pop\n  jump\t// out\n    /* \"#utility.yul\":4459:4558   */\ntag_40:\n    /* \"#utility.yul\":4511:4517   */\n  0x00\n    /* \"#utility.yul\":4545:4550   */\n  dup2\n    /* \"#utility.yul\":4539:4551   */\n  mload\n    /* \"#utility.yul\":4529:4551   */\n  swap1\n  pop\n    /* \"#utility.yul\":4459:4558   */\n  swap2\n  swap1\n  pop\n  jump\t// out\n    /* \"#utility.yul\":4564:4744   */\ntag_41:\n    /* \"#utility.yul\":4612:4689   */\n  0x4e487b7100000000000000000000000000000000000000000000000000000000\n    /* \"#utility.yul\":4609:4610   */\n  0x00\n    /* \"#utility.yul\":4602:4690   */\n  mstore\n    /* \"#utility.yul\":4709:4713   */\n  0x22\n    /* \"#utility.yul\":4706:4707   */\n  0x04\n    /* \"#utility.yul\":4699:4714   */\n  mstore\n    /* \"#utility.yul\":4733:4737   */\n  0x24\n    /* \"#utility.yul\":4730:4731   */\n  0x00\n    /* \"#utility.yul\":4723:4738   */\n  revert\n    /* \"#utility.yul\":4750:5070   */\ntag_42:\n    /* \"#utility.yul\":4794:4800   */\n  0x00\n    /* \"#utility.yul\":4831:4832   */\n  0x02\n    /* \"#utility.yul\":4825:4829   */\n  dup3\n    /* \"#utility.yul\":4821:4833   */\n  div\n    /* \"#utility.yul\":4811:4833   */\n  swap1\n  pop\n    /* \"#utility.yul\":4878:4879   */\n  0x01\n    /* \"#utility.yul\":4872:4876   */\n  dup3\n    /* \"#utility.yul\":4868:4880   */\n  and\n    /* \"#utility.yul\":4899:4917   */\n  dup1\n    /* \"#utility.yul\":4889:4970   */\n  tag_119\n  jumpi\n    /* \"#utility.yul\":4955:4959   */\n  0x7f\n    /* \"#utility.yul\":4947:4953   */\n  dup3\n    /* \"#utility.yul\":4943:4960   */\n  and\n    /* \"#utility.yul\":4933:4960   */\n  swap2\n  pop\n    /* \"#utility.yul\":4889:4970   */\ntag_119:\n    /* \"#utility.yul\":5017:5019   */\n  0x20\n    /* \"#utility.yul\":5009:5015   */\n  dup3\n    /* \"#utility.yul\":5006:5020   */\n  lt\n    /* \"#utility.yul\":4986:5004   */\n  dup2\n    /* \"#utility.yul\":4983:5021   */\n  sub\n    /* \"#utility.yul\":4980:5064   */\n  tag_120\n  jumpi\n    /* \"#utility.yul\":5036:5054   */\n  tag_121\n  tag_41\n  jump\t// in\ntag_121:\n    /* \"#utility.yul\":4980:5064   */\ntag_120:\n    /* \"#utility.yul\":4801:5070   */\n  pop\n    /* \"#utility.yul\":4750:5070   */\n  swap2\n  swap1\n  pop\n  jump\t// out\n    /* \"#utility.yul\":5076:5217   */\ntag_43:\n    /* \"#utility.yul\":5125:5129   */\n  0x00\n    /* \"#utility.yul\":5148:5151   */\n  dup2\n    /* \"#utility.yul\":5140:5151   */\n  swap1\n  pop\n    /* \"#utility.yul\":5171:5174   */\n  dup2\n    /* \"#utility.yul\":5168:5169   */\n  0x00\n    /* \"#utility.yul\":5161:5175   */\n  mstore\n    /* \"#utility.yul\":5205:5209   */\n  0x20\n    /* \"#utility.yul\":5202:5203   */\n  0x00\n    /* \"#utility.yul\":5192:5210   */\n  keccak256\n    /* \"#utility.yul\":5184:5210   */\n  swap1\n  pop\n    /* \"#utility.yul\":5076:5217   */\n  swap2\n  swap1\n  pop\n  jump\t// out\n    /* \"#utility.yul\":5223:5316   */\ntag_44:\n    /* \"#utility.yul\":5260:5266   */\n  0x00\n    /* \"#utility.yul\":5307:5309   */\n  0x20\n    /* \"#utility.yul\":5302:5304   */\n  0x1f\n    /* \"#utility.yul\":5295:5300   */\n  dup4\n    /* \"#utility.yul\":5291:5305   */\n  add\n    /* \"#utility.yul\":5287:5310   */\n  div\n    /* \"#utility.yul\":5277:5310   */\n  swap1\n  pop\n    /* \"#utility.yul\":5223:5316   */\n  swap2\n  swap1\n  pop\n  jump\t// out\n    /* \"#utility.yul\":5322:5429   */\ntag_45:\n    /* \"#utility.yul\":5366:5374   */\n  0x00\n    /* \"#utility.yul\":5416:5421   */\n  dup3\n    /* \"#utility.yul\":5410:5414   */\n  dup3\n    /* \"#utility.yul\":5406:5422   */\n  shl\n    /* \"#utility.yul\":5385:5422   */\n  swap1\n  pop\n    /* \"#utility.yul\":5322:5429   */\n  swap3\n  swap2\n  pop\n  pop\n  jump\t// out\n    /* \"#utility.yul\":5435:5828   */\ntag_46:\n    /* \"#utility.yul\":5504:5510   */\n  0x00\n    /* \"#utility.yul\":5554:5555   */\n  0x08\n    /* \"#utility.yul\":5542:5552   */\n  dup4\n    /* \"#utility.yul\":5538:5556   */\n  mul\n    /* \"#utility.yul\":5577:5674   */\n  tag_126\n    /* \"#utility.yul\":5607:5673   */\n  0xffffffffffffffffffffffffffffffffffffffffffffffffffffffffffffffff\n    /* \"#utility.yul\":5596:5605   */\n  dup3\n    /* \"#utility.yul\":5577:5674   */\n  tag_45\n  jump\t// in\ntag_126:\n    /* \"#utility.yul\":5695:5734   */\n  tag_127\n    /* \"#utility.yul\":5725:5733   */\n  dup7\n    /* \"#utility.yul\":5714:5723   */\n  dup4\n    /* \"#utility.yul\":5695:5734   */\n  tag_45\n  jump\t// in\ntag_127:\n    /* \"#utility.yul\":5683:5734   */\n  swap6\n  pop\n    /* \"#utility.yul\":5767:5771   */\n  dup1\n    /* \"#utility.yul\":5763:5772   */\n  not\n    /* \"#utility.yul\":5756:5761   */\n  dup5\n    /* \"#utility.yul\":5752:5773   */\n  and\n    /* \"#utility.yul\":5743:5773   */\n  swap4\n  pop\n    /* \"#utility.yul\":5816:5820   */\n  dup1\n    /* \"#utility.yul\":5806:5814   */\n  dup7\n    /* \"#utility.yul\":5802:5821   */\n  and\n    /* \"#utility.yul\":5795:5800   */\n  dup5\n    /* \"#utility.yul\":5792:5822   */\n  or\n    /* \"#utility.yul\":5782:5822   */\n  swap3\n  pop\n    /* \"#utility.yul\":5511:5828   */\n  pop\n  pop\n    /* \"#utility.yul\":5435:5828   */\n  swap4\n  swap3\n  pop\n  pop\n  pop\n  jump\t// out\n    /* \"#utility.yul\":5834:5894   */\ntag_47:\n    /* \"#utility.yul\":5862:5865   */\n  0x00\n    /* \"#utility.yul\":5883:5888   */\n  dup2\n    /* \"#utility.yul\":5876:5888   */\n  swap1\n  pop\n    /* \"#utility.yul\":5834:5894   */\n  swap2\n  swap1\n  pop\n  jump\t// out\n    /* \"#utility.yul\":5900:6042   */\ntag_48:\n    /* \"#utility.yul\":5950:5959   */\n  0x00\n    /* \"#utility.yul\":5983:6036   */\n  tag_130\n    /* \"#utility.yul\":6001:6035   */\n  tag_131\n    /* \"#utility.yul\":6010:6034   */\n  tag_132\n    /* \"#utility.yul\":6028:6033   */\n  dup5\n    /* \"#utility.yul\":6010:6034   */\n  tag_37\n  jump\t// in\ntag_132:\n    /* \"#utility.yul\":6001:6035   */\n  tag_47\n  jump\t// in\ntag_131:\n    /* \"#utility.yul\":5983:6036   */\n  tag_37\n  jump\t// in\ntag_130:\n    /* \"#utility.yul\":5970:6036   */\n  swap1\n  pop\n    /* \"#utility.yul\":5900:6042   */\n  swap2\n  swap1\n  pop\n  jump\t// out\n    /* \"#utility.yul\":6048:6123   */\ntag_49:\n    /* \"#utility.yul\":6091:6094   */\n  0x00\n    /* \"#utility.yul\":6112:6117   */\n  dup2\n    /* \"#utility.yul\":6105:6117   */\n  swap1\n  pop\n    /* \"#utility.yul\":6048:6123   */\n  swap2\n  swap1\n  pop\n  jump\t// out\n    /* \"#utility.yul\":6129:6398   */\ntag_50:\n    /* \"#utility.yul\":6239:6278   */\n  tag_135\n    /* \"#utility.yul\":6270:6277   */\n  dup4\n    /* \"#utility.yul\":6239:6278   */\n  tag_48\n  jump\t// in\ntag_135:\n    /* \"#utility.yul\":6300:6391   */\n  tag_136\n    /* \"#utility.yul\":6349:6390   */\n  tag_137\n    /* \"#utility.yul\":6373:6389   */\n  dup3\n    /* \"#utility.yul\":6349:6390   */\n  tag_49\n  jump\t// in\ntag_137:\n    /* \"#utility.yul\":6341:6347   */\n  dup5\n    /* \"#utility.yul\":6334:6338   */\n  dup5\n    /* \"#utility.yul\":6328:6339   */\n  sload\n    /* \"#utility.yul\":6300:6391   */\n  tag_46\n  jump\t// in\ntag_136:\n    /* \"#utility.yul\":6294:6298   */\n  dup3\n    /* \"#utility.yul\":6287:6392   */\n  sstore\n    /* \"#utility.yul\":6205:6398   */\n  pop\n    /* \"#utility.yul\":6129:6398   */\n  pop\n  pop\n  pop\n  jump\t// out\n    /* \"#utility.yul\":6404:6477   */\ntag_51:\n    /* \"#utility.yul\":6449:6452   */\n  0x00\n    /* \"#utility.yul\":6470:6471   */\n  0x00\n    /* \"#utility.yul\":6463:6471   */\n  swap1\n  pop\n    /* \"#utility.yul\":6404:6477   */\n  swap1\n  jump\t// out\n    /* \"#utility.yul\":6483:6672   */\ntag_52:\n    /* \"#utility.yul\":6560:6592   */\n  tag_140\n  tag_51\n  jump\t// in\ntag_140:\n    /* \"#utility.yul\":6601:6666   */\n  tag_141\n    /* \"#utility.yul\":6659:6665   */\n  dup2\n    /* \"#utility.yul\":6651:6657   */\n  dup5\n    /* \"#utility.yul\":6645:6649   */\n  dup5\n    /* \"#utility.yul\":6601:6666   */\n  tag_50\n  jump\t// in\ntag_141:\n    /* \"#utility.yul\":6536:6672   */\n  pop\n    /* \"#utility.yul\":6483:6672   */\n  pop\n  pop\n  jump\t// out\n    /* \"#utility.yul\":6678:6864   */\ntag_53:\n    /* \"#utility.yul\":6738:6858   */\ntag_143:\n    /* \"#utility.yul\":6755:6758   */\n  dup2\n    /* \"#utility.yul\":6748:6753   */\n  dup2\n    /* \"#utility.yul\":6745:6759   */\n  lt\n    /* \"#utility.yul\":6738:6858   */\n  iszero\n  tag_145\n  jumpi\n    /* \"#utility.yul\":6809:6848   */\n  tag_146\n    /* \"#utility.yul\":6846:6847   */\n  0x00\n    /* \"#utility.yul\":6839:6844   */\n  dup3\n    /* \"#utility.yul\":6809:6848   */\n  tag_52\n  jump\t// in\ntag_146:\n    /* \"#utility.yul\":6782:6783   */\n  0x01\n    /* \"#utility.yul\":6775:6780   */\n  dup2\n    /* \"#utility.yul\":6771:6784   */\n  add\n    /* \"#utility.yul\":6762:6784   */\n  swap1\n  pop\n    /* \"#utility.yul\":6738:6858   */\n  jump(tag_143)\ntag_145:\n    /* \"#utility.yul\":6678:6864   */\n  pop\n  pop\n  jump\t// out\n    /* \"#utility.yul\":6870:7413   */\ntag_54:\n    /* \"#utility.yul\":6971:6973   */\n  0x1f\n    /* \"#utility.yul\":6966:6969   */\n  dup3\n    /* \"#utility.yul\":6963:6974   */\n  gt\n    /* \"#utility.yul\":6960:7406   */\n  iszero\n  tag_148\n  jumpi\n    /* \"#utility.yul\":7005:7043   */\n  tag_149\n    /* \"#utility.yul\":7037:7042   */\n  dup2\n    /* \"#utility.yul\":7005:7043   */\n  tag_43\n  jump\t// in\ntag_149:\n    /* \"#utility.yul\":7089:7118   */\n  tag_150\n    /* \"#utility.yul\":7107:7117   */\n  dup5\n    /* \"#utility.yul\":7089:7118   */\n  tag_44\n  jump\t// in\ntag_150:\n    /* \"#utility.yul\":7079:7087   */\n  dup2\n    /* \"#utility.yul\":7075:7119   */\n  add\n    /* \"#utility.yul\":7272:7274   */\n  0x20\n    /* \"#utility.yul\":7260:7270   */\n  dup6\n    /* \"#utility.yul\":7257:7275   */\n  lt\n    /* \"#utility.yul\":7254:7303   */\n  iszero\n  tag_151\n  jumpi\n    /* \"#utility.yul\":7293:7301   */\n  dup2\n    /* \"#utility.yul\":7278:7301   */\n  swap1\n  pop\n    /* \"#utility.yul\":7254:7303   */\ntag_151:\n    /* \"#utility.yul\":7316:7396   */\n  tag_152\n    /* \"#utility.yul\":7372:7394   */\n  tag_153\n    /* \"#utility.yul\":7390:7393   */\n  dup6\n    /* \"#utility.yul\":7372:7394   */\n  tag_44\n  jump\t// in\ntag_153:\n    /* \"#utility.yul\":7362:7370   */\n  dup4\n    /* \"#utility.yul\":7358:7395   */\n  add\n    /* \"#utility.yul\":7345:7356   */\n  dup3\n    /* \"#utility.yul\":7316:7396   */\n  tag_53\n  jump\t// in\ntag_152:\n    /* \"#utility.yul\":6975:7406   */\n  pop\n  pop\n    /* \"#utility.yul\":6960:7406   */\ntag_148:\n    /* \"#utility.yul\":6870:7413   */\n  pop\n  pop\n  pop\n  jump\t// out\n    /* \"#utility.yul\":7419:7536   */\ntag_55:\n    /* \"#utility.yul\":7473:7481   */\n  0x00\n    /* \"#utility.yul\":7523:7528   */\n  dup3\n    /* \"#utility.yul\":7517:7521   */\n  dup3\n    /* \"#utility.yul\":7513:7529   */\n  shr\n    /* \"#utility.yul\":7492:7529   */\n  swap1\n  pop\n    /* \"#utility.yul\":7419:7536   */\n  swap3\n  swap2\n  pop\n  pop\n  jump\t// out\n    /* \"#utility.yul\":7542:7711   */\ntag_56:\n    /* \"#utility.yul\":7586:7592   */\n  0x00\n    /* \"#utility.yul\":7619:7670   */\n  tag_156\n    /* \"#utility.yul\":7667:7668   */\n  0x00\n    /* \"#utility.yul\":7663:7669   */\n  not\n    /* \"#utility.yul\":7655:7660   */\n  dup5\n    /* \"#utility.yul\":7652:7653   */\n  0x08\n    /* \"#utility.yul\":7648:7661   */\n  mul\n    /* \"#utility.yul\":7619:7670   */\n  tag_55\n  jump\t// in\ntag_156:\n    /* \"#utility.yul\":7615:7671   */\n  not\n    /* \"#utility.yul\":7700:7704   */\n  dup1\n    /* \"#utility.yul\":7694:7698   */\n  dup4\n    /* \"#utility.yul\":7690:7705   */\n  and\n    /* \"#utility.yul\":7680:7705   */\n  swap2\n  pop\n    /* \"#utility.yul\":7593:7711   */\n  pop\n    /* \"#utility.yul\":7542:7711   */\n  swap3\n  swap2\n  pop\n  pop\n  jump\t// out\n    /* \"#utility.yul\":7716:8011   */\ntag_57:\n    /* \"#utility.yul\":7792:7796   */\n  0x00\n    /* \"#utility.yul\":7938:7967   */\n  tag_158\n    /* \"#utility.yul\":7963:7966   */\n  dup4\n    /* \"#utility.yul\":7957:7961   */\n  dup4\n    /* \"#utility.yul\":7938:7967   */\n  tag_56\n  jump\t// in\ntag_158:\n    /* \"#utility.yul\":7930:7967   */\n  swap2\n  pop\n    /* \"#utility.yul\":8000:8003   */\n  dup3\n    /* \"#utility.yul\":7997:7998   */\n  0x02\n    /* \"#utility.yul\":7993:8004   */\n  mul\n    /* \"#utility.yul\":7987:7991   */\n  dup3\n    /* \"#utility.yul\":7984:8005   */\n  or\n    /* \"#utility.yul\":7976:8005   */\n  swap1\n  pop\n    /* \"#utility.yul\":7716:8011   */\n  swap3\n  swap2\n  pop\n  pop\n  jump\t// out\n    /* \"#utility.yul\":8016:9411   */\ntag_7:\n    /* \"#utility.yul\":8133:8170   */\n  tag_160\n    /* \"#utility.yul\":8166:8169   */\n  dup3\n    /* \"#utility.yul\":8133:8170   */\n  tag_40\n  jump\t// in\ntag_160:\n    /* \"#utility.yul\":8235:8253   */\n  0xffffffffffffffff\n    /* \"#utility.yul\":8227:8233   */\n  dup2\n    /* \"#utility.yul\":8224:8254   */\n  gt\n    /* \"#utility.yul\":8221:8277   */\n  iszero\n  tag_161\n  jumpi\n    /* \"#utility.yul\":8257:8275   */\n  tag_162\n  tag_27\n  jump\t// in\ntag_162:\n    /* \"#utility.yul\":8221:8277   */\ntag_161:\n    /* \"#utility.yul\":8301:8339   */\n  tag_163\n    /* \"#utility.yul\":8333:8337   */\n  dup3\n    /* \"#utility.yul\":8327:8338   */\n  sload\n    /* \"#utility.yul\":8301:8339   */\n  tag_42\n  jump\t// in\ntag_163:\n    /* \"#utility.yul\":8386:8453   */\n  tag_164\n    /* \"#utility.yul\":8446:8452   */\n  dup3\n    /* \"#utility.yul\":8438:8444   */\n  dup3\n    /* \"#utility.yul\":8432:8436   */\n  dup6\n    /* \"#utility.yul\":8386:8453   */\n  tag_54\n  jump\t// in\ntag_164:\n    /* \"#utility.yul\":8480:8481   */\n  0x00\n    /* \"#utility.yul\":8504:8508   */\n  0x20\n    /* \"#utility.yul\":8491:8508   */\n  swap1\n  pop\n    /* \"#utility.yul\":8536:8538   */\n  0x1f\n    /* \"#utility.yul\":8528:8534   */\n  dup4\n    /* \"#utility.yul\":8525:8539   */\n  gt\n    /* \"#utility.yul\":8553:8554   */\n  0x01\n    /* \"#utility.yul\":8548:9166   */\n  dup2\n  eq\n  tag_166\n  jumpi\n    /* \"#utility.yul\":9210:9211   */\n  0x00\n    /* \"#utility.yul\":9227:9233   */\n  dup5\n    /* \"#utility.yul\":9224:9301   */\n  iszero\n  tag_167\n  jumpi\n    /* \"#utility.yul\":9276:9285   */\n  dup3\n    /* \"#utility.yul\":9271:9274   */\n  dup8\n    /* \"#utility.yul\":9267:9286   */\n  add\n    /* \"#utility.yul\":9261:9287   */\n  mload\n    /* \"#utility.yul\":9252:9287   */\n  swap1\n  pop\n    /* \"#utility.yul\":9224:9301   */\ntag_167:\n    /* \"#utility.yul\":9327:9394   */\n  tag_168\n    /* \"#utility.yul\":9387:9393   */\n  dup6\n    /* \"#utility.yul\":9380:9385   */\n  dup3\n    /* \"#utility.yul\":9327:9394   */\n  tag_57\n  jump\t// in\ntag_168:\n    /* \"#utility.yul\":9321:9325   */\n  dup7\n    /* \"#utility.yul\":9314:9395   */\n  sstore\n    /* \"#utility.yul\":9183:9405   */\n  pop\n    /* \"#utility.yul\":8518:9405   */\n  jump(tag_165)\n    /* \"#utility.yul\":8548:9166   */\ntag_166:\n    /* \"#utility.yul\":8600:8604   */\n  0x1f\n    /* \"#utility.yul\":8596:8605   */\n  not\n    /* \"#utility.yul\":8588:8594   */\n  dup5\n    /* \"#utility.yul\":8584:8606   */\n  and\n    /* \"#utility.yul\":8634:8671   */\n  tag_169\n    /* \"#utility.yul\":8666:8670   */\n  dup7\n    /* \"#utility.yul\":8634:8671   */\n  tag_43\n  jump\t// in\ntag_169:\n    /* \"#utility.yul\":8693:8694   */\n  0x00\n    /* \"#utility.yul\":8707:8915   */\ntag_170:\n    /* \"#utility.yul\":8721:8728   */\n  dup3\n    /* \"#utility.yul\":8718:8719   */\n  dup2\n    /* \"#utility.yul\":8715:8729   */\n  lt\n    /* \"#utility.yul\":8707:8915   */\n  iszero\n  tag_172\n  jumpi\n    /* \"#utility.yul\":8800:8809   */\n  dup5\n    /* \"#utility.yul\":8795:8798   */\n  dup10\n    /* \"#utility.yul\":8791:8810   */\n  add\n    /* \"#utility.yul\":8785:8811   */\n  mload\n    /* \"#utility.yul\":8777:8783   */\n  dup3\n    /* \"#utility.yul\":8770:8812   */\n  sstore\n    /* \"#utility.yul\":8851:8852   */\n  0x01\n    /* \"#utility.yul\":8843:8849   */\n  dup3\n    /* \"#utility.yul\":8839:8853   */\n  add\n    /* \"#utility.yul\":8829:8853   */\n  swap2\n  pop\n    /* \"#utility.yul\":8898:8900   */\n  0x20\n    /* \"#utility.yul\":8887:8896   */\n  dup6\n    /* \"#utility.yul\":8883:8901   */\n  add\n    /* \"#utility.yul\":8870:8901   */\n  swap5\n  pop\n    /* \"#utility.yul\":8744:8748   */\n  0x20\n    /* \"#utility.yul\":8741:8742   */\n  dup2\n    /* \"#utility.yul\":8737:8749   */\n  add\n    /* \"#utility.yul\":8732:8749   */\n  swap1\n  pop\n    /* \"#utility.yul\":8707:8915   */\n  jump(tag_170)\ntag_172:\n    /* \"#utility.yul\":8943:8949   */\n  dup7\n    /* \"#utility.yul\":8934:8941   */\n  dup4\n    /* \"#utility.yul\":8931:8950   */\n  lt\n    /* \"#utility.yul\":8928:9107   */\n  iszero\n  tag_173\n  jumpi\n    /* \"#utility.yul\":9001:9010   */\n  dup5\n    /* \"#utility.yul\":8996:8999   */\n  dup10\n    /* \"#utility.yul\":8992:9011   */\n  add\n    /* \"#utility.yul\":8986:9012   */\n  mload\n    /* \"#utility.yul\":9044:9092   */\n  tag_174\n    /* \"#utility.yul\":9086:9090   */\n  0x1f\n    /* \"#utility.yul\":9078:9084   */\n  dup10\n    /* \"#utility.yul\":9074:9091   */\n  and\n    /* \"#utility.yul\":9063:9072   */\n  dup3\n    /* \"#utility.yul\":9044:9092   */\n  tag_56\n  jump\t// in\ntag_174:\n    /* \"#utility.yul\":9036:9042   */\n  dup4\n    /* \"#utility.yul\":9029:9093   */\n  sstore\n    /* \"#utility.yul\":8951:9107   */\n  pop\n    /* \"#utility.yul\":8928:9107   */\ntag_173:\n    /* \"#utility.yul\":9153:9154   */\n  0x01\n    /* \"#utility.yul\":9149:9150   */\n  0x02\n    /* \"#utility.yul\":9141:9147   */\n  dup9\n    /* \"#utility.yul\":9137:9151   */\n  mul\n    /* \"#utility.yul\":9133:9155   */\n  add\n    /* \"#utility.yul\":9127:9131   */\n  dup9\n    /* \"#utility.yul\":9120:9156   */\n  sstore\n    /* \"#utility.yul\":8555:9166   */\n  pop\n  pop\n  pop\n    /* \"#utility.yul\":8518:9405   */\ntag_165:\n  pop\n    /* \"#utility.yul\":8108:9411   */\n  pop\n  pop\n  pop\n    /* \"#utility.yul\":8016:9411   */\n  pop\n  pop\n  jump\t// out\n    /* \"#utility.yul\":9417:9586   */\ntag_58:\n    /* \"#utility.yul\":9501:9512   */\n  0x00\n    /* \"#utility.yul\":9535:9541   */\n  dup3\n    /* \"#utility.yul\":9530:9533   */\n  dup3\n    /* \"#utility.yul\":9523:9542   */\n  mstore\n    /* \"#utility.yul\":9575:9579   */\n  0x20\n    /* \"#utility.yul\":9570:9573   */\n  dup3\n    /* \"#utility.yul\":9566:9580   */\n  add\n    /* \"#utility.yul\":9551:9580   */\n  swap1\n  pop\n    /* \"#utility.yul\":9417:9586   */\n  swap3\n  swap2\n  pop\n  pop\n  jump\t// out\n    /* \"#utility.yul\":9592:9762   */\ntag_59:\n    /* \"#utility.yul\":9732:9754   */\n  0x6d696e7420746f207a65726f2061646472657373000000000000000000000000\n    /* \"#utility.yul\":9728:9729   */\n  0x00\n    /* \"#utility.yul\":9720:9726   */\n  dup3\n    /* \"#utility.yul\":9716:9730   */\n  add\n    /* \"#utility.yul\":9709:9755   */\n  mstore\n    /* \"#utility.yul\":9592:9762   */\n  pop\n  jump\t// out\n    /* \"#utility.yul\":9768:10134   */\ntag_60:\n    /* \"#utility.yul\":9910:9913   */\n  0x00\n    /* \"#utility.yul\":9931:9998   */\n  tag_178\n    /* \"#utility.yul\":9995:9997   */\n  0x14\n    /* \"#utility.yul\":9990:9993   */\n  dup4\n    /* \"#utility.yul\":9931:9998   */\n  tag_58\n  jump\t// in\ntag_178:\n    /* \"#utility.yul\":9924:9998   */\n  swap2\n  pop\n    /* \"#utility.yul\":10007:10100   */\n  tag_179\n    /* \"#utility.yul\":10096:10099   */\n  dup3\n    /* \"#utility.yul\":10007:10100   */\n  tag_59\n  jump\t// in\ntag_179:\n    /* \"#utility.yul\":10125:10127   */\n  0x20\n    /* \"#utility.yul\":10120:10123   */\n  dup3\n    /* \"#utility.yul\":10116:10128   */\n  add\n    /* \"#utility.yul\":10109:10128   */\n  swap1\n  pop\n    /* \"#utility.yul\":9768:10134   */\n  swap2\n  swap1\n  pop\n  jump\t// out\n    /* \"#utility.yul\":10140:10559   */\ntag_15:\n    /* \"#utility.yul\":10306:10310   */\n  0x00\n    /* \"#utility.yul\":10344:10346   */\n  0x20\n    /* \"#utility.yul\":10333:10342   */\n  dup3\n    /* \"#utility.yul\":10329:10347   */\n  add\n    /* \"#utility.yul\":10321:10347   */\n  swap1\n  pop\n    /* \"#utility.yul\":10393:10402   */\n  dup2\n    /* \"#utility.yul\":10387:10391   */\n  dup2\n    /* \"#utility.yul\":10383:10403   */\n  sub\n    /* \"#utility.yul\":10379:10380   */\n  0x00\n    /* \"#utility.yul\":10368:10377   */\n  dup4\n    /* \"#utility.yul\":10364:10381   */\n  add\n    /* \"#utility.yul\":10357:10404   */\n  mstore\n    /* \"#utility.yul\":10421:10552   */\n  tag_181\n    /* \"#utility.yul\":10547:10551   */\n  dup2\n    /* \"#utility.yul\":10421:10552   */\n  tag_60\n  jump\t// in\ntag_181:\n    /* \"#utility.yul\":10413:10552   */\n  swap1\n  pop\n    /* \"#utility.yul\":10140:10559   */\n  swap2\n  swap1\n  pop\n  jump\t// out\n    /* \"#utility.yul\":10565:10745   */\ntag_61:\n    /* \"#utility.yul\":10613:10690   */\n  0x4e487b7100000000000000000000000000000000000000000000000000000000\n    /* \"#utility.yul\":10610:10611   */\n  0x00\n    /* \"#utility.yul\":10603:10691   */\n  mstore\n    /* \"#utility.yul\":10710:10714   */\n  0x11\n    /* \"#utility.yul\":10707:10708   */\n  0x04\n    /* \"#utility.yul\":10700:10715   */\n  mstore\n    /* \"#utility.yul\":10734:10738   */\n  0x24\n    /* \"#utility.yul\":10731:10732   */\n  0x00\n    /* \"#utility.yul\":10724:10739   */\n  revert\n    /* \"#utility.yul\":10751:10942   */\ntag_17:\n    /* \"#utility.yul\":10791:10794   */\n  0x00\n    /* \"#utility.yul\":10810:10830   */\n  tag_184\n    /* \"#utility.yul\":10828:10829   */\n  dup3\n    /* \"#utility.yul\":10810:10830   */\n  tag_37\n  jump\t// in\ntag_184:\n    /* \"#utility.yul\":10805:10830   */\n  swap2\n  pop\n    /* \"#utility.yul\":10844:10864   */\n  tag_185\n    /* \"#utility.yul\":10862:10863   */\n  dup4\n    /* \"#utility.yul\":10844:10864   */\n  tag_37\n  jump\t// in\ntag_185:\n    /* \"#utility.yul\":10839:10864   */\n  swap3\n  pop\n    /* \"#utility.yul\":10887:10888   */\n  dup3\n    /* \"#utility.yul\":10884:10885   */\n  dup3\n    /* \"#utility.yul\":10880:10889   */\n  add\n    /* \"#utility.yul\":10873:10889   */\n  swap1\n  pop\n    /* \"#utility.yul\":10908:10911   */\n  dup1\n    /* \"#utility.yul\":10905:10906   */\n  dup3\n    /* \"#utility.yul\":10902:10912   */\n  gt\n    /* \"#utility.yul\":10899:10935   */\n  iszero\n  tag_186\n  jumpi\n    /* \"#utility.yul\":10915:10933   */\n  tag_187\n  tag_61\n  jump\t// in\ntag_187:\n    /* \"#utility.yul\":10899:10935   */\ntag_186:\n    /* \"#utility.yul\":10751:10942   */\n  swap3\n  swap2\n  pop\n  pop\n  jump\t// out\n    /* \"#utility.yul\":10948:11066   */\ntag_62:\n    /* \"#utility.yul\":11035:11059   */\n  tag_189\n    /* \"#utility.yul\":11053:11058   */\n  dup2\n    /* \"#utility.yul\":11035:11059   */\n  tag_37\n  jump\t// in\ntag_189:\n    /* \"#utility.yul\":11030:11033   */\n  dup3\n    /* \"#utility.yul\":11023:11060   */\n  mstore\n    /* \"#utility.yul\":10948:11066   */\n  pop\n  pop\n  jump\t// out\n    /* \"#utility.yul\":11072:11294   */\ntag_20:\n    /* \"#utility.yul\":11165:11169   */\n  0x00\n    /* \"#utility.yul\":11203:11205   */\n  0x20\n    /* \"#utility.yul\":11192:11201   */\n  dup3\n    /* \"#utility.yul\":11188:11206   */\n  add\n    /* \"#utility.yul\":11180:11206   */\n  swap1\n  pop\n    /* \"#utility.yul\":11216:11287   */\n  tag_191\n    /* \"#utility.yul\":11284:11285   */\n  0x00\n    /* \"#utility.yul\":11273:11282   */\n  dup4\n    /* \"#utility.yul\":11269:11286   */\n  add\n    /* \"#utility.yul\":11260:11266   */\n  dup5\n    /* \"#utility.yul\":11216:11287   */\n  tag_62\n  jump\t// in\ntag_191:\n    /* \"#utility.yul\":11072:11294   */\n  swap3\n  swap2\n  pop\n  pop\n  jump\t// out\n    /* \"contracts/core/ERC20.sol\":101:3116  contract ERC20 is IERC20 {... */\ntag_11:\n  dataSize(sub_0)\n  dup1\n  dataOffset(sub_0)\n  0x00\n  codecopy\n  0x00\n  return\nstop\n\nsub_0: assembly {\n        /* \"contracts/core/ERC20.sol\":101:3116  contract ERC20 is IERC20 {... */\n      mstore(0x40, 0x80)\n      callvalue\n      dup1\n      iszero\n      tag_1\n      jumpi\n      revert(0x00, 0x00)\n    tag_1:\n      pop\n      jumpi(tag_2, lt(calldatasize, 0x04))\n      shr(0xe0, calldataload(0x00))\n      dup1\n      0x313ce567\n      gt\n      tag_12\n      jumpi\n      dup1\n      0x313ce567\n      eq\n      tag_7\n      jumpi\n      dup1\n      0x70a08231\n      eq\n      tag_8\n      jumpi\n      dup1\n      0x95d89b41\n      eq\n      tag_9\n      jumpi\n      dup1\n      0xa20bc7fe\n      eq\n      tag_10\n      jumpi\n      dup1\n      0xa9059cbb\n      eq\n      tag_11\n      jumpi\n      jump(tag_2)\n    tag_12:\n      dup1\n      0x06fdde03\n      eq\n      tag_3\n      jumpi\n      dup1\n      0x095ea7b3\n      eq\n      tag_4\n      jumpi\n      dup1\n      0x18160ddd\n      eq\n      tag_5\n      jumpi\n      dup1\n      0x23b872dd\n      eq\n      tag_6\n      jumpi\n    tag_2:\n      revert(0x00, 0x00)\n        /* \"contracts/core/ERC20.sol\":133:151  string public name */\n    tag_3:\n      tag_13\n      tag_14\n      jump\t// in\n    tag_13:\n      mload(0x40)\n      tag_15\n      swap2\n      swap1\n      tag_16\n      jump\t// in\n    tag_15:\n      mload(0x40)\n      dup1\n      swap2\n      sub\n      swap1\n      return\n        /* \"contracts/core/ERC20.sol\":2152:2486  function approve(address spender,uint256 amount) public override returns (bool){... */\n    tag_4:\n      tag_17\n      0x04\n      dup1\n      calldatasize\n      sub\n      dup2\n      add\n      swap1\n      tag_18\n      swap2\n      swap1\n      tag_19\n      jump\t// in\n    tag_18:\n      tag_20\n      jump\t// in\n    tag_17:\n      mload(0x40)\n      tag_21\n      swap2\n      swap1\n      tag_22\n      jump\t// in\n    tag_21:\n      mload(0x40)\n      dup1\n      swap2\n      sub\n      swap1\n      return\n        /* \"contracts/core/ERC20.sol\":274:300  uint256 public totalSupply */\n    tag_5:\n      tag_23\n      tag_24\n      jump\t// in\n    tag_23:\n      mload(0x40)\n      tag_25\n      swap2\n      swap1\n      tag_26\n      jump\t// in\n    tag_25:\n      mload(0x40)\n      dup1\n      swap2\n      sub\n      swap1\n      return\n        /* \"contracts/core/ERC20.sol\":2494:3107  function transferFrom(address from, address to, uint256 amount) public override returns(bool){... */\n    tag_6:\n      tag_27\n      0x04\n      dup1\n      calldatasize\n      sub\n      dup2\n      add\n      swap1\n      tag_28\n      swap2\n      swap1\n      tag_29\n      jump\t// in\n    tag_28:\n      tag_30\n      jump\t// in\n    tag_27:\n      mload(0x40)\n      tag_31\n      swap2\n      swap1\n      tag_22\n      jump\t// in\n    tag_31:\n      mload(0x40)\n      dup1\n      swap2\n      sub\n      swap1\n      return\n        /* \"contracts/core/ERC20.sol\":230:251  uint8 public decimals */\n    tag_7:\n      tag_32\n      tag_33\n      jump\t// in\n    tag_32:\n      mload(0x40)\n      tag_34\n      swap2\n      swap1\n      tag_35\n      jump\t// in\n    tag_34:\n      mload(0x40)\n      dup1\n      swap2\n      sub\n      swap1\n      return\n        /* \"contracts/core/ERC20.sol\":351:395  mapping(address => uint256) public balanceOf */\n    tag_8:\n      tag_36\n      0x04\n      dup1\n      calldatasize\n      sub\n      dup2\n      add\n      swap1\n      tag_37\n      swap2\n      swap1\n      tag_38\n      jump\t// in\n    tag_37:\n      tag_39\n      jump\t// in\n    tag_36:\n      mload(0x40)\n      tag_40\n      swap2\n      swap1\n      tag_26\n      jump\t// in\n    tag_40:\n      mload(0x40)\n      dup1\n      swap2\n      sub\n      swap1\n      return\n        /* \"contracts/core/ERC20.sol\":176:196  string public symbol */\n    tag_9:\n      tag_41\n      tag_42\n      jump\t// in\n    tag_41:\n      mload(0x40)\n      tag_43\n      swap2\n      swap1\n      tag_16\n      jump\t// in\n    tag_43:\n      mload(0x40)\n      dup1\n      swap2\n      sub\n      swap1\n      return\n        /* \"contracts/core/ERC20.sol\":437:499  mapping(address =>mapping(address => uint256)) public allownce */\n    tag_10:\n      tag_44\n      0x04\n      dup1\n      calldatasize\n      sub\n      dup2\n      add\n      swap1\n      tag_45\n      swap2\n      swap1\n      tag_46\n      jump\t// in\n    tag_45:\n      tag_47\n      jump\t// in\n    tag_44:\n      mload(0x40)\n      tag_48\n      swap2\n      swap1\n      tag_26\n      jump\t// in\n    tag_48:\n      mload(0x40)\n      dup1\n      swap2\n      sub\n      swap1\n      return\n        /* \"contracts/core/ERC20.sol\":1557:2144  function transfer(address to, uint256 amount) public override returns (bool){... */\n    tag_11:\n      tag_49\n      0x04\n      dup1\n      calldatasize\n      sub\n      dup2\n      add\n      swap1\n      tag_50\n      swap2\n      swap1\n      tag_19\n      jump\t// in\n    tag_50:\n      tag_51\n      jump\t// in\n    tag_49:\n      mload(0x40)\n      tag_52\n      swap2\n      swap1\n      tag_22\n      jump\t// in\n    tag_52:\n      mload(0x40)\n      dup1\n      swap2\n      sub\n      swap1\n      return\n        /* \"contracts/core/ERC20.sol\":133:151  string public name */\n    tag_14:\n      0x00\n      dup1\n      sload\n      tag_53\n      swap1\n      tag_54\n      jump\t// in\n    tag_53:\n      dup1\n      0x1f\n      add\n      0x20\n      dup1\n      swap2\n      div\n      mul\n      0x20\n      add\n      mload(0x40)\n      swap1\n      dup2\n      add\n      0x40\n      mstore\n      dup1\n      swap3\n      swap2\n      swap1\n      dup2\n      dup2\n      mstore\n      0x20\n      add\n      dup3\n      dup1\n      sload\n      tag_55\n      swap1\n      tag_54\n      jump\t// in\n    tag_55:\n      dup1\n      iszero\n      tag_56\n      jumpi\n      dup1\n      0x1f\n      lt\n      tag_57\n      jumpi\n      0x0100\n      dup1\n      dup4\n      sload\n      div\n      mul\n      dup4\n      mstore\n      swap2\n      0x20\n      add\n      swap2\n      jump(tag_56)\n    tag_57:\n      dup3\n      add\n      swap2\n      swap1\n      0x00\n      mstore\n      keccak256(0x00, 0x20)\n      swap1\n    tag_58:\n      dup2\n      sload\n      dup2\n      mstore\n      swap1\n      0x01\n      add\n      swap1\n      0x20\n      add\n      dup1\n      dup4\n      gt\n      tag_58\n      jumpi\n      dup3\n      swap1\n      sub\n      0x1f\n      and\n      dup3\n      add\n      swap2\n    tag_56:\n      pop\n      pop\n      pop\n      pop\n      pop\n      dup2\n      jump\t// out\n        /* \"contracts/core/ERC20.sol\":2152:2486  function approve(address spender,uint256 amount) public override returns (bool){... */\n    tag_20:\n        /* \"contracts/core/ERC20.sol\":2226:2230  bool */\n      0x00\n        /* \"contracts/core/ERC20.sol\":2325:2326  0 */\n      0x00\n        /* \"contracts/core/ERC20.sol\":2306:2327  spender != address(0) */\n      0xffffffffffffffffffffffffffffffffffffffff\n      and\n        /* \"contracts/core/ERC20.sol\":2306:2313  spender */\n      dup4\n        /* \"contracts/core/ERC20.sol\":2306:2327  spender != address(0) */\n      0xffffffffffffffffffffffffffffffffffffffff\n      and\n      sub\n        /* \"contracts/core/ERC20.sol\":2298:2346  require(spender != address(0),\"invalid spender\") */\n      tag_60\n      jumpi\n      mload(0x40)\n      0x08c379a000000000000000000000000000000000000000000000000000000000\n      dup2\n      mstore\n      0x04\n      add\n      tag_61\n      swap1\n      tag_62\n      jump\t// in\n    tag_61:\n      mload(0x40)\n      dup1\n      swap2\n      sub\n      swap1\n      revert\n    tag_60:\n        /* \"contracts/core/ERC20.sol\":2391:2397  amount */\n      dup2\n        /* \"contracts/core/ERC20.sol\":2359:2367  allownce */\n      0x05\n        /* \"contracts/core/ERC20.sol\":2359:2379  allownce[msg.sender] */\n      0x00\n        /* \"contracts/core/ERC20.sol\":2368:2378  msg.sender */\n      caller\n        /* \"contracts/core/ERC20.sol\":2359:2379  allownce[msg.sender] */\n      0xffffffffffffffffffffffffffffffffffffffff\n      and\n      0xffffffffffffffffffffffffffffffffffffffff\n      and\n      dup2\n      mstore\n      0x20\n      add\n      swap1\n      dup2\n      mstore\n      0x20\n      add\n      0x00\n      keccak256\n        /* \"contracts/core/ERC20.sol\":2359:2388  allownce[msg.sender][spender] */\n      0x00\n        /* \"contracts/core/ERC20.sol\":2380:2387  spender */\n      dup6\n        /* \"contracts/core/ERC20.sol\":2359:2388  allownce[msg.sender][spender] */\n      0xffffffffffffffffffffffffffffffffffffffff\n      and\n      0xffffffffffffffffffffffffffffffffffffffff\n      and\n      dup2\n      mstore\n      0x20\n      add\n      swap1\n      dup2\n      mstore\n      0x20\n      add\n      0x00\n      keccak256\n        /* \"contracts/core/ERC20.sol\":2359:2397  allownce[msg.sender][spender] = amount */\n      dup2\n      swap1\n      sstore\n      pop\n        /* \"contracts/core/ERC20.sol\":2436:2443  spender */\n      dup3\n        /* \"contracts/core/ERC20.sol\":2415:2452  Approval(msg.sender, spender, amount) */\n      0xffffffffffffffffffffffffffffffffffffffff\n      and\n        /* \"contracts/core/ERC20.sol\":2424:2434  msg.sender */\n      caller\n        /* \"contracts/core/ERC20.sol\":2415:2452  Approval(msg.sender, spender, amount) */\n      0xffffffffffffffffffffffffffffffffffffffff\n      and\n      0x8c5be1e5ebec7d5bd14f71427d1e84f3dd0314c0f7b2291e5b200ac8c7c3b925\n        /* \"contracts/core/ERC20.sol\":2445:2451  amount */\n      dup5\n        /* \"contracts/core/ERC20.sol\":2415:2452  Approval(msg.sender, spender, amount) */\n      mload(0x40)\n      tag_63\n      swap2\n      swap1\n      tag_26\n      jump\t// in\n    tag_63:\n      mload(0x40)\n      dup1\n      swap2\n      sub\n      swap1\n      log3\n        /* \"contracts/core/ERC20.sol\":2472:2476  true */\n      0x01\n        /* \"contracts/core/ERC20.sol\":2465:2476  return true */\n      swap1\n      pop\n        /* \"contracts/core/ERC20.sol\":2152:2486  function approve(address spender,uint256 amount) public override returns (bool){... */\n      swap3\n      swap2\n      pop\n      pop\n      jump\t// out\n        /* \"contracts/core/ERC20.sol\":274:300  uint256 public totalSupply */\n    tag_24:\n      sload(0x03)\n      dup2\n      jump\t// out\n        /* \"contracts/core/ERC20.sol\":2494:3107  function transferFrom(address from, address to, uint256 amount) public override returns(bool){... */\n    tag_30:\n        /* \"contracts/core/ERC20.sol\":2582:2586  bool */\n      0x00\n        /* \"contracts/core/ERC20.sol\":2809:2815  amount */\n      dup2\n        /* \"contracts/core/ERC20.sol\":2790:2799  balanceOf */\n      0x04\n        /* \"contracts/core/ERC20.sol\":2790:2805  balanceOf[from] */\n      0x00\n        /* \"contracts/core/ERC20.sol\":2800:2804  from */\n      dup7\n        /* \"contracts/core/ERC20.sol\":2790:2805  balanceOf[from] */\n      0xffffffffffffffffffffffffffffffffffffffff\n      and\n      0xffffffffffffffffffffffffffffffffffffffff\n      and\n      dup2\n      mstore\n      0x20\n      add\n      swap1\n      dup2\n      mstore\n      0x20\n      add\n      0x00\n      keccak256\n      sload\n        /* \"contracts/core/ERC20.sol\":2790:2815  balanceOf[from] >= amount */\n      lt\n      iszero\n        /* \"contracts/core/ERC20.sol\":2782:2839  require(balanceOf[from] >= amount,\"insufficient balance\") */\n      tag_65\n      jumpi\n      mload(0x40)\n      0x08c379a000000000000000000000000000000000000000000000000000000000\n      dup2\n      mstore\n      0x04\n      add\n      tag_66\n      swap1\n      tag_67\n      jump\t// in\n    tag_66:\n      mload(0x40)\n      dup1\n      swap2\n      sub\n      swap1\n      revert\n    tag_65:\n        /* \"contracts/core/ERC20.sol\":2888:2894  amount */\n      dup2\n        /* \"contracts/core/ERC20.sol\":2858:2866  allownce */\n      0x05\n        /* \"contracts/core/ERC20.sol\":2858:2872  allownce[from] */\n      0x00\n        /* \"contracts/core/ERC20.sol\":2867:2871  from */\n      dup7\n        /* \"contracts/core/ERC20.sol\":2858:2872  allownce[from] */\n      0xffffffffffffffffffffffffffffffffffffffff\n      and\n      0xffffffffffffffffffffffffffffffffffffffff\n      and\n      dup2\n      mstore\n      0x20\n      add\n      swap1\n      dup2\n      mstore\n      0x20\n      add\n      0x00\n      keccak256\n        /* \"contracts/core/ERC20.sol\":2858:2884  allownce[from][msg.sender] */\n      0x00\n        /* \"contracts/core/ERC20.sol\":2873:2883  msg.sender */\n      caller\n        /* \"contracts/core/ERC20.sol\":2858:2884  allownce[from][msg.sender] */\n      0xffffffffffffffffffffffffffffffffffffffff\n      and\n      0xffffffffffffffffffffffffffffffffffffffff\n      and\n      dup2\n      mstore\n      0x20\n      add\n      swap1\n      dup2\n      mstore\n      0x20\n      add\n      0x00\n      keccak256\n      sload\n        /* \"contracts/core/ERC20.sol\":2858:2894  allownce[from][msg.sender] >= amount */\n      lt\n      iszero\n        /* \"contracts/core/ERC20.sol\":2850:2916  require(allownce[from][msg.sender] >= amount,\"allowance exceeded\") */\n      tag_68\n      jumpi\n      mload(0x40)\n      0x08c379a000000000000000000000000000000000000000000000000000000000\n      dup2\n      mstore\n      0x04\n      add\n      tag_69\n      swap1\n      tag_70\n      jump\t// in\n    tag_69:\n      mload(0x40)\n      dup1\n      swap2\n      sub\n      swap1\n      revert\n    tag_68:\n        /* \"contracts/core/ERC20.sol\":2957:2963  amount */\n      dup2\n        /* \"contracts/core/ERC20.sol\":2927:2935  allownce */\n      0x05\n        /* \"contracts/core/ERC20.sol\":2927:2941  allownce[from] */\n      0x00\n        /* \"contracts/core/ERC20.sol\":2936:2940  from */\n      dup7\n        /* \"contracts/core/ERC20.sol\":2927:2941  allownce[from] */\n      0xffffffffffffffffffffffffffffffffffffffff\n      and\n      0xffffffffffffffffffffffffffffffffffffffff\n      and\n      dup2\n      mstore\n      0x20\n      add\n      swap1\n      dup2\n      mstore\n      0x20\n      add\n      0x00\n      keccak256\n        /* \"contracts/core/ERC20.sol\":2927:2953  allownce[from][msg.sender] */\n      0x00\n        /* \"contracts/core/ERC20.sol\":2942:2952  msg.sender */\n      caller\n        /* \"contracts/core/ERC20.sol\":2927:2953  allownce[from][msg.sender] */\n      0xffffffffffffffffffffffffffffffffffffffff\n      and\n      0xffffffffffffffffffffffffffffffffffffffff\n      and\n      dup2\n      mstore\n      0x20\n      add\n      swap1\n      dup2\n      mstore\n      0x20\n      add\n      0x00\n      keccak256\n      0x00\n        /* \"contracts/core/ERC20.sol\":2927:2963  allownce[from][msg.sender] -= amount */\n      dup3\n      dup3\n      sload\n      tag_71\n      swap2\n      swap1\n      tag_72\n      jump\t// in\n    tag_71:\n      swap3\n      pop\n      pop\n      dup2\n      swap1\n      sstore\n      pop\n        /* \"contracts/core/ERC20.sol\":2995:3001  amount */\n      dup2\n        /* \"contracts/core/ERC20.sol\":2976:2985  balanceOf */\n      0x04\n        /* \"contracts/core/ERC20.sol\":2976:2991  balanceOf[from] */\n      0x00\n        /* \"contracts/core/ERC20.sol\":2986:2990  from */\n      dup7\n        /* \"contracts/core/ERC20.sol\":2976:2991  balanceOf[from] */\n      0xffffffffffffffffffffffffffffffffffffffff\n      and\n      0xffffffffffffffffffffffffffffffffffffffff\n      and\n      dup2\n      mstore\n      0x20\n      add\n      swap1\n      dup2\n      mstore\n      0x20\n      add\n      0x00\n      keccak256\n      0x00\n        /* \"contracts/core/ERC20.sol\":2976:3001  balanceOf[from] -= amount */\n      dup3\n      dup3\n      sload\n      tag_73\n      swap2\n      swap1\n      tag_72\n      jump\t// in\n    tag_73:\n      swap3\n      pop\n      pop\n      dup2\n      swap1\n      sstore\n      pop\n        /* \"contracts/core/ERC20.sol\":3029:3035  amount */\n      dup2\n        /* \"contracts/core/ERC20.sol\":3012:3021  balanceOf */\n      0x04\n        /* \"contracts/core/ERC20.sol\":3012:3025  balanceOf[to] */\n      0x00\n        /* \"contracts/core/ERC20.sol\":3022:3024  to */\n      dup6\n        /* \"contracts/core/ERC20.sol\":3012:3025  balanceOf[to] */\n      0xffffffffffffffffffffffffffffffffffffffff\n      and\n      0xffffffffffffffffffffffffffffffffffffffff\n      and\n      dup2\n      mstore\n      0x20\n      add\n      swap1\n      dup2\n      mstore\n      0x20\n      add\n      0x00\n      keccak256\n      0x00\n        /* \"contracts/core/ERC20.sol\":3012:3035  balanceOf[to] += amount */\n      dup3\n      dup3\n      sload\n      tag_74\n      swap2\n      swap1\n      tag_75\n      jump\t// in\n    tag_74:\n      swap3\n      pop\n      pop\n      dup2\n      swap1\n      sstore\n      pop\n        /* \"contracts/core/ERC20.sol\":3067:3069  to */\n      dup3\n        /* \"contracts/core/ERC20.sol\":3053:3077  Transfer(from,to,amount) */\n      0xffffffffffffffffffffffffffffffffffffffff\n      and\n        /* \"contracts/core/ERC20.sol\":3062:3066  from */\n      dup5\n        /* \"contracts/core/ERC20.sol\":3053:3077  Transfer(from,to,amount) */\n      0xffffffffffffffffffffffffffffffffffffffff\n      and\n      0xddf252ad1be2c89b69c2b068fc378daa952ba7f163c4a11628f55a4df523b3ef\n        /* \"contracts/core/ERC20.sol\":3070:3076  amount */\n      dup5\n        /* \"contracts/core/ERC20.sol\":3053:3077  Transfer(from,to,amount) */\n      mload(0x40)\n      tag_76\n      swap2\n      swap1\n      tag_26\n      jump\t// in\n    tag_76:\n      mload(0x40)\n      dup1\n      swap2\n      sub\n      swap1\n      log3\n        /* \"contracts/core/ERC20.sol\":3095:3099  true */\n      0x01\n        /* \"contracts/core/ERC20.sol\":3088:3099  return true */\n      swap1\n      pop\n        /* \"contracts/core/ERC20.sol\":2494:3107  function transferFrom(address from, address to, uint256 amount) public override returns(bool){... */\n      swap4\n      swap3\n      pop\n      pop\n      pop\n      jump\t// out\n        /* \"contracts/core/ERC20.sol\":230:251  uint8 public decimals */\n    tag_33:\n      0x02\n      0x00\n      swap1\n      sload\n      swap1\n      0x0100\n      exp\n      swap1\n      div\n      0xff\n      and\n      dup2\n      jump\t// out\n        /* \"contracts/core/ERC20.sol\":351:395  mapping(address => uint256) public balanceOf */\n    tag_39:\n      mstore(0x20, 0x04)\n      dup1\n      0x00\n      mstore\n      keccak256(0x00, 0x40)\n      0x00\n      swap2\n      pop\n      swap1\n      pop\n      sload\n      dup2\n      jump\t// out\n        /* \"contracts/core/ERC20.sol\":176:196  string public symbol */\n    tag_42:\n      0x01\n      dup1\n      sload\n      tag_77\n      swap1\n      tag_54\n      jump\t// in\n    tag_77:\n      dup1\n      0x1f\n      add\n      0x20\n      dup1\n      swap2\n      div\n      mul\n      0x20\n      add\n      mload(0x40)\n      swap1\n      dup2\n      add\n      0x40\n      mstore\n      dup1\n      swap3\n      swap2\n      swap1\n      dup2\n      dup2\n      mstore\n      0x20\n      add\n      dup3\n      dup1\n      sload\n      tag_78\n      swap1\n      tag_54\n      jump\t// in\n    tag_78:\n      dup1\n      iszero\n      tag_79\n      jumpi\n      dup1\n      0x1f\n      lt\n      tag_80\n      jumpi\n      0x0100\n      dup1\n      dup4\n      sload\n      div\n      mul\n      dup4\n      mstore\n      swap2\n      0x20\n      add\n      swap2\n      jump(tag_79)\n    tag_80:\n      dup3\n      add\n      swap2\n      swap1\n      0x00\n      mstore\n      keccak256(0x00, 0x20)\n      swap1\n    tag_81:\n      dup2\n      sload\n      dup2\n      mstore\n      swap1\n      0x01\n      add\n      swap1\n      0x20\n      add\n      dup1\n      dup4\n      gt\n      tag_81\n      jumpi\n      dup3\n      swap1\n      sub\n      0x1f\n      and\n      dup3\n      add\n      swap2\n    tag_79:\n      pop\n      pop\n      pop\n      pop\n      pop\n      dup2\n      jump\t// out\n        /* \"contracts/core/ERC20.sol\":437:499  mapping(address =>mapping(address => uint256)) public allownce */\n    tag_47:\n      mstore(0x20, 0x05)\n      dup2\n      0x00\n      mstore\n      mstore(0x20, keccak256(0x00, 0x40))\n      dup1\n      0x00\n      mstore\n      keccak256(0x00, 0x40)\n      0x00\n      swap2\n      pop\n      swap2\n      pop\n      pop\n      sload\n      dup2\n      jump\t// out\n        /* \"contracts/core/ERC20.sol\":1557:2144  function transfer(address to, uint256 amount) public override returns (bool){... */\n    tag_51:\n        /* \"contracts/core/ERC20.sol\":1628:1632  bool */\n      0x00\n        /* \"contracts/core/ERC20.sol\":1892:1893  0 */\n      0x00\n        /* \"contracts/core/ERC20.sol\":1878:1894  to != address(0) */\n      0xffffffffffffffffffffffffffffffffffffffff\n      and\n        /* \"contracts/core/ERC20.sol\":1878:1880  to */\n      dup4\n        /* \"contracts/core/ERC20.sol\":1878:1894  to != address(0) */\n      0xffffffffffffffffffffffffffffffffffffffff\n      and\n      sub\n        /* \"contracts/core/ERC20.sol\":1870:1913  require(to != address(0),\"invalid address\") */\n      tag_83\n      jumpi\n      mload(0x40)\n      0x08c379a000000000000000000000000000000000000000000000000000000000\n      dup2\n      mstore\n      0x04\n      add\n      tag_84\n      swap1\n      tag_85\n      jump\t// in\n    tag_84:\n      mload(0x40)\n      dup1\n      swap2\n      sub\n      swap1\n      revert\n    tag_83:\n        /* \"contracts/core/ERC20.sol\":1957:1963  amount */\n      dup2\n        /* \"contracts/core/ERC20.sol\":1932:1941  balanceOf */\n      0x04\n        /* \"contracts/core/ERC20.sol\":1932:1953  balanceOf[msg.sender] */\n      0x00\n        /* \"contracts/core/ERC20.sol\":1942:1952  msg.sender */\n      caller\n        /* \"contracts/core/ERC20.sol\":1932:1953  balanceOf[msg.sender] */\n      0xffffffffffffffffffffffffffffffffffffffff\n      and\n      0xffffffffffffffffffffffffffffffffffffffff\n      and\n      dup2\n      mstore\n      0x20\n      add\n      swap1\n      dup2\n      mstore\n      0x20\n      add\n      0x00\n      keccak256\n      sload\n        /* \"contracts/core/ERC20.sol\":1932:1963  balanceOf[msg.sender] >= amount */\n      lt\n      iszero\n        /* \"contracts/core/ERC20.sol\":1924:1986  require(balanceOf[msg.sender] >= amount,\"insuffecient amount\") */\n      tag_86\n      jumpi\n      mload(0x40)\n      0x08c379a000000000000000000000000000000000000000000000000000000000\n      dup2\n      mstore\n      0x04\n      add\n      tag_87\n      swap1\n      tag_88\n      jump\t// in\n    tag_87:\n      mload(0x40)\n      dup1\n      swap2\n      sub\n      swap1\n      revert\n    tag_86:\n        /* \"contracts/core/ERC20.sol\":2024:2030  amount */\n      dup2\n        /* \"contracts/core/ERC20.sol\":1999:2008  balanceOf */\n      0x04\n        /* \"contracts/core/ERC20.sol\":1999:2020  balanceOf[msg.sender] */\n      0x00\n        /* \"contracts/core/ERC20.sol\":2009:2019  msg.sender */\n      caller\n        /* \"contracts/core/ERC20.sol\":1999:2020  balanceOf[msg.sender] */\n      0xffffffffffffffffffffffffffffffffffffffff\n      and\n      0xffffffffffffffffffffffffffffffffffffffff\n      and\n      dup2\n      mstore\n      0x20\n      add\n      swap1\n      dup2\n      mstore\n      0x20\n      add\n      0x00\n      keccak256\n      0x00\n        /* \"contracts/core/ERC20.sol\":1999:2030  balanceOf[msg.sender] -= amount */\n      dup3\n      dup3\n      sload\n      tag_89\n      swap2\n      swap1\n      tag_72\n      jump\t// in\n    tag_89:\n      swap3\n      pop\n      pop\n      dup2\n      swap1\n      sstore\n      pop\n        /* \"contracts/core/ERC20.sol\":2058:2064  amount */\n      dup2\n        /* \"contracts/core/ERC20.sol\":2041:2050  balanceOf */\n      0x04\n        /* \"contracts/core/ERC20.sol\":2041:2054  balanceOf[to] */\n      0x00\n        /* \"contracts/core/ERC20.sol\":2051:2053  to */\n      dup6\n        /* \"contracts/core/ERC20.sol\":2041:2054  balanceOf[to] */\n      0xffffffffffffffffffffffffffffffffffffffff\n      and\n      0xffffffffffffffffffffffffffffffffffffffff\n      and\n      dup2\n      mstore\n      0x20\n      add\n      swap1\n      dup2\n      mstore\n      0x20\n      add\n      0x00\n      keccak256\n      0x00\n        /* \"contracts/core/ERC20.sol\":2041:2064  balanceOf[to] += amount */\n      dup3\n      dup3\n      sload\n      tag_90\n      swap2\n      swap1\n      tag_75\n      jump\t// in\n    tag_90:\n      swap3\n      pop\n      pop\n      dup2\n      swap1\n      sstore\n      pop\n        /* \"contracts/core/ERC20.sol\":2102:2104  to */\n      dup3\n        /* \"contracts/core/ERC20.sol\":2082:2112  Transfer(msg.sender,to,amount) */\n      0xffffffffffffffffffffffffffffffffffffffff\n      and\n        /* \"contracts/core/ERC20.sol\":2091:2101  msg.sender */\n      caller\n        /* \"contracts/core/ERC20.sol\":2082:2112  Transfer(msg.sender,to,amount) */\n      0xffffffffffffffffffffffffffffffffffffffff\n      and\n      0xddf252ad1be2c89b69c2b068fc378daa952ba7f163c4a11628f55a4df523b3ef\n        /* \"contracts/core/ERC20.sol\":2105:2111  amount */\n      dup5\n        /* \"contracts/core/ERC20.sol\":2082:2112  Transfer(msg.sender,to,amount) */\n      mload(0x40)\n      tag_91\n      swap2\n      swap1\n      tag_26\n      jump\t// in\n    tag_91:\n      mload(0x40)\n      dup1\n      swap2\n      sub\n      swap1\n      log3\n        /* \"contracts/core/ERC20.sol\":2130:2134  true */\n      0x01\n        /* \"contracts/core/ERC20.sol\":2123:2134  return true */\n      swap1\n      pop\n        /* \"contracts/core/ERC20.sol\":1557:2144  function transfer(address to, uint256 amount) public override returns (bool){... */\n      swap3\n      swap2\n      pop\n      pop\n      jump\t// out\n        /* \"#utility.yul\":7:106   */\n    tag_92:\n        /* \"#utility.yul\":59:65   */\n      0x00\n        /* \"#utility.yul\":93:98   */\n      dup2\n        /* \"#utility.yul\":87:99   */\n      mload\n        /* \"#utility.yul\":77:99   */\n      swap1\n      pop\n        /* \"#utility.yul\":7:106   */\n      swap2\n      swap1\n      pop\n      jump\t// out\n        /* \"#utility.yul\":112:281   */\n    tag_93:\n        /* \"#utility.yul\":196:207   */\n      0x00\n        /* \"#utility.yul\":230:236   */\n      dup3\n        /* \"#utility.yul\":225:228   */\n      dup3\n        /* \"#utility.yul\":218:237   */\n      mstore\n        /* \"#utility.yul\":270:274   */\n      0x20\n        /* \"#utility.yul\":265:268   */\n      dup3\n        /* \"#utility.yul\":261:275   */\n      add\n        /* \"#utility.yul\":246:275   */\n      swap1\n      pop\n        /* \"#utility.yul\":112:281   */\n      swap3\n      swap2\n      pop\n      pop\n      jump\t// out\n        /* \"#utility.yul\":287:426   */\n    tag_94:\n        /* \"#utility.yul\":376:382   */\n      dup3\n        /* \"#utility.yul\":371:374   */\n      dup2\n        /* \"#utility.yul\":366:369   */\n      dup4\n        /* \"#utility.yul\":360:383   */\n      mcopy\n        /* \"#utility.yul\":417:418   */\n      0x00\n        /* \"#utility.yul\":408:414   */\n      dup4\n        /* \"#utility.yul\":403:406   */\n      dup4\n        /* \"#utility.yul\":399:415   */\n      add\n        /* \"#utility.yul\":392:419   */\n      mstore\n        /* \"#utility.yul\":287:426   */\n      pop\n      pop\n      pop\n      jump\t// out\n        /* \"#utility.yul\":432:534   */\n    tag_95:\n        /* \"#utility.yul\":473:479   */\n      0x00\n        /* \"#utility.yul\":524:526   */\n      0x1f\n        /* \"#utility.yul\":520:527   */\n      not\n        /* \"#utility.yul\":515:517   */\n      0x1f\n        /* \"#utility.yul\":508:513   */\n      dup4\n        /* \"#utility.yul\":504:518   */\n      add\n        /* \"#utility.yul\":500:528   */\n      and\n        /* \"#utility.yul\":490:528   */\n      swap1\n      pop\n        /* \"#utility.yul\":432:534   */\n      swap2\n      swap1\n      pop\n      jump\t// out\n        /* \"#utility.yul\":540:917   */\n    tag_96:\n        /* \"#utility.yul\":628:631   */\n      0x00\n        /* \"#utility.yul\":656:695   */\n      tag_130\n        /* \"#utility.yul\":689:694   */\n      dup3\n        /* \"#utility.yul\":656:695   */\n      tag_92\n      jump\t// in\n    tag_130:\n        /* \"#utility.yul\":711:782   */\n      tag_131\n        /* \"#utility.yul\":775:781   */\n      dup2\n        /* \"#utility.yul\":770:773   */\n      dup6\n        /* \"#utility.yul\":711:782   */\n      tag_93\n      jump\t// in\n    tag_131:\n        /* \"#utility.yul\":704:782   */\n      swap4\n      pop\n        /* \"#utility.yul\":791:856   */\n      tag_132\n        /* \"#utility.yul\":849:855   */\n      dup2\n        /* \"#utility.yul\":844:847   */\n      dup6\n        /* \"#utility.yul\":837:841   */\n      0x20\n        /* \"#utility.yul\":830:835   */\n      dup7\n        /* \"#utility.yul\":826:842   */\n      add\n        /* \"#utility.yul\":791:856   */\n      tag_94\n      jump\t// in\n    tag_132:\n        /* \"#utility.yul\":881:910   */\n      tag_133\n        /* \"#utility.yul\":903:909   */\n      dup2\n        /* \"#utility.yul\":881:910   */\n      tag_95\n      jump\t// in\n    tag_133:\n        /* \"#utility.yul\":876:879   */\n      dup5\n        /* \"#utility.yul\":872:911   */\n      add\n        /* \"#utility.yul\":865:911   */\n      swap2\n      pop\n        /* \"#utility.yul\":632:917   */\n      pop\n        /* \"#utility.yul\":540:917   */\n      swap3\n      swap2\n      pop\n      pop\n      jump\t// out\n        /* \"#utility.yul\":923:1236   */\n    tag_16:\n        /* \"#utility.yul\":1036:1040   */\n      0x00\n        /* \"#utility.yul\":1074:1076   */\n      0x20\n        /* \"#utility.yul\":1063:1072   */\n      dup3\n        /* \"#utility.yul\":1059:1077   */\n      add\n        /* \"#utility.yul\":1051:1077   */\n      swap1\n      pop\n        /* \"#utility.yul\":1123:1132   */\n      dup2\n        /* \"#utility.yul\":1117:1121   */\n      dup2\n        /* \"#utility.yul\":1113:1133   */\n      sub\n        /* \"#utility.yul\":1109:1110   */\n      0x00\n        /* \"#utility.yul\":1098:1107   */\n      dup4\n        /* \"#utility.yul\":1094:1111   */\n      add\n        /* \"#utility.yul\":1087:1134   */\n      mstore\n        /* \"#utility.yul\":1151:1229   */\n      tag_135\n        /* \"#utility.yul\":1224:1228   */\n      dup2\n        /* \"#utility.yul\":1215:1221   */\n      dup5\n        /* \"#utility.yul\":1151:1229   */\n      tag_96\n      jump\t// in\n    tag_135:\n        /* \"#utility.yul\":1143:1229   */\n      swap1\n      pop\n        /* \"#utility.yul\":923:1236   */\n      swap3\n      swap2\n      pop\n      pop\n      jump\t// out\n        /* \"#utility.yul\":1323:1440   */\n    tag_98:\n        /* \"#utility.yul\":1432:1433   */\n      0x00\n        /* \"#utility.yul\":1429:1430   */\n      0x00\n        /* \"#utility.yul\":1422:1434   */\n      revert\n        /* \"#utility.yul\":1569:1695   */\n    tag_100:\n        /* \"#utility.yul\":1606:1613   */\n      0x00\n        /* \"#utility.yul\":1646:1688   */\n      0xffffffffffffffffffffffffffffffffffffffff\n        /* \"#utility.yul\":1639:1644   */\n      dup3\n        /* \"#utility.yul\":1635:1689   */\n      and\n        /* \"#utility.yul\":1624:1689   */\n      swap1\n      pop\n        /* \"#utility.yul\":1569:1695   */\n      swap2\n      swap1\n      pop\n      jump\t// out\n        /* \"#utility.yul\":1701:1797   */\n    tag_101:\n        /* \"#utility.yul\":1738:1745   */\n      0x00\n        /* \"#utility.yul\":1767:1791   */\n      tag_141\n        /* \"#utility.yul\":1785:1790   */\n      dup3\n        /* \"#utility.yul\":1767:1791   */\n      tag_100\n      jump\t// in\n    tag_141:\n        /* \"#utility.yul\":1756:1791   */\n      swap1\n      pop\n        /* \"#utility.yul\":1701:1797   */\n      swap2\n      swap1\n      pop\n      jump\t// out\n        /* \"#utility.yul\":1803:1925   */\n    tag_102:\n        /* \"#utility.yul\":1876:1900   */\n      tag_143\n        /* \"#utility.yul\":1894:1899   */\n      dup2\n        /* \"#utility.yul\":1876:1900   */\n      tag_101\n      jump\t// in\n    tag_143:\n        /* \"#utility.yul\":1869:1874   */\n      dup2\n        /* \"#utility.yul\":1866:1901   */\n      eq\n        /* \"#utility.yul\":1856:1919   */\n      tag_144\n      jumpi\n        /* \"#utility.yul\":1915:1916   */\n      0x00\n        /* \"#utility.yul\":1912:1913   */\n      0x00\n        /* \"#utility.yul\":1905:1917   */\n      revert\n        /* \"#utility.yul\":1856:1919   */\n    tag_144:\n        /* \"#utility.yul\":1803:1925   */\n      pop\n      jump\t// out\n        /* \"#utility.yul\":1931:2070   */\n    tag_103:\n        /* \"#utility.yul\":1977:1982   */\n      0x00\n        /* \"#utility.yul\":2015:2021   */\n      dup2\n        /* \"#utility.yul\":2002:2022   */\n      calldataload\n        /* \"#utility.yul\":1993:2022   */\n      swap1\n      pop\n        /* \"#utility.yul\":2031:2064   */\n      tag_146\n        /* \"#utility.yul\":2058:2063   */\n      dup2\n        /* \"#utility.yul\":2031:2064   */\n      tag_102\n      jump\t// in\n    tag_146:\n        /* \"#utility.yul\":1931:2070   */\n      swap3\n      swap2\n      pop\n      pop\n      jump\t// out\n        /* \"#utility.yul\":2076:2153   */\n    tag_104:\n        /* \"#utility.yul\":2113:2120   */\n      0x00\n        /* \"#utility.yul\":2142:2147   */\n      dup2\n        /* \"#utility.yul\":2131:2147   */\n      swap1\n      pop\n        /* \"#utility.yul\":2076:2153   */\n      swap2\n      swap1\n      pop\n      jump\t// out\n        /* \"#utility.yul\":2159:2281   */\n    tag_105:\n        /* \"#utility.yul\":2232:2256   */\n      tag_149\n        /* \"#utility.yul\":2250:2255   */\n      dup2\n        /* \"#utility.yul\":2232:2256   */\n      tag_104\n      jump\t// in\n    tag_149:\n        /* \"#utility.yul\":2225:2230   */\n      dup2\n        /* \"#utility.yul\":2222:2257   */\n      eq\n        /* \"#utility.yul\":2212:2275   */\n      tag_150\n      jumpi\n        /* \"#utility.yul\":2271:2272   */\n      0x00\n        /* \"#utility.yul\":2268:2269   */\n      0x00\n        /* \"#utility.yul\":2261:2273   */\n      revert\n        /* \"#utility.yul\":2212:2275   */\n    tag_150:\n        /* \"#utility.yul\":2159:2281   */\n      pop\n      jump\t// out\n        /* \"#utility.yul\":2287:2426   */\n    tag_106:\n        /* \"#utility.yul\":2333:2338   */\n      0x00\n        /* \"#utility.yul\":2371:2377   */\n      dup2\n        /* \"#utility.yul\":2358:2378   */\n      calldataload\n        /* \"#utility.yul\":2349:2378   */\n      swap1\n      pop\n        /* \"#utility.yul\":2387:2420   */\n      tag_152\n        /* \"#utility.yul\":2414:2419   */\n      dup2\n        /* \"#utility.yul\":2387:2420   */\n      tag_105\n      jump\t// in\n    tag_152:\n        /* \"#utility.yul\":2287:2426   */\n      swap3\n      swap2\n      pop\n      pop\n      jump\t// out\n        /* \"#utility.yul\":2432:2906   */\n    tag_19:\n        /* \"#utility.yul\":2500:2506   */\n      0x00\n        /* \"#utility.yul\":2508:2514   */\n      0x00\n        /* \"#utility.yul\":2557:2559   */\n      0x40\n        /* \"#utility.yul\":2545:2554   */\n      dup4\n        /* \"#utility.yul\":2536:2543   */\n      dup6\n        /* \"#utility.yul\":2532:2555   */\n      sub\n        /* \"#utility.yul\":2528:2560   */\n      slt\n        /* \"#utility.yul\":2525:2644   */\n      iszero\n      tag_154\n      jumpi\n        /* \"#utility.yul\":2563:2642   */\n      tag_155\n      tag_98\n      jump\t// in\n    tag_155:\n        /* \"#utility.yul\":2525:2644   */\n    tag_154:\n        /* \"#utility.yul\":2683:2684   */\n      0x00\n        /* \"#utility.yul\":2708:2761   */\n      tag_156\n        /* \"#utility.yul\":2753:2760   */\n      dup6\n        /* \"#utility.yul\":2744:2750   */\n      dup3\n        /* \"#utility.yul\":2733:2742   */\n      dup7\n        /* \"#utility.yul\":2729:2751   */\n      add\n        /* \"#utility.yul\":2708:2761   */\n      tag_103\n      jump\t// in\n    tag_156:\n        /* \"#utility.yul\":2698:2761   */\n      swap3\n      pop\n        /* \"#utility.yul\":2654:2771   */\n      pop\n        /* \"#utility.yul\":2810:2812   */\n      0x20\n        /* \"#utility.yul\":2836:2889   */\n      tag_157\n        /* \"#utility.yul\":2881:2888   */\n      dup6\n        /* \"#utility.yul\":2872:2878   */\n      dup3\n        /* \"#utility.yul\":2861:2870   */\n      dup7\n        /* \"#utility.yul\":2857:2879   */\n      add\n        /* \"#utility.yul\":2836:2889   */\n      tag_106\n      jump\t// in\n    tag_157:\n        /* \"#utility.yul\":2826:2889   */\n      swap2\n      pop\n        /* \"#utility.yul\":2781:2899   */\n      pop\n        /* \"#utility.yul\":2432:2906   */\n      swap3\n      pop\n      swap3\n      swap1\n      pop\n      jump\t// out\n        /* \"#utility.yul\":2912:3002   */\n    tag_107:\n        /* \"#utility.yul\":2946:2953   */\n      0x00\n        /* \"#utility.yul\":2989:2994   */\n      dup2\n        /* \"#utility.yul\":2982:2995   */\n      iszero\n        /* \"#utility.yul\":2975:2996   */\n      iszero\n        /* \"#utility.yul\":2964:2996   */\n      swap1\n      pop\n        /* \"#utility.yul\":2912:3002   */\n      swap2\n      swap1\n      pop\n      jump\t// out\n        /* \"#utility.yul\":3008:3117   */\n    tag_108:\n        /* \"#utility.yul\":3089:3110   */\n      tag_160\n        /* \"#utility.yul\":3104:3109   */\n      dup2\n        /* \"#utility.yul\":3089:3110   */\n      tag_107\n      jump\t// in\n    tag_160:\n        /* \"#utility.yul\":3084:3087   */\n      dup3\n        /* \"#utility.yul\":3077:3111   */\n      mstore\n        /* \"#utility.yul\":3008:3117   */\n      pop\n      pop\n      jump\t// out\n        /* \"#utility.yul\":3123:3333   */\n    tag_22:\n        /* \"#utility.yul\":3210:3214   */\n      0x00\n        /* \"#utility.yul\":3248:3250   */\n      0x20\n        /* \"#utility.yul\":3237:3246   */\n      dup3\n        /* \"#utility.yul\":3233:3251   */\n      add\n        /* \"#utility.yul\":3225:3251   */\n      swap1\n      pop\n        /* \"#utility.yul\":3261:3326   */\n      tag_162\n        /* \"#utility.yul\":3323:3324   */\n      0x00\n        /* \"#utility.yul\":3312:3321   */\n      dup4\n        /* \"#utility.yul\":3308:3325   */\n      add\n        /* \"#utility.yul\":3299:3305   */\n      dup5\n        /* \"#utility.yul\":3261:3326   */\n      tag_108\n      jump\t// in\n    tag_162:\n        /* \"#utility.yul\":3123:3333   */\n      swap3\n      swap2\n      pop\n      pop\n      jump\t// out\n        /* \"#utility.yul\":3339:3457   */\n    tag_109:\n        /* \"#utility.yul\":3426:3450   */\n      tag_164\n        /* \"#utility.yul\":3444:3449   */\n      dup2\n        /* \"#utility.yul\":3426:3450   */\n      tag_104\n      jump\t// in\n    tag_164:\n        /* \"#utility.yul\":3421:3424   */\n      dup3\n        /* \"#utility.yul\":3414:3451   */\n      mstore\n        /* \"#utility.yul\":3339:3457   */\n      pop\n      pop\n      jump\t// out\n        /* \"#utility.yul\":3463:3685   */\n    tag_26:\n        /* \"#utility.yul\":3556:3560   */\n      0x00\n        /* \"#utility.yul\":3594:3596   */\n      0x20\n        /* \"#utility.yul\":3583:3592   */\n      dup3\n        /* \"#utility.yul\":3579:3597   */\n      add\n        /* \"#utility.yul\":3571:3597   */\n      swap1\n      pop\n        /* \"#utility.yul\":3607:3678   */\n      tag_166\n        /* \"#utility.yul\":3675:3676   */\n      0x00\n        /* \"#utility.yul\":3664:3673   */\n      dup4\n        /* \"#utility.yul\":3660:3677   */\n      add\n        /* \"#utility.yul\":3651:3657   */\n      dup5\n        /* \"#utility.yul\":3607:3678   */\n      tag_109\n      jump\t// in\n    tag_166:\n        /* \"#utility.yul\":3463:3685   */\n      swap3\n      swap2\n      pop\n      pop\n      jump\t// out\n        /* \"#utility.yul\":3691:4310   */\n    tag_29:\n        /* \"#utility.yul\":3768:3774   */\n      0x00\n        /* \"#utility.yul\":3776:3782   */\n      0x00\n        /* \"#utility.yul\":3784:3790   */\n      0x00\n        /* \"#utility.yul\":3833:3835   */\n      0x60\n        /* \"#utility.yul\":3821:3830   */\n      dup5\n        /* \"#utility.yul\":3812:3819   */\n      dup7\n        /* \"#utility.yul\":3808:3831   */\n      sub\n        /* \"#utility.yul\":3804:3836   */\n      slt\n        /* \"#utility.yul\":3801:3920   */\n      iszero\n      tag_168\n      jumpi\n        /* \"#utility.yul\":3839:3918   */\n      tag_169\n      tag_98\n      jump\t// in\n    tag_169:\n        /* \"#utility.yul\":3801:3920   */\n    tag_168:\n        /* \"#utility.yul\":3959:3960   */\n      0x00\n        /* \"#utility.yul\":3984:4037   */\n      tag_170\n        /* \"#utility.yul\":4029:4036   */\n      dup7\n        /* \"#utility.yul\":4020:4026   */\n      dup3\n        /* \"#utility.yul\":4009:4018   */\n      dup8\n        /* \"#utility.yul\":4005:4027   */\n      add\n        /* \"#utility.yul\":3984:4037   */\n      tag_103\n      jump\t// in\n    tag_170:\n        /* \"#utility.yul\":3974:4037   */\n      swap4\n      pop\n        /* \"#utility.yul\":3930:4047   */\n      pop\n        /* \"#utility.yul\":4086:4088   */\n      0x20\n        /* \"#utility.yul\":4112:4165   */\n      tag_171\n        /* \"#utility.yul\":4157:4164   */\n      dup7\n        /* \"#utility.yul\":4148:4154   */\n      dup3\n        /* \"#utility.yul\":4137:4146   */\n      dup8\n        /* \"#utility.yul\":4133:4155   */\n      add\n        /* \"#utility.yul\":4112:4165   */\n      tag_103\n      jump\t// in\n    tag_171:\n        /* \"#utility.yul\":4102:4165   */\n      swap3\n      pop\n        /* \"#utility.yul\":4057:4175   */\n      pop\n        /* \"#utility.yul\":4214:4216   */\n      0x40\n        /* \"#utility.yul\":4240:4293   */\n      tag_172\n        /* \"#utility.yul\":4285:4292   */\n      dup7\n        /* \"#utility.yul\":4276:4282   */\n      dup3\n        /* \"#utility.yul\":4265:4274   */\n      dup8\n        /* \"#utility.yul\":4261:4283   */\n      add\n        /* \"#utility.yul\":4240:4293   */\n      tag_106\n      jump\t// in\n    tag_172:\n        /* \"#utility.yul\":4230:4293   */\n      swap2\n      pop\n        /* \"#utility.yul\":4185:4303   */\n      pop\n        /* \"#utility.yul\":3691:4310   */\n      swap3\n      pop\n      swap3\n      pop\n      swap3\n      jump\t// out\n        /* \"#utility.yul\":4316:4402   */\n    tag_110:\n        /* \"#utility.yul\":4351:4358   */\n      0x00\n        /* \"#utility.yul\":4391:4395   */\n      0xff\n        /* \"#utility.yul\":4384:4389   */\n      dup3\n        /* \"#utility.yul\":4380:4396   */\n      and\n        /* \"#utility.yul\":4369:4396   */\n      swap1\n      pop\n        /* \"#utility.yul\":4316:4402   */\n      swap2\n      swap1\n      pop\n      jump\t// out\n        /* \"#utility.yul\":4408:4520   */\n    tag_111:\n        /* \"#utility.yul\":4491:4513   */\n      tag_175\n        /* \"#utility.yul\":4507:4512   */\n      dup2\n        /* \"#utility.yul\":4491:4513   */\n      tag_110\n      jump\t// in\n    tag_175:\n        /* \"#utility.yul\":4486:4489   */\n      dup3\n        /* \"#utility.yul\":4479:4514   */\n      mstore\n        /* \"#utility.yul\":4408:4520   */\n      pop\n      pop\n      jump\t// out\n        /* \"#utility.yul\":4526:4740   */\n    tag_35:\n        /* \"#utility.yul\":4615:4619   */\n      0x00\n        /* \"#utility.yul\":4653:4655   */\n      0x20\n        /* \"#utility.yul\":4642:4651   */\n      dup3\n        /* \"#utility.yul\":4638:4656   */\n      add\n        /* \"#utility.yul\":4630:4656   */\n      swap1\n      pop\n        /* \"#utility.yul\":4666:4733   */\n      tag_177\n        /* \"#utility.yul\":4730:4731   */\n      0x00\n        /* \"#utility.yul\":4719:4728   */\n      dup4\n        /* \"#utility.yul\":4715:4732   */\n      add\n        /* \"#utility.yul\":4706:4712   */\n      dup5\n        /* \"#utility.yul\":4666:4733   */\n      tag_111\n      jump\t// in\n    tag_177:\n        /* \"#utility.yul\":4526:4740   */\n      swap3\n      swap2\n      pop\n      pop\n      jump\t// out\n        /* \"#utility.yul\":4746:5075   */\n    tag_38:\n        /* \"#utility.yul\":4805:4811   */\n      0x00\n        /* \"#utility.yul\":4854:4856   */\n      0x20\n        /* \"#utility.yul\":4842:4851   */\n      dup3\n        /* \"#utility.yul\":4833:4840   */\n      dup5\n        /* \"#utility.yul\":4829:4852   */\n      sub\n        /* \"#utility.yul\":4825:4857   */\n      slt\n        /* \"#utility.yul\":4822:4941   */\n      iszero\n      tag_179\n      jumpi\n        /* \"#utility.yul\":4860:4939   */\n      tag_180\n      tag_98\n      jump\t// in\n    tag_180:\n        /* \"#utility.yul\":4822:4941   */\n    tag_179:\n        /* \"#utility.yul\":4980:4981   */\n      0x00\n        /* \"#utility.yul\":5005:5058   */\n      tag_181\n        /* \"#utility.yul\":5050:5057   */\n      dup5\n        /* \"#utility.yul\":5041:5047   */\n      dup3\n        /* \"#utility.yul\":5030:5039   */\n      dup6\n        /* \"#utility.yul\":5026:5048   */\n      add\n        /* \"#utility.yul\":5005:5058   */\n      tag_103\n      jump\t// in\n    tag_181:\n        /* \"#utility.yul\":4995:5058   */\n      swap2\n      pop\n        /* \"#utility.yul\":4951:5068   */\n      pop\n        /* \"#utility.yul\":4746:5075   */\n      swap3\n      swap2\n      pop\n      pop\n      jump\t// out\n        /* \"#utility.yul\":5081:5555   */\n    tag_46:\n        /* \"#utility.yul\":5149:5155   */\n      0x00\n        /* \"#utility.yul\":5157:5163   */\n      0x00\n        /* \"#utility.yul\":5206:5208   */\n      0x40\n        /* \"#utility.yul\":5194:5203   */\n      dup4\n        /* \"#utility.yul\":5185:5192   */\n      dup6\n        /* \"#utility.yul\":5181:5204   */\n      sub\n        /* \"#utility.yul\":5177:5209   */\n      slt\n        /* \"#utility.yul\":5174:5293   */\n      iszero\n      tag_183\n      jumpi\n        /* \"#utility.yul\":5212:5291   */\n      tag_184\n      tag_98\n      jump\t// in\n    tag_184:\n        /* \"#utility.yul\":5174:5293   */\n    tag_183:\n        /* \"#utility.yul\":5332:5333   */\n      0x00\n        /* \"#utility.yul\":5357:5410   */\n      tag_185\n        /* \"#utility.yul\":5402:5409   */\n      dup6\n        /* \"#utility.yul\":5393:5399   */\n      dup3\n        /* \"#utility.yul\":5382:5391   */\n      dup7\n        /* \"#utility.yul\":5378:5400   */\n      add\n        /* \"#utility.yul\":5357:5410   */\n      tag_103\n      jump\t// in\n    tag_185:\n        /* \"#utility.yul\":5347:5410   */\n      swap3\n      pop\n        /* \"#utility.yul\":5303:5420   */\n      pop\n        /* \"#utility.yul\":5459:5461   */\n      0x20\n        /* \"#utility.yul\":5485:5538   */\n      tag_186\n        /* \"#utility.yul\":5530:5537   */\n      dup6\n        /* \"#utility.yul\":5521:5527   */\n      dup3\n        /* \"#utility.yul\":5510:5519   */\n      dup7\n        /* \"#utility.yul\":5506:5528   */\n      add\n        /* \"#utility.yul\":5485:5538   */\n      tag_103\n      jump\t// in\n    tag_186:\n        /* \"#utility.yul\":5475:5538   */\n      swap2\n      pop\n        /* \"#utility.yul\":5430:5548   */\n      pop\n        /* \"#utility.yul\":5081:5555   */\n      swap3\n      pop\n      swap3\n      swap1\n      pop\n      jump\t// out\n        /* \"#utility.yul\":5561:5741   */\n    tag_112:\n        /* \"#utility.yul\":5609:5686   */\n      0x4e487b7100000000000000000000000000000000000000000000000000000000\n        /* \"#utility.yul\":5606:5607   */\n      0x00\n        /* \"#utility.yul\":5599:5687   */\n      mstore\n        /* \"#utility.yul\":5706:5710   */\n      0x22\n        /* \"#utility.yul\":5703:5704   */\n      0x04\n        /* \"#utility.yul\":5696:5711   */\n      mstore\n        /* \"#utility.yul\":5730:5734   */\n      0x24\n        /* \"#utility.yul\":5727:5728   */\n      0x00\n        /* \"#utility.yul\":5720:5735   */\n      revert\n        /* \"#utility.yul\":5747:6067   */\n    tag_54:\n        /* \"#utility.yul\":5791:5797   */\n      0x00\n        /* \"#utility.yul\":5828:5829   */\n      0x02\n        /* \"#utility.yul\":5822:5826   */\n      dup3\n        /* \"#utility.yul\":5818:5830   */\n      div\n        /* \"#utility.yul\":5808:5830   */\n      swap1\n      pop\n        /* \"#utility.yul\":5875:5876   */\n      0x01\n        /* \"#utility.yul\":5869:5873   */\n      dup3\n        /* \"#utility.yul\":5865:5877   */\n      and\n        /* \"#utility.yul\":5896:5914   */\n      dup1\n        /* \"#utility.yul\":5886:5967   */\n      tag_189\n      jumpi\n        /* \"#utility.yul\":5952:5956   */\n      0x7f\n        /* \"#utility.yul\":5944:5950   */\n      dup3\n        /* \"#utility.yul\":5940:5957   */\n      and\n        /* \"#utility.yul\":5930:5957   */\n      swap2\n      pop\n        /* \"#utility.yul\":5886:5967   */\n    tag_189:\n        /* \"#utility.yul\":6014:6016   */\n      0x20\n        /* \"#utility.yul\":6006:6012   */\n      dup3\n        /* \"#utility.yul\":6003:6017   */\n      lt\n        /* \"#utility.yul\":5983:6001   */\n      dup2\n        /* \"#utility.yul\":5980:6018   */\n      sub\n        /* \"#utility.yul\":5977:6061   */\n      tag_190\n      jumpi\n        /* \"#utility.yul\":6033:6051   */\n      tag_191\n      tag_112\n      jump\t// in\n    tag_191:\n        /* \"#utility.yul\":5977:6061   */\n    tag_190:\n        /* \"#utility.yul\":5798:6067   */\n      pop\n        /* \"#utility.yul\":5747:6067   */\n      swap2\n      swap1\n      pop\n      jump\t// out\n        /* \"#utility.yul\":6073:6238   */\n    tag_113:\n        /* \"#utility.yul\":6213:6230   */\n      0x696e76616c6964207370656e6465720000000000000000000000000000000000\n        /* \"#utility.yul\":6209:6210   */\n      0x00\n        /* \"#utility.yul\":6201:6207   */\n      dup3\n        /* \"#utility.yul\":6197:6211   */\n      add\n        /* \"#utility.yul\":6190:6231   */\n      mstore\n        /* \"#utility.yul\":6073:6238   */\n      pop\n      jump\t// out\n        /* \"#utility.yul\":6244:6610   */\n    tag_114:\n        /* \"#utility.yul\":6386:6389   */\n      0x00\n        /* \"#utility.yul\":6407:6474   */\n      tag_194\n        /* \"#utility.yul\":6471:6473   */\n      0x0f\n        /* \"#utility.yul\":6466:6469   */\n      dup4\n        /* \"#utility.yul\":6407:6474   */\n      tag_93\n      jump\t// in\n    tag_194:\n        /* \"#utility.yul\":6400:6474   */\n      swap2\n      pop\n        /* \"#utility.yul\":6483:6576   */\n      tag_195\n        /* \"#utility.yul\":6572:6575   */\n      dup3\n        /* \"#utility.yul\":6483:6576   */\n      tag_113\n      jump\t// in\n    tag_195:\n        /* \"#utility.yul\":6601:6603   */\n      0x20\n        /* \"#utility.yul\":6596:6599   */\n      dup3\n        /* \"#utility.yul\":6592:6604   */\n      add\n        /* \"#utility.yul\":6585:6604   */\n      swap1\n      pop\n        /* \"#utility.yul\":6244:6610   */\n      swap2\n      swap1\n      pop\n      jump\t// out\n        /* \"#utility.yul\":6616:7035   */\n    tag_62:\n        /* \"#utility.yul\":6782:6786   */\n      0x00\n        /* \"#utility.yul\":6820:6822   */\n      0x20\n        /* \"#utility.yul\":6809:6818   */\n      dup3\n        /* \"#utility.yul\":6805:6823   */\n      add\n        /* \"#utility.yul\":6797:6823   */\n      swap1\n      pop\n        /* \"#utility.yul\":6869:6878   */\n      dup2\n        /* \"#utility.yul\":6863:6867   */\n      dup2\n        /* \"#utility.yul\":6859:6879   */\n      sub\n        /* \"#utility.yul\":6855:6856   */\n      0x00\n        /* \"#utility.yul\":6844:6853   */\n      dup4\n        /* \"#utility.yul\":6840:6857   */\n      add\n        /* \"#utility.yul\":6833:6880   */\n      mstore\n        /* \"#utility.yul\":6897:7028   */\n      tag_197\n        /* \"#utility.yul\":7023:7027   */\n      dup2\n        /* \"#utility.yul\":6897:7028   */\n      tag_114\n      jump\t// in\n    tag_197:\n        /* \"#utility.yul\":6889:7028   */\n      swap1\n      pop\n        /* \"#utility.yul\":6616:7035   */\n      swap2\n      swap1\n      pop\n      jump\t// out\n        /* \"#utility.yul\":7041:7211   */\n    tag_115:\n        /* \"#utility.yul\":7181:7203   */\n      0x696e73756666696369656e742062616c616e6365000000000000000000000000\n        /* \"#utility.yul\":7177:7178   */\n      0x00\n        /* \"#utility.yul\":7169:7175   */\n      dup3\n        /* \"#utility.yul\":7165:7179   */\n      add\n        /* \"#utility.yul\":7158:7204   */\n      mstore\n        /* \"#utility.yul\":7041:7211   */\n      pop\n      jump\t// out\n        /* \"#utility.yul\":7217:7583   */\n    tag_116:\n        /* \"#utility.yul\":7359:7362   */\n      0x00\n        /* \"#utility.yul\":7380:7447   */\n      tag_200\n        /* \"#utility.yul\":7444:7446   */\n      0x14\n        /* \"#utility.yul\":7439:7442   */\n      dup4\n        /* \"#utility.yul\":7380:7447   */\n      tag_93\n      jump\t// in\n    tag_200:\n        /* \"#utility.yul\":7373:7447   */\n      swap2\n      pop\n        /* \"#utility.yul\":7456:7549   */\n      tag_201\n        /* \"#utility.yul\":7545:7548   */\n      dup3\n        /* \"#utility.yul\":7456:7549   */\n      tag_115\n      jump\t// in\n    tag_201:\n        /* \"#utility.yul\":7574:7576   */\n      0x20\n        /* \"#utility.yul\":7569:7572   */\n      dup3\n        /* \"#utility.yul\":7565:7577   */\n      add\n        /* \"#utility.yul\":7558:7577   */\n      swap1\n      pop\n        /* \"#utility.yul\":7217:7583   */\n      swap2\n      swap1\n      pop\n      jump\t// out\n        /* \"#utility.yul\":7589:8008   */\n    tag_67:\n        /* \"#utility.yul\":7755:7759   */\n      0x00\n        /* \"#utility.yul\":7793:7795   */\n      0x20\n        /* \"#utility.yul\":7782:7791   */\n      dup3\n        /* \"#utility.yul\":7778:7796   */\n      add\n        /* \"#utility.yul\":7770:7796   */\n      swap1\n      pop\n        /* \"#utility.yul\":7842:7851   */\n      dup2\n        /* \"#utility.yul\":7836:7840   */\n      dup2\n        /* \"#utility.yul\":7832:7852   */\n      sub\n        /* \"#utility.yul\":7828:7829   */\n      0x00\n        /* \"#utility.yul\":7817:7826   */\n      dup4\n        /* \"#utility.yul\":7813:7830   */\n      add\n        /* \"#utility.yul\":7806:7853   */\n      mstore\n        /* \"#utility.yul\":7870:8001   */\n      tag_203\n        /* \"#utility.yul\":7996:8000   */\n      dup2\n        /* \"#utility.yul\":7870:8001   */\n      tag_116\n      jump\t// in\n    tag_203:\n        /* \"#utility.yul\":7862:8001   */\n      swap1\n      pop\n        /* \"#utility.yul\":7589:8008   */\n      swap2\n      swap1\n      pop\n      jump\t// out\n        /* \"#utility.yul\":8014:8182   */\n    tag_117:\n        /* \"#utility.yul\":8154:8174   */\n      0x616c6c6f77616e63652065786365656465640000000000000000000000000000\n        /* \"#utility.yul\":8150:8151   */\n      0x00\n        /* \"#utility.yul\":8142:8148   */\n      dup3\n        /* \"#utility.yul\":8138:8152   */\n      add\n        /* \"#utility.yul\":8131:8175   */\n      mstore\n        /* \"#utility.yul\":8014:8182   */\n      pop\n      jump\t// out\n        /* \"#utility.yul\":8188:8554   */\n    tag_118:\n        /* \"#utility.yul\":8330:8333   */\n      0x00\n        /* \"#utility.yul\":8351:8418   */\n      tag_206\n        /* \"#utility.yul\":8415:8417   */\n      0x12\n        /* \"#utility.yul\":8410:8413   */\n      dup4\n        /* \"#utility.yul\":8351:8418   */\n      tag_93\n      jump\t// in\n    tag_206:\n        /* \"#utility.yul\":8344:8418   */\n      swap2\n      pop\n        /* \"#utility.yul\":8427:8520   */\n      tag_207\n        /* \"#utility.yul\":8516:8519   */\n      dup3\n        /* \"#utility.yul\":8427:8520   */\n      tag_117\n      jump\t// in\n    tag_207:\n        /* \"#utility.yul\":8545:8547   */\n      0x20\n        /* \"#utility.yul\":8540:8543   */\n      dup3\n        /* \"#utility.yul\":8536:8548   */\n      add\n        /* \"#utility.yul\":8529:8548   */\n      swap1\n      pop\n        /* \"#utility.yul\":8188:8554   */\n      swap2\n      swap1\n      pop\n      jump\t// out\n        /* \"#utility.yul\":8560:8979   */\n    tag_70:\n        /* \"#utility.yul\":8726:8730   */\n      0x00\n        /* \"#utility.yul\":8764:8766   */\n      0x20\n        /* \"#utility.yul\":8753:8762   */\n      dup3\n        /* \"#utility.yul\":8749:8767   */\n      add\n        /* \"#utility.yul\":8741:8767   */\n      swap1\n      pop\n        /* \"#utility.yul\":8813:8822   */\n      dup2\n        /* \"#utility.yul\":8807:8811   */\n      dup2\n        /* \"#utility.yul\":8803:8823   */\n      sub\n        /* \"#utility.yul\":8799:8800   */\n      0x00\n        /* \"#utility.yul\":8788:8797   */\n      dup4\n        /* \"#utility.yul\":8784:8801   */\n      add\n        /* \"#utility.yul\":8777:8824   */\n      mstore\n        /* \"#utility.yul\":8841:8972   */\n      tag_209\n        /* \"#utility.yul\":8967:8971   */\n      dup2\n        /* \"#utility.yul\":8841:8972   */\n      tag_118\n      jump\t// in\n    tag_209:\n        /* \"#utility.yul\":8833:8972   */\n      swap1\n      pop\n        /* \"#utility.yul\":8560:8979   */\n      swap2\n      swap1\n      pop\n      jump\t// out\n        /* \"#utility.yul\":8985:9165   */\n    tag_119:\n        /* \"#utility.yul\":9033:9110   */\n      0x4e487b7100000000000000000000000000000000000000000000000000000000\n        /* \"#utility.yul\":9030:9031   */\n      0x00\n        /* \"#utility.yul\":9023:9111   */\n      mstore\n        /* \"#utility.yul\":9130:9134   */\n      0x11\n        /* \"#utility.yul\":9127:9128   */\n      0x04\n        /* \"#utility.yul\":9120:9135   */\n      mstore\n        /* \"#utility.yul\":9154:9158   */\n      0x24\n        /* \"#utility.yul\":9151:9152   */\n      0x00\n        /* \"#utility.yul\":9144:9159   */\n      revert\n        /* \"#utility.yul\":9171:9365   */\n    tag_72:\n        /* \"#utility.yul\":9211:9215   */\n      0x00\n        /* \"#utility.yul\":9231:9251   */\n      tag_212\n        /* \"#utility.yul\":9249:9250   */\n      dup3\n        /* \"#utility.yul\":9231:9251   */\n      tag_104\n      jump\t// in\n    tag_212:\n        /* \"#utility.yul\":9226:9251   */\n      swap2\n      pop\n        /* \"#utility.yul\":9265:9285   */\n      tag_213\n        /* \"#utility.yul\":9283:9284   */\n      dup4\n        /* \"#utility.yul\":9265:9285   */\n      tag_104\n      jump\t// in\n    tag_213:\n        /* \"#utility.yul\":9260:9285   */\n      swap3\n      pop\n        /* \"#utility.yul\":9309:9310   */\n      dup3\n        /* \"#utility.yul\":9306:9307   */\n      dup3\n        /* \"#utility.yul\":9302:9311   */\n      sub\n        /* \"#utility.yul\":9294:9311   */\n      swap1\n      pop\n        /* \"#utility.yul\":9333:9334   */\n      dup2\n        /* \"#utility.yul\":9327:9331   */\n      dup2\n        /* \"#utility.yul\":9324:9335   */\n      gt\n        /* \"#utility.yul\":9321:9358   */\n      iszero\n      tag_214\n      jumpi\n        /* \"#utility.yul\":9338:9356   */\n      tag_215\n      tag_119\n      jump\t// in\n    tag_215:\n        /* \"#utility.yul\":9321:9358   */\n    tag_214:\n        /* \"#utility.yul\":9171:9365   */\n      swap3\n      swap2\n      pop\n      pop\n      jump\t// out\n        /* \"#utility.yul\":9371:9562   */\n    tag_75:\n        /* \"#utility.yul\":9411:9414   */\n      0x00\n        /* \"#utility.yul\":9430:9450   */\n      tag_217\n        /* \"#utility.yul\":9448:9449   */\n      dup3\n        /* \"#utility.yul\":9430:9450   */\n      tag_104\n      jump\t// in\n    tag_217:\n        /* \"#utility.yul\":9425:9450   */\n      swap2\n      pop\n        /* \"#utility.yul\":9464:9484   */\n      tag_218\n        /* \"#utility.yul\":9482:9483   */\n      dup4\n        /* \"#utility.yul\":9464:9484   */\n      tag_104\n      jump\t// in\n    tag_218:\n        /* \"#utility.yul\":9459:9484   */\n      swap3\n      pop\n        /* \"#utility.yul\":9507:9508   */\n      dup3\n        /* \"#utility.yul\":9504:9505   */\n      dup3\n        /* \"#utility.yul\":9500:9509   */\n      add\n        /* \"#utility.yul\":9493:9509   */\n      swap1\n      pop\n        /* \"#utility.yul\":9528:9531   */\n      dup1\n        /* \"#utility.yul\":9525:9526   */\n      dup3\n        /* \"#utility.yul\":9522:9532   */\n      gt\n        /* \"#utility.yul\":9519:9555   */\n      iszero\n      tag_219\n      jumpi\n        /* \"#utility.yul\":9535:9553   */\n      tag_220\n      tag_119\n      jump\t// in\n    tag_220:\n        /* \"#utility.yul\":9519:9555   */\n    tag_219:\n        /* \"#utility.yul\":9371:9562   */\n      swap3\n      swap2\n      pop\n      pop\n      jump\t// out\n        /* \"#utility.yul\":9568:9733   */\n    tag_120:\n        /* \"#utility.yul\":9708:9725   */\n      0x696e76616c696420616464726573730000000000000000000000000000000000\n        /* \"#utility.yul\":9704:9705   */\n      0x00\n        /* \"#utility.yul\":9696:9702   */\n      dup3\n        /* \"#utility.yul\":9692:9706   */\n      add\n        /* \"#utility.yul\":9685:9726   */\n      mstore\n        /* \"#utility.yul\":9568:9733   */\n      pop\n      jump\t// out\n        /* \"#utility.yul\":9739:10105   */\n    tag_121:\n        /* \"#utility.yul\":9881:9884   */\n      0x00\n        /* \"#utility.yul\":9902:9969   */\n      tag_223\n        /* \"#utility.yul\":9966:9968   */\n      0x0f\n        /* \"#utility.yul\":9961:9964   */\n      dup4\n        /* \"#utility.yul\":9902:9969   */\n      tag_93\n      jump\t// in\n    tag_223:\n        /* \"#utility.yul\":9895:9969   */\n      swap2\n      pop\n        /* \"#utility.yul\":9978:10071   */\n      tag_224\n        /* \"#utility.yul\":10067:10070   */\n      dup3\n        /* \"#utility.yul\":9978:10071   */\n      tag_120\n      jump\t// in\n    tag_224:\n        /* \"#utility.yul\":10096:10098   */\n      0x20\n        /* \"#utility.yul\":10091:10094   */\n      dup3\n        /* \"#utility.yul\":10087:10099   */\n      add\n        /* \"#utility.yul\":10080:10099   */\n      swap1\n      pop\n        /* \"#utility.yul\":9739:10105   */\n      swap2\n      swap1\n      pop\n      jump\t// out\n        /* \"#utility.yul\":10111:10530   */\n    tag_85:\n        /* \"#utility.yul\":10277:10281   */\n      0x00\n        /* \"#utility.yul\":10315:10317   */\n      0x20\n        /* \"#utility.yul\":10304:10313   */\n      dup3\n        /* \"#utility.yul\":10300:10318   */\n      add\n        /* \"#utility.yul\":10292:10318   */\n      swap1\n      pop\n        /* \"#utility.yul\":10364:10373   */\n      dup2\n        /* \"#utility.yul\":10358:10362   */\n      dup2\n        /* \"#utility.yul\":10354:10374   */\n      sub\n        /* \"#utility.yul\":10350:10351   */\n      0x00\n        /* \"#utility.yul\":10339:10348   */\n      dup4\n        /* \"#utility.yul\":10335:10352   */\n      add\n        /* \"#utility.yul\":10328:10375   */\n      mstore\n        /* \"#utility.yul\":10392:10523   */\n      tag_226\n        /* \"#utility.yul\":10518:10522   */\n      dup2\n        /* \"#utility.yul\":10392:10523   */\n      tag_121\n      jump\t// in\n    tag_226:\n        /* \"#utility.yul\":10384:10523   */\n      swap1\n      pop\n        /* \"#utility.yul\":10111:10530   */\n      swap2\n      swap1\n      pop\n      jump\t// out\n        /* \"#utility.yul\":10536:10705   */\n    tag_122:\n        /* \"#utility.yul\":10676:10697   */\n      0x696e73756666656369656e7420616d6f756e7400000000000000000000000000\n        /* \"#utility.yul\":10672:10673   */\n      0x00\n        /* \"#utility.yul\":10664:10670   */\n      dup3\n        /* \"#utility.yul\":10660:10674   */\n      add\n        /* \"#utility.yul\":10653:10698   */\n      mstore\n        /* \"#utility.yul\":10536:10705   */\n      pop\n      jump\t// out\n        /* \"#utility.yul\":10711:11077   */\n    tag_123:\n        /* \"#utility.yul\":10853:10856   */\n      0x00\n        /* \"#utility.yul\":10874:10941   */\n      tag_229\n        /* \"#utility.yul\":10938:10940   */\n      0x13\n        /* \"#utility.yul\":10933:10936   */\n      dup4\n        /* \"#utility.yul\":10874:10941   */\n      tag_93\n      jump\t// in\n    tag_229:\n        /* \"#utility.yul\":10867:10941   */\n      swap2\n      pop\n        /* \"#utility.yul\":10950:11043   */\n      tag_230\n        /* \"#utility.yul\":11039:11042   */\n      dup3\n        /* \"#utility.yul\":10950:11043   */\n      tag_122\n      jump\t// in\n    tag_230:\n        /* \"#utility.yul\":11068:11070   */\n      0x20\n        /* \"#utility.yul\":11063:11066   */\n      dup3\n        /* \"#utility.yul\":11059:11071   */\n      add\n        /* \"#utility.yul\":11052:11071   */\n      swap1\n      pop\n        /* \"#utility.yul\":10711:11077   */\n      swap2\n      swap1\n      pop\n      jump\t// out\n        /* \"#utility.yul\":11083:11502   */\n    tag_88:\n        /* \"#utility.yul\":11249:11253   */\n      0x00\n        /* \"#utility.yul\":11287:11289   */\n      0x20\n        /* \"#utility.yul\":11276:11285   */\n      dup3\n        /* \"#utility.yul\":11272:11290   */\n      add\n        /* \"#utility.yul\":11264:11290   */\n      swap1\n      pop\n        /* \"#utility.yul\":11336:11345   */\n      dup2\n        /* \"#utility.yul\":11330:11334   */\n      dup2\n        /* \"#utility.yul\":11326:11346   */\n      sub\n        /* \"#utility.yul\":11322:11323   */\n      0x00\n        /* \"#utility.yul\":11311:11320   */\n      dup4\n        /* \"#utility.yul\":11307:11324   */\n      add\n        /* \"#utility.yul\":11300:11347   */\n      mstore\n        /* \"#utility.yul\":11364:11495   */\n      tag_232\n        /* \"#utility.yul\":11490:11494   */\n      dup2\n        /* \"#utility.yul\":11364:11495   */\n      tag_123\n      jump\t// in\n    tag_232:\n        /* \"#utility.yul\":11356:11495   */\n      swap1\n      pop\n        /* \"#utility.yul\":11083:11502   */\n      swap2\n      swap1\n      pop\n      jump\t// out\n\n    auxdata: 0xa2646970667358221220e6cc8be5806911b1c2399f1dd1898695be3ac9c467cfec2b6ec866192e57bf9b64736f6c634300081e0033\n}\n",
				"bytecode": {
					"linkReferences": {},
					"object": "608060405234801561000f575f5ffd5b5060405161176f38038061176f8339818101604052810190610031919061037b565b835f908161003f919061061e565b50826001908161004f919061061e565b508160025f6101000a81548160ff021916908360ff16021790555061007a338261008360201b60201c565b505050506107ed565b5f73ffffffffffffffffffffffffffffffffffffffff168273ffffffffffffffffffffffffffffffffffffffff16036100f1576040517f08c379a00000000000000000000000000000000000000000000000000000000081526004016100e890610747565b60405180910390fd5b8060035f8282546101029190610792565b925050819055508060045f8473ffffffffffffffffffffffffffffffffffffffff1673ffffffffffffffffffffffffffffffffffffffff1681526020019081526020015f205f8282546101559190610792565b925050819055508173ffffffffffffffffffffffffffffffffffffffff165f73ffffffffffffffffffffffffffffffffffffffff167fddf252ad1be2c89b69c2b068fc378daa952ba7f163c4a11628f55a4df523b3ef836040516101b991906107d4565b60405180910390a35050565b5f604051905090565b5f5ffd5b5f5ffd5b5f5ffd5b5f5ffd5b5f601f19601f8301169050919050565b7f4e487b71000000000000000000000000000000000000000000000000000000005f52604160045260245ffd5b610224826101de565b810181811067ffffffffffffffff82111715610243576102426101ee565b5b80604052505050565b5f6102556101c5565b9050610261828261021b565b919050565b5f67ffffffffffffffff8211156102805761027f6101ee565b5b610289826101de565b9050602081019050919050565b8281835e5f83830152505050565b5f6102b66102b184610266565b61024c565b9050828152602081018484840111156102d2576102d16101da565b5b6102dd848285610296565b509392505050565b5f82601f8301126102f9576102f86101d6565b5b81516103098482602086016102a4565b91505092915050565b5f60ff82169050919050565b61032781610312565b8114610331575f5ffd5b50565b5f815190506103428161031e565b92915050565b5f819050919050565b61035a81610348565b8114610364575f5ffd5b50565b5f8151905061037581610351565b92915050565b5f5f5f5f60808587031215610393576103926101ce565b5b5f85015167ffffffffffffffff8111156103b0576103af6101d2565b5b6103bc878288016102e5565b945050602085015167ffffffffffffffff8111156103dd576103dc6101d2565b5b6103e9878288016102e5565b93505060406103fa87828801610334565b925050606061040b87828801610367565b91505092959194509250565b5f81519050919050565b7f4e487b71000000000000000000000000000000000000000000000000000000005f52602260045260245ffd5b5f600282049050600182168061046557607f821691505b60208210810361047857610477610421565b5b50919050565b5f819050815f5260205f209050919050565b5f6020601f8301049050919050565b5f82821b905092915050565b5f600883026104da7fffffffffffffffffffffffffffffffffffffffffffffffffffffffffffffffff8261049f565b6104e4868361049f565b95508019841693508086168417925050509392505050565b5f819050919050565b5f61051f61051a61051584610348565b6104fc565b610348565b9050919050565b5f819050919050565b61053883610505565b61054c61054482610526565b8484546104ab565b825550505050565b5f5f905090565b610563610554565b61056e81848461052f565b505050565b5b81811015610591576105865f8261055b565b600181019050610574565b5050565b601f8211156105d6576105a78161047e565b6105b084610490565b810160208510156105bf578190505b6105d36105cb85610490565b830182610573565b50505b505050565b5f82821c905092915050565b5f6105f65f19846008026105db565b1980831691505092915050565b5f61060e83836105e7565b9150826002028217905092915050565b61062782610417565b67ffffffffffffffff8111156106405761063f6101ee565b5b61064a825461044e565b610655828285610595565b5f60209050601f831160018114610686575f8415610674578287015190505b61067e8582610603565b8655506106e5565b601f1984166106948661047e565b5f5b828110156106bb57848901518255600182019150602085019450602081019050610696565b868310156106d857848901516106d4601f8916826105e7565b8355505b6001600288020188555050505b505050505050565b5f82825260208201905092915050565b7f6d696e7420746f207a65726f20616464726573730000000000000000000000005f82015250565b5f6107316014836106ed565b915061073c826106fd565b602082019050919050565b5f6020820190508181035f83015261075e81610725565b9050919050565b7f4e487b71000000000000000000000000000000000000000000000000000000005f52601160045260245ffd5b5f61079c82610348565b91506107a783610348565b92508282019050808211156107bf576107be610765565b5b92915050565b6107ce81610348565b82525050565b5f6020820190506107e75f8301846107c5565b92915050565b610f75806107fa5f395ff3fe608060405234801561000f575f5ffd5b5060043610610091575f3560e01c8063313ce56711610064578063313ce5671461013157806370a082311461014f57806395d89b411461017f578063a20bc7fe1461019d578063a9059cbb146101cd57610091565b806306fdde0314610095578063095ea7b3146100b357806318160ddd146100e357806323b872dd14610101575b5f5ffd5b61009d6101fd565b6040516100aa9190610a10565b60405180910390f35b6100cd60048036038101906100c89190610ac1565b610288565b6040516100da9190610b19565b60405180910390f35b6100eb6103e3565b6040516100f89190610b41565b60405180910390f35b61011b60048036038101906101169190610b5a565b6103e9565b6040516101289190610b19565b60405180910390f35b6101396106c9565b6040516101469190610bc5565b60405180910390f35b61016960048036038101906101649190610bde565b6106db565b6040516101769190610b41565b60405180910390f35b6101876106f0565b6040516101949190610a10565b60405180910390f35b6101b760048036038101906101b29190610c09565b61077c565b6040516101c49190610b41565b60405180910390f35b6101e760048036038101906101e29190610ac1565b61079c565b6040516101f49190610b19565b60405180910390f35b5f805461020990610c74565b80601f016020809104026020016040519081016040528092919081815260200182805461023590610c74565b80156102805780601f1061025757610100808354040283529160200191610280565b820191905f5260205f20905b81548152906001019060200180831161026357829003601f168201915b505050505081565b5f5f73ffffffffffffffffffffffffffffffffffffffff168373ffffffffffffffffffffffffffffffffffffffff16036102f7576040517f08c379a00000000000000000000000000000000000000000000000000000000081526004016102ee90610cee565b60405180910390fd5b8160055f3373ffffffffffffffffffffffffffffffffffffffff1673ffffffffffffffffffffffffffffffffffffffff1681526020019081526020015f205f8573ffffffffffffffffffffffffffffffffffffffff1673ffffffffffffffffffffffffffffffffffffffff1681526020019081526020015f20819055508273ffffffffffffffffffffffffffffffffffffffff163373ffffffffffffffffffffffffffffffffffffffff167f8c5be1e5ebec7d5bd14f71427d1e84f3dd0314c0f7b2291e5b200ac8c7c3b925846040516103d19190610b41565b60405180910390a36001905092915050565b60035481565b5f8160045f8673ffffffffffffffffffffffffffffffffffffffff1673ffffffffffffffffffffffffffffffffffffffff1681526020019081526020015f2054101561046a576040517f08c379a000000000000000000000000000000000000000000000000000000000815260040161046190610d56565b60405180910390fd5b8160055f8673ffffffffffffffffffffffffffffffffffffffff1673ffffffffffffffffffffffffffffffffffffffff1681526020019081526020015f205f3373ffffffffffffffffffffffffffffffffffffffff1673ffffffffffffffffffffffffffffffffffffffff1681526020019081526020015f20541015610525576040517f08c379a000000000000000000000000000000000000000000000000000000000815260040161051c90610dbe565b60405180910390fd5b8160055f8673ffffffffffffffffffffffffffffffffffffffff1673ffffffffffffffffffffffffffffffffffffffff1681526020019081526020015f205f3373ffffffffffffffffffffffffffffffffffffffff1673ffffffffffffffffffffffffffffffffffffffff1681526020019081526020015f205f8282546105ac9190610e09565b925050819055508160045f8673ffffffffffffffffffffffffffffffffffffffff1673ffffffffffffffffffffffffffffffffffffffff1681526020019081526020015f205f8282546105ff9190610e09565b925050819055508160045f8573ffffffffffffffffffffffffffffffffffffffff1673ffffffffffffffffffffffffffffffffffffffff1681526020019081526020015f205f8282546106529190610e3c565b925050819055508273ffffffffffffffffffffffffffffffffffffffff168473ffffffffffffffffffffffffffffffffffffffff167fddf252ad1be2c89b69c2b068fc378daa952ba7f163c4a11628f55a4df523b3ef846040516106b69190610b41565b60405180910390a3600190509392505050565b60025f9054906101000a900460ff1681565b6004602052805f5260405f205f915090505481565b600180546106fd90610c74565b80601f016020809104026020016040519081016040528092919081815260200182805461072990610c74565b80156107745780601f1061074b57610100808354040283529160200191610774565b820191905f5260205f20905b81548152906001019060200180831161075757829003601f168201915b505050505081565b6005602052815f5260405f20602052805f5260405f205f91509150505481565b5f5f73ffffffffffffffffffffffffffffffffffffffff168373ffffffffffffffffffffffffffffffffffffffff160361080b576040517f08c379a000000000000000000000000000000000000000000000000000000000815260040161080290610eb9565b60405180910390fd5b8160045f3373ffffffffffffffffffffffffffffffffffffffff1673ffffffffffffffffffffffffffffffffffffffff1681526020019081526020015f2054101561088b576040517f08c379a000000000000000000000000000000000000000000000000000000000815260040161088290610f21565b60405180910390fd5b8160045f3373ffffffffffffffffffffffffffffffffffffffff1673ffffffffffffffffffffffffffffffffffffffff1681526020019081526020015f205f8282546108d79190610e09565b925050819055508160045f8573ffffffffffffffffffffffffffffffffffffffff1673ffffffffffffffffffffffffffffffffffffffff1681526020019081526020015f205f82825461092a9190610e3c565b925050819055508273ffffffffffffffffffffffffffffffffffffffff163373ffffffffffffffffffffffffffffffffffffffff167fddf252ad1be2c89b69c2b068fc378daa952ba7f163c4a11628f55a4df523b3ef8460405161098e9190610b41565b60405180910390a36001905092915050565b5f81519050919050565b5f82825260208201905092915050565b8281835e5f83830152505050565b5f601f19601f8301169050919050565b5f6109e2826109a0565b6109ec81856109aa565b93506109fc8185602086016109ba565b610a05816109c8565b840191505092915050565b5f6020820190508181035f830152610a2881846109d8565b905092915050565b5f5ffd5b5f73ffffffffffffffffffffffffffffffffffffffff82169050919050565b5f610a5d82610a34565b9050919050565b610a6d81610a53565b8114610a77575f5ffd5b50565b5f81359050610a8881610a64565b92915050565b5f819050919050565b610aa081610a8e565b8114610aaa575f5ffd5b50565b5f81359050610abb81610a97565b92915050565b5f5f60408385031215610ad757610ad6610a30565b5b5f610ae485828601610a7a565b9250506020610af585828601610aad565b9150509250929050565b5f8115159050919050565b610b1381610aff565b82525050565b5f602082019050610b2c5f830184610b0a565b92915050565b610b3b81610a8e565b82525050565b5f602082019050610b545f830184610b32565b92915050565b5f5f5f60608486031215610b7157610b70610a30565b5b5f610b7e86828701610a7a565b9350506020610b8f86828701610a7a565b9250506040610ba086828701610aad565b9150509250925092565b5f60ff82169050919050565b610bbf81610baa565b82525050565b5f602082019050610bd85f830184610bb6565b92915050565b5f60208284031215610bf357610bf2610a30565b5b5f610c0084828501610a7a565b91505092915050565b5f5f60408385031215610c1f57610c1e610a30565b5b5f610c2c85828601610a7a565b9250506020610c3d85828601610a7a565b9150509250929050565b7f4e487b71000000000000000000000000000000000000000000000000000000005f52602260045260245ffd5b5f6002820490506001821680610c8b57607f821691505b602082108103610c9e57610c9d610c47565b5b50919050565b7f696e76616c6964207370656e64657200000000000000000000000000000000005f82015250565b5f610cd8600f836109aa565b9150610ce382610ca4565b602082019050919050565b5f6020820190508181035f830152610d0581610ccc565b9050919050565b7f696e73756666696369656e742062616c616e63650000000000000000000000005f82015250565b5f610d406014836109aa565b9150610d4b82610d0c565b602082019050919050565b5f6020820190508181035f830152610d6d81610d34565b9050919050565b7f616c6c6f77616e636520657863656564656400000000000000000000000000005f82015250565b5f610da86012836109aa565b9150610db382610d74565b602082019050919050565b5f6020820190508181035f830152610dd581610d9c565b9050919050565b7f4e487b71000000000000000000000000000000000000000000000000000000005f52601160045260245ffd5b5f610e1382610a8e565b9150610e1e83610a8e565b9250828203905081811115610e3657610e35610ddc565b5b92915050565b5f610e4682610a8e565b9150610e5183610a8e565b9250828201905080821115610e6957610e68610ddc565b5b92915050565b7f696e76616c6964206164647265737300000000000000000000000000000000005f82015250565b5f610ea3600f836109aa565b9150610eae82610e6f565b602082019050919050565b5f6020820190508181035f830152610ed081610e97565b9050919050565b7f696e73756666656369656e7420616d6f756e74000000000000000000000000005f82015250565b5f610f0b6013836109aa565b9150610f1682610ed7565b602082019050919050565b5f6020820190508181035f830152610f3881610eff565b905091905056fea2646970667358221220e6cc8be5806911b1c2399f1dd1898695be3ac9c467cfec2b6ec866192e57bf9b64736f6c634300081e0033",
					"opcodes": "PUSH1 0x80 PUSH1 0x40 MSTORE CALLVALUE DUP1 ISZERO PUSH2 0xF JUMPI PUSH0 PUSH0 REVERT JUMPDEST POP PUSH1 0x40 MLOAD PUSH2 0x176F CODESIZE SUB DUP1 PUSH2 0x176F DUP4 CODECOPY DUP2 DUP2 ADD PUSH1 0x40 MSTORE DUP2 ADD SWAP1 PUSH2 0x31 SWAP2 SWAP1 PUSH2 0x37B JUMP JUMPDEST DUP4 PUSH0 SWAP1 DUP2 PUSH2 0x3F SWAP2 SWAP1 PUSH2 0x61E JUMP JUMPDEST POP DUP3 PUSH1 0x1 SWAP1 DUP2 PUSH2 0x4F SWAP2 SWAP1 PUSH2 0x61E JUMP JUMPDEST POP DUP2 PUSH1 0x2 PUSH0 PUSH2 0x100 EXP DUP2 SLOAD DUP2 PUSH1 0xFF MUL NOT AND SWAP1 DUP4 PUSH1 0xFF AND MUL OR SWAP1 SSTORE POP PUSH2 0x7A CALLER DUP3 PUSH2 0x83 PUSH1 0x20 SHL PUSH1 0x20 SHR JUMP JUMPDEST POP POP POP POP PUSH2 0x7ED JUMP JUMPDEST PUSH0 PUSH20 0xFFFFFFFFFFFFFFFFFFFFFFFFFFFFFFFFFFFFFFFF AND DUP3 PUSH20 0xFFFFFFFFFFFFFFFFFFFFFFFFFFFFFFFFFFFFFFFF AND SUB PUSH2 0xF1 JUMPI PUSH1 0x40 MLOAD PUSH32 0x8C379A000000000000000000000000000000000000000000000000000000000 DUP2 MSTORE PUSH1 0x4 ADD PUSH2 0xE8 SWAP1 PUSH2 0x747 JUMP JUMPDEST PUSH1 0x40 MLOAD DUP1 SWAP2 SUB SWAP1 REVERT JUMPDEST DUP1 PUSH1 0x3 PUSH0 DUP3 DUP3 SLOAD PUSH2 0x102 SWAP2 SWAP1 PUSH2 0x792 JUMP JUMPDEST SWAP3 POP POP DUP2 SWAP1 SSTORE POP DUP1 PUSH1 0x4 PUSH0 DUP5 PUSH20 0xFFFFFFFFFFFFFFFFFFFFFFFFFFFFFFFFFFFFFFFF AND PUSH20 0xFFFFFFFFFFFFFFFFFFFFFFFFFFFFFFFFFFFFFFFF AND DUP2 MSTORE PUSH1 0x20 ADD SWAP1 DUP2 MSTORE PUSH1 0x20 ADD PUSH0 KECCAK256 PUSH0 DUP3 DUP3 SLOAD PUSH2 0x155 SWAP2 SWAP1 PUSH2 0x792 JUMP JUMPDEST SWAP3 POP POP DUP2 SWAP1 SSTORE POP DUP2 PUSH20 0xFFFFFFFFFFFFFFFFFFFFFFFFFFFFFFFFFFFFFFFF AND PUSH0 PUSH20 0xFFFFFFFFFFFFFFFFFFFFFFFFFFFFFFFFFFFFFFFF AND PUSH32 0xDDF252AD1BE2C89B69C2B068FC378DAA952BA7F163C4A11628F55A4DF523B3EF DUP4 PUSH1 0x40 MLOAD PUSH2 0x1B9 SWAP2 SWAP1 PUSH2 0x7D4 JUMP JUMPDEST PUSH1 0x40 MLOAD DUP1 SWAP2 SUB SWAP1 LOG3 POP POP JUMP JUMPDEST PUSH0 PUSH1 0x40 MLOAD SWAP1 POP SWAP1 JUMP JUMPDEST PUSH0 PUSH0 REVERT JUMPDEST PUSH0 PUSH0 REVERT JUMPDEST PUSH0 PUSH0 REVERT JUMPDEST PUSH0 PUSH0 REVERT JUMPDEST PUSH0 PUSH1 0x1F NOT PUSH1 0x1F DUP4 ADD AND SWAP1 POP SWAP2 SWAP1 POP JUMP JUMPDEST PUSH32 0x4E487B7100000000000000000000000000000000000000000000000000000000 PUSH0 MSTORE PUSH1 0x41 PUSH1 0x4 MSTORE PUSH1 0x24 PUSH0 REVERT JUMPDEST PUSH2 0x224 DUP3 PUSH2 0x1DE JUMP JUMPDEST DUP2 ADD DUP2 DUP2 LT PUSH8 0xFFFFFFFFFFFFFFFF DUP3 GT OR ISZERO PUSH2 0x243 JUMPI PUSH2 0x242 PUSH2 0x1EE JUMP JUMPDEST JUMPDEST DUP1 PUSH1 0x40 MSTORE POP POP POP JUMP JUMPDEST PUSH0 PUSH2 0x255 PUSH2 0x1C5 JUMP JUMPDEST SWAP1 POP PUSH2 0x261 DUP3 DUP3 PUSH2 0x21B JUMP JUMPDEST SWAP2 SWAP1 POP JUMP JUMPDEST PUSH0 PUSH8 0xFFFFFFFFFFFFFFFF DUP3 GT ISZERO PUSH2 0x280 JUMPI PUSH2 0x27F PUSH2 0x1EE JUMP JUMPDEST JUMPDEST PUSH2 0x289 DUP3 PUSH2 0x1DE JUMP JUMPDEST SWAP1 POP PUSH1 0x20 DUP2 ADD SWAP1 POP SWAP2 SWAP1 POP JUMP JUMPDEST DUP3 DUP2 DUP4 MCOPY PUSH0 DUP4 DUP4 ADD MSTORE POP POP POP JUMP JUMPDEST PUSH0 PUSH2 0x2B6 PUSH2 0x2B1 DUP5 PUSH2 0x266 JUMP JUMPDEST PUSH2 0x24C JUMP JUMPDEST SWAP1 POP DUP3 DUP2 MSTORE PUSH1 0x20 DUP2 ADD DUP5 DUP5 DUP5 ADD GT ISZERO PUSH2 0x2D2 JUMPI PUSH2 0x2D1 PUSH2 0x1DA JUMP JUMPDEST JUMPDEST PUSH2 0x2DD DUP5 DUP3 DUP6 PUSH2 0x296 JUMP JUMPDEST POP SWAP4 SWAP3 POP POP POP JUMP JUMPDEST PUSH0 DUP3 PUSH1 0x1F DUP4 ADD SLT PUSH2 0x2F9 JUMPI PUSH2 0x2F8 PUSH2 0x1D6 JUMP JUMPDEST JUMPDEST DUP2 MLOAD PUSH2 0x309 DUP5 DUP3 PUSH1 0x20 DUP7 ADD PUSH2 0x2A4 JUMP JUMPDEST SWAP2 POP POP SWAP3 SWAP2 POP POP JUMP JUMPDEST PUSH0 PUSH1 0xFF DUP3 AND SWAP1 POP SWAP2 SWAP1 POP JUMP JUMPDEST PUSH2 0x327 DUP2 PUSH2 0x312 JUMP JUMPDEST DUP2 EQ PUSH2 0x331 JUMPI PUSH0 PUSH0 REVERT JUMPDEST POP JUMP JUMPDEST PUSH0 DUP2 MLOAD SWAP1 POP PUSH2 0x342 DUP2 PUSH2 0x31E JUMP JUMPDEST SWAP3 SWAP2 POP POP JUMP JUMPDEST PUSH0 DUP2 SWAP1 POP SWAP2 SWAP1 POP JUMP JUMPDEST PUSH2 0x35A DUP2 PUSH2 0x348 JUMP JUMPDEST DUP2 EQ PUSH2 0x364 JUMPI PUSH0 PUSH0 REVERT JUMPDEST POP JUMP JUMPDEST PUSH0 DUP2 MLOAD SWAP1 POP PUSH2 0x375 DUP2 PUSH2 0x351 JUMP JUMPDEST SWAP3 SWAP2 POP POP JUMP JUMPDEST PUSH0 PUSH0 PUSH0 PUSH0 PUSH1 0x80 DUP6 DUP8 SUB SLT ISZERO PUSH2 0x393 JUMPI PUSH2 0x392 PUSH2 0x1CE JUMP JUMPDEST JUMPDEST PUSH0 DUP6 ADD MLOAD PUSH8 0xFFFFFFFFFFFFFFFF DUP2 GT ISZERO PUSH2 0x3B0 JUMPI PUSH2 0x3AF PUSH2 0x1D2 JUMP JUMPDEST JUMPDEST PUSH2 0x3BC DUP8 DUP3 DUP9 ADD PUSH2 0x2E5 JUMP JUMPDEST SWAP5 POP POP PUSH1 0x20 DUP6 ADD MLOAD PUSH8 0xFFFFFFFFFFFFFFFF DUP2 GT ISZERO PUSH2 0x3DD JUMPI PUSH2 0x3DC PUSH2 0x1D2 JUMP JUMPDEST JUMPDEST PUSH2 0x3E9 DUP8 DUP3 DUP9 ADD PUSH2 0x2E5 JUMP JUMPDEST SWAP4 POP POP PUSH1 0x40 PUSH2 0x3FA DUP8 DUP3 DUP9 ADD PUSH2 0x334 JUMP JUMPDEST SWAP3 POP POP PUSH1 0x60 PUSH2 0x40B DUP8 DUP3 DUP9 ADD PUSH2 0x367 JUMP JUMPDEST SWAP2 POP POP SWAP3 SWAP6 SWAP2 SWAP5 POP SWAP3 POP JUMP JUMPDEST PUSH0 DUP2 MLOAD SWAP1 POP SWAP2 SWAP1 POP JUMP JUMPDEST PUSH32 0x4E487B7100000000000000000000000000000000000000000000000000000000 PUSH0 MSTORE PUSH1 0x22 PUSH1 0x4 MSTORE PUSH1 0x24 PUSH0 REVERT JUMPDEST PUSH0 PUSH1 0x2 DUP3 DIV SWAP1 POP PUSH1 0x1 DUP3 AND DUP1 PUSH2 0x465 JUMPI PUSH1 0x7F DUP3 AND SWAP2 POP JUMPDEST PUSH1 0x20 DUP3 LT DUP2 SUB PUSH2 0x478 JUMPI PUSH2 0x477 PUSH2 0x421 JUMP JUMPDEST JUMPDEST POP SWAP2 SWAP1 POP JUMP JUMPDEST PUSH0 DUP2 SWAP1 POP DUP2 PUSH0 MSTORE PUSH1 0x20 PUSH0 KECCAK256 SWAP1 POP SWAP2 SWAP1 POP JUMP JUMPDEST PUSH0 PUSH1 0x20 PUSH1 0x1F DUP4 ADD DIV SWAP1 POP SWAP2 SWAP1 POP JUMP JUMPDEST PUSH0 DUP3 DUP3 SHL SWAP1 POP SWAP3 SWAP2 POP POP JUMP JUMPDEST PUSH0 PUSH1 0x8 DUP4 MUL PUSH2 0x4DA PUSH32 0xFFFFFFFFFFFFFFFFFFFFFFFFFFFFFFFFFFFFFFFFFFFFFFFFFFFFFFFFFFFFFFFF DUP3 PUSH2 0x49F JUMP JUMPDEST PUSH2 0x4E4 DUP7 DUP4 PUSH2 0x49F JUMP JUMPDEST SWAP6 POP DUP1 NOT DUP5 AND SWAP4 POP DUP1 DUP7 AND DUP5 OR SWAP3 POP POP POP SWAP4 SWAP3 POP POP POP JUMP JUMPDEST PUSH0 DUP2 SWAP1 POP SWAP2 SWAP1 POP JUMP JUMPDEST PUSH0 PUSH2 0x51F PUSH2 0x51A PUSH2 0x515 DUP5 PUSH2 0x348 JUMP JUMPDEST PUSH2 0x4FC JUMP JUMPDEST PUSH2 0x348 JUMP JUMPDEST SWAP1 POP SWAP2 SWAP1 POP JUMP JUMPDEST PUSH0 DUP2 SWAP1 POP SWAP2 SWAP1 POP JUMP JUMPDEST PUSH2 0x538 DUP4 PUSH2 0x505 JUMP JUMPDEST PUSH2 0x54C PUSH2 0x544 DUP3 PUSH2 0x526 JUMP JUMPDEST DUP5 DUP5 SLOAD PUSH2 0x4AB JUMP JUMPDEST DUP3 SSTORE POP POP POP POP JUMP JUMPDEST PUSH0 PUSH0 SWAP1 POP SWAP1 JUMP JUMPDEST PUSH2 0x563 PUSH2 0x554 JUMP JUMPDEST PUSH2 0x56E DUP2 DUP5 DUP5 PUSH2 0x52F JUMP JUMPDEST POP POP POP JUMP JUMPDEST JUMPDEST DUP2 DUP2 LT ISZERO PUSH2 0x591 JUMPI PUSH2 0x586 PUSH0 DUP3 PUSH2 0x55B JUMP JUMPDEST PUSH1 0x1 DUP2 ADD SWAP1 POP PUSH2 0x574 JUMP JUMPDEST POP POP JUMP JUMPDEST PUSH1 0x1F DUP3 GT ISZERO PUSH2 0x5D6 JUMPI PUSH2 0x5A7 DUP2 PUSH2 0x47E JUMP JUMPDEST PUSH2 0x5B0 DUP5 PUSH2 0x490 JUMP JUMPDEST DUP2 ADD PUSH1 0x20 DUP6 LT ISZERO PUSH2 0x5BF JUMPI DUP2 SWAP1 POP JUMPDEST PUSH2 0x5D3 PUSH2 0x5CB DUP6 PUSH2 0x490 JUMP JUMPDEST DUP4 ADD DUP3 PUSH2 0x573 JUMP JUMPDEST POP POP JUMPDEST POP POP POP JUMP JUMPDEST PUSH0 DUP3 DUP3 SHR SWAP1 POP SWAP3 SWAP2 POP POP JUMP JUMPDEST PUSH0 PUSH2 0x5F6 PUSH0 NOT DUP5 PUSH1 0x8 MUL PUSH2 0x5DB JUMP JUMPDEST NOT DUP1 DUP4 AND SWAP2 POP POP SWAP3 SWAP2 POP POP JUMP JUMPDEST PUSH0 PUSH2 0x60E DUP4 DUP4 PUSH2 0x5E7 JUMP JUMPDEST SWAP2 POP DUP3 PUSH1 0x2 MUL DUP3 OR SWAP1 POP SWAP3 SWAP2 POP POP JUMP JUMPDEST PUSH2 0x627 DUP3 PUSH2 0x417 JUMP JUMPDEST PUSH8 0xFFFFFFFFFFFFFFFF DUP2 GT ISZERO PUSH2 0x640 JUMPI PUSH2 0x63F PUSH2 0x1EE JUMP JUMPDEST JUMPDEST PUSH2 0x64A DUP3 SLOAD PUSH2 0x44E JUMP JUMPDEST PUSH2 0x655 DUP3 DUP3 DUP6 PUSH2 0x595 JUMP JUMPDEST PUSH0 PUSH1 0x20 SWAP1 POP PUSH1 0x1F DUP4 GT PUSH1 0x1 DUP2 EQ PUSH2 0x686 JUMPI PUSH0 DUP5 ISZERO PUSH2 0x674 JUMPI DUP3 DUP8 ADD MLOAD SWAP1 POP JUMPDEST PUSH2 0x67E DUP6 DUP3 PUSH2 0x603 JUMP JUMPDEST DUP7 SSTORE POP PUSH2 0x6E5 JUMP JUMPDEST PUSH1 0x1F NOT DUP5 AND PUSH2 0x694 DUP7 PUSH2 0x47E JUMP JUMPDEST PUSH0 JUMPDEST DUP3 DUP2 LT ISZERO PUSH2 0x6BB JUMPI DUP5 DUP10 ADD MLOAD DUP3 SSTORE PUSH1 0x1 DUP3 ADD SWAP2 POP PUSH1 0x20 DUP6 ADD SWAP5 POP PUSH1 0x20 DUP2 ADD SWAP1 POP PUSH2 0x696 JUMP JUMPDEST DUP7 DUP4 LT ISZERO PUSH2 0x6D8 JUMPI DUP5 DUP10 ADD MLOAD PUSH2 0x6D4 PUSH1 0x1F DUP10 AND DUP3 PUSH2 0x5E7 JUMP JUMPDEST DUP4 SSTORE POP JUMPDEST PUSH1 0x1 PUSH1 0x2 DUP9 MUL ADD DUP9 SSTORE POP POP POP JUMPDEST POP POP POP POP POP POP JUMP JUMPDEST PUSH0 DUP3 DUP3 MSTORE PUSH1 0x20 DUP3 ADD SWAP1 POP SWAP3 SWAP2 POP POP JUMP JUMPDEST PUSH32 0x6D696E7420746F207A65726F2061646472657373000000000000000000000000 PUSH0 DUP3 ADD MSTORE POP JUMP JUMPDEST PUSH0 PUSH2 0x731 PUSH1 0x14 DUP4 PUSH2 0x6ED JUMP JUMPDEST SWAP2 POP PUSH2 0x73C DUP3 PUSH2 0x6FD JUMP JUMPDEST PUSH1 0x20 DUP3 ADD SWAP1 POP SWAP2 SWAP1 POP JUMP JUMPDEST PUSH0 PUSH1 0x20 DUP3 ADD SWAP1 POP DUP2 DUP2 SUB PUSH0 DUP4 ADD MSTORE PUSH2 0x75E DUP2 PUSH2 0x725 JUMP JUMPDEST SWAP1 POP SWAP2 SWAP1 POP JUMP JUMPDEST PUSH32 0x4E487B7100000000000000000000000000000000000000000000000000000000 PUSH0 MSTORE PUSH1 0x11 PUSH1 0x4 MSTORE PUSH1 0x24 PUSH0 REVERT JUMPDEST PUSH0 PUSH2 0x79C DUP3 PUSH2 0x348 JUMP JUMPDEST SWAP2 POP PUSH2 0x7A7 DUP4 PUSH2 0x348 JUMP JUMPDEST SWAP3 POP DUP3 DUP3 ADD SWAP1 POP DUP1 DUP3 GT ISZERO PUSH2 0x7BF JUMPI PUSH2 0x7BE PUSH2 0x765 JUMP JUMPDEST JUMPDEST SWAP3 SWAP2 POP POP JUMP JUMPDEST PUSH2 0x7CE DUP2 PUSH2 0x348 JUMP JUMPDEST DUP3 MSTORE POP POP JUMP JUMPDEST PUSH0 PUSH1 0x20 DUP3 ADD SWAP1 POP PUSH2 0x7E7 PUSH0 DUP4 ADD DUP5 PUSH2 0x7C5 JUMP JUMPDEST SWAP3 SWAP2 POP POP JUMP JUMPDEST PUSH2 0xF75 DUP1 PUSH2 0x7FA PUSH0 CODECOPY PUSH0 RETURN INVALID PUSH1 0x80 PUSH1 0x40 MSTORE CALLVALUE DUP1 ISZERO PUSH2 0xF JUMPI PUSH0 PUSH0 REVERT JUMPDEST POP PUSH1 0x4 CALLDATASIZE LT PUSH2 0x91 JUMPI PUSH0 CALLDATALOAD PUSH1 0xE0 SHR DUP1 PUSH4 0x313CE567 GT PUSH2 0x64 JUMPI DUP1 PUSH4 0x313CE567 EQ PUSH2 0x131 JUMPI DUP1 PUSH4 0x70A08231 EQ PUSH2 0x14F JUMPI DUP1 PUSH4 0x95D89B41 EQ PUSH2 0x17F JUMPI DUP1 PUSH4 0xA20BC7FE EQ PUSH2 0x19D JUMPI DUP1 PUSH4 0xA9059CBB EQ PUSH2 0x1CD JUMPI PUSH2 0x91 JUMP JUMPDEST DUP1 PUSH4 0x6FDDE03 EQ PUSH2 0x95 JUMPI DUP1 PUSH4 0x95EA7B3 EQ PUSH2 0xB3 JUMPI DUP1 PUSH4 0x18160DDD EQ PUSH2 0xE3 JUMPI DUP1 PUSH4 0x23B872DD EQ PUSH2 0x101 JUMPI JUMPDEST PUSH0 PUSH0 REVERT JUMPDEST PUSH2 0x9D PUSH2 0x1FD JUMP JUMPDEST PUSH1 0x40 MLOAD PUSH2 0xAA SWAP2 SWAP1 PUSH2 0xA10 JUMP JUMPDEST PUSH1 0x40 MLOAD DUP1 SWAP2 SUB SWAP1 RETURN JUMPDEST PUSH2 0xCD PUSH1 0x4 DUP1 CALLDATASIZE SUB DUP2 ADD SWAP1 PUSH2 0xC8 SWAP2 SWAP1 PUSH2 0xAC1 JUMP JUMPDEST PUSH2 0x288 JUMP JUMPDEST PUSH1 0x40 MLOAD PUSH2 0xDA SWAP2 SWAP1 PUSH2 0xB19 JUMP JUMPDEST PUSH1 0x40 MLOAD DUP1 SWAP2 SUB SWAP1 RETURN JUMPDEST PUSH2 0xEB PUSH2 0x3E3 JUMP JUMPDEST PUSH1 0x40 MLOAD PUSH2 0xF8 SWAP2 SWAP1 PUSH2 0xB41 JUMP JUMPDEST PUSH1 0x40 MLOAD DUP1 SWAP2 SUB SWAP1 RETURN JUMPDEST PUSH2 0x11B PUSH1 0x4 DUP1 CALLDATASIZE SUB DUP2 ADD SWAP1 PUSH2 0x116 SWAP2 SWAP1 PUSH2 0xB5A JUMP JUMPDEST PUSH2 0x3E9 JUMP JUMPDEST PUSH1 0x40 MLOAD PUSH2 0x128 SWAP2 SWAP1 PUSH2 0xB19 JUMP JUMPDEST PUSH1 0x40 MLOAD DUP1 SWAP2 SUB SWAP1 RETURN JUMPDEST PUSH2 0x139 PUSH2 0x6C9 JUMP JUMPDEST PUSH1 0x40 MLOAD PUSH2 0x146 SWAP2 SWAP1 PUSH2 0xBC5 JUMP JUMPDEST PUSH1 0x40 MLOAD DUP1 SWAP2 SUB SWAP1 RETURN JUMPDEST PUSH2 0x169 PUSH1 0x4 DUP1 CALLDATASIZE SUB DUP2 ADD SWAP1 PUSH2 0x164 SWAP2 SWAP1 PUSH2 0xBDE JUMP JUMPDEST PUSH2 0x6DB JUMP JUMPDEST PUSH1 0x40 MLOAD PUSH2 0x176 SWAP2 SWAP1 PUSH2 0xB41 JUMP JUMPDEST PUSH1 0x40 MLOAD DUP1 SWAP2 SUB SWAP1 RETURN JUMPDEST PUSH2 0x187 PUSH2 0x6F0 JUMP JUMPDEST PUSH1 0x40 MLOAD PUSH2 0x194 SWAP2 SWAP1 PUSH2 0xA10 JUMP JUMPDEST PUSH1 0x40 MLOAD DUP1 SWAP2 SUB SWAP1 RETURN JUMPDEST PUSH2 0x1B7 PUSH1 0x4 DUP1 CALLDATASIZE SUB DUP2 ADD SWAP1 PUSH2 0x1B2 SWAP2 SWAP1 PUSH2 0xC09 JUMP JUMPDEST PUSH2 0x77C JUMP JUMPDEST PUSH1 0x40 MLOAD PUSH2 0x1C4 SWAP2 SWAP1 PUSH2 0xB41 JUMP JUMPDEST PUSH1 0x40 MLOAD DUP1 SWAP2 SUB SWAP1 RETURN JUMPDEST PUSH2 0x1E7 PUSH1 0x4 DUP1 CALLDATASIZE SUB DUP2 ADD SWAP1 PUSH2 0x1E2 SWAP2 SWAP1 PUSH2 0xAC1 JUMP JUMPDEST PUSH2 0x79C JUMP JUMPDEST PUSH1 0x40 MLOAD PUSH2 0x1F4 SWAP2 SWAP1 PUSH2 0xB19 JUMP JUMPDEST PUSH1 0x40 MLOAD DUP1 SWAP2 SUB SWAP1 RETURN JUMPDEST PUSH0 DUP1 SLOAD PUSH2 0x209 SWAP1 PUSH2 0xC74 JUMP JUMPDEST DUP1 PUSH1 0x1F ADD PUSH1 0x20 DUP1 SWAP2 DIV MUL PUSH1 0x20 ADD PUSH1 0x40 MLOAD SWAP1 DUP2 ADD PUSH1 0x40 MSTORE DUP1 SWAP3 SWAP2 SWAP1 DUP2 DUP2 MSTORE PUSH1 0x20 ADD DUP3 DUP1 SLOAD PUSH2 0x235 SWAP1 PUSH2 0xC74 JUMP JUMPDEST DUP1 ISZERO PUSH2 0x280 JUMPI DUP1 PUSH1 0x1F LT PUSH2 0x257 JUMPI PUSH2 0x100 DUP1 DUP4 SLOAD DIV MUL DUP4 MSTORE SWAP2 PUSH1 0x20 ADD SWAP2 PUSH2 0x280 JUMP JUMPDEST DUP3 ADD SWAP2 SWAP1 PUSH0 MSTORE PUSH1 0x20 PUSH0 KECCAK256 SWAP1 JUMPDEST DUP2 SLOAD DUP2 MSTORE SWAP1 PUSH1 0x1 ADD SWAP1 PUSH1 0x20 ADD DUP1 DUP4 GT PUSH2 0x263 JUMPI DUP3 SWAP1 SUB PUSH1 0x1F AND DUP3 ADD SWAP2 JUMPDEST POP POP POP POP POP DUP2 JUMP JUMPDEST PUSH0 PUSH0 PUSH20 0xFFFFFFFFFFFFFFFFFFFFFFFFFFFFFFFFFFFFFFFF AND DUP4 PUSH20 0xFFFFFFFFFFFFFFFFFFFFFFFFFFFFFFFFFFFFFFFF AND SUB PUSH2 0x2F7 JUMPI PUSH1 0x40 MLOAD PUSH32 0x8C379A000000000000000000000000000000000000000000000000000000000 DUP2 MSTORE PUSH1 0x4 ADD PUSH2 0x2EE SWAP1 PUSH2 0xCEE JUMP JUMPDEST PUSH1 0x40 MLOAD DUP1 SWAP2 SUB SWAP1 REVERT JUMPDEST DUP2 PUSH1 0x5 PUSH0 CALLER PUSH20 0xFFFFFFFFFFFFFFFFFFFFFFFFFFFFFFFFFFFFFFFF AND PUSH20 0xFFFFFFFFFFFFFFFFFFFFFFFFFFFFFFFFFFFFFFFF AND DUP2 MSTORE PUSH1 0x20 ADD SWAP1 DUP2 MSTORE PUSH1 0x20 ADD PUSH0 KECCAK256 PUSH0 DUP6 PUSH20 0xFFFFFFFFFFFFFFFFFFFFFFFFFFFFFFFFFFFFFFFF AND PUSH20 0xFFFFFFFFFFFFFFFFFFFFFFFFFFFFFFFFFFFFFFFF AND DUP2 MSTORE PUSH1 0x20 ADD SWAP1 DUP2 MSTORE PUSH1 0x20 ADD PUSH0 KECCAK256 DUP2 SWAP1 SSTORE POP DUP3 PUSH20 0xFFFFFFFFFFFFFFFFFFFFFFFFFFFFFFFFFFFFFFFF AND CALLER PUSH20 0xFFFFFFFFFFFFFFFFFFFFFFFFFFFFFFFFFFFFFFFF AND PUSH32 0x8C5BE1E5EBEC7D5BD14F71427D1E84F3DD0314C0F7B2291E5B200AC8C7C3B925 DUP5 PUSH1 0x40 MLOAD PUSH2 0x3D1 SWAP2 SWAP1 PUSH2 0xB41 JUMP JUMPDEST PUSH1 0x40 MLOAD DUP1 SWAP2 SUB SWAP1 LOG3 PUSH1 0x1 SWAP1 POP SWAP3 SWAP2 POP POP JUMP JUMPDEST PUSH1 0x3 SLOAD DUP2 JUMP JUMPDEST PUSH0 DUP2 PUSH1 0x4 PUSH0 DUP7 PUSH20 0xFFFFFFFFFFFFFFFFFFFFFFFFFFFFFFFFFFFFFFFF AND PUSH20 0xFFFFFFFFFFFFFFFFFFFFFFFFFFFFFFFFFFFFFFFF AND DUP2 MSTORE PUSH1 0x20 ADD SWAP1 DUP2 MSTORE PUSH1 0x20 ADD PUSH0 KECCAK256 SLOAD LT ISZERO PUSH2 0x46A JUMPI PUSH1 0x40 MLOAD PUSH32 0x8C379A000000000000000000000000000000000000000000000000000000000 DUP2 MSTORE PUSH1 0x4 ADD PUSH2 0x461 SWAP1 PUSH2 0xD56 JUMP JUMPDEST PUSH1 0x40 MLOAD DUP1 SWAP2 SUB SWAP1 REVERT JUMPDEST DUP2 PUSH1 0x5 PUSH0 DUP7 PUSH20 0xFFFFFFFFFFFFFFFFFFFFFFFFFFFFFFFFFFFFFFFF AND PUSH20 0xFFFFFFFFFFFFFFFFFFFFFFFFFFFFFFFFFFFFFFFF AND DUP2 MSTORE PUSH1 0x20 ADD SWAP1 DUP2 MSTORE PUSH1 0x20 ADD PUSH0 KECCAK256 PUSH0 CALLER PUSH20 0xFFFFFFFFFFFFFFFFFFFFFFFFFFFFFFFFFFFFFFFF AND PUSH20 0xFFFFFFFFFFFFFFFFFFFFFFFFFFFFFFFFFFFFFFFF AND DUP2 MSTORE PUSH1 0x20 ADD SWAP1 DUP2 MSTORE PUSH1 0x20 ADD PUSH0 KECCAK256 SLOAD LT ISZERO PUSH2 0x525 JUMPI PUSH1 0x40 MLOAD PUSH32 0x8C379A000000000000000000000000000000000000000000000000000000000 DUP2 MSTORE PUSH1 0x4 ADD PUSH2 0x51C SWAP1 PUSH2 0xDBE JUMP JUMPDEST PUSH1 0x40 MLOAD DUP1 SWAP2 SUB SWAP1 REVERT JUMPDEST DUP2 PUSH1 0x5 PUSH0 DUP7 PUSH20 0xFFFFFFFFFFFFFFFFFFFFFFFFFFFFFFFFFFFFFFFF AND PUSH20 0xFFFFFFFFFFFFFFFFFFFFFFFFFFFFFFFFFFFFFFFF AND DUP2 MSTORE PUSH1 0x20 ADD SWAP1 DUP2 MSTORE PUSH1 0x20 ADD PUSH0 KECCAK256 PUSH0 CALLER PUSH20 0xFFFFFFFFFFFFFFFFFFFFFFFFFFFFFFFFFFFFFFFF AND PUSH20 0xFFFFFFFFFFFFFFFFFFFFFFFFFFFFFFFFFFFFFFFF AND DUP2 MSTORE PUSH1 0x20 ADD SWAP1 DUP2 MSTORE PUSH1 0x20 ADD PUSH0 KECCAK256 PUSH0 DUP3 DUP3 SLOAD PUSH2 0x5AC SWAP2 SWAP1 PUSH2 0xE09 JUMP JUMPDEST SWAP3 POP POP DUP2 SWAP1 SSTORE POP DUP2 PUSH1 0x4 PUSH0 DUP7 PUSH20 0xFFFFFFFFFFFFFFFFFFFFFFFFFFFFFFFFFFFFFFFF AND PUSH20 0xFFFFFFFFFFFFFFFFFFFFFFFFFFFFFFFFFFFFFFFF AND DUP2 MSTORE PUSH1 0x20 ADD SWAP1 DUP2 MSTORE PUSH1 0x20 ADD PUSH0 KECCAK256 PUSH0 DUP3 DUP3 SLOAD PUSH2 0x5FF SWAP2 SWAP1 PUSH2 0xE09 JUMP JUMPDEST SWAP3 POP POP DUP2 SWAP1 SSTORE POP DUP2 PUSH1 0x4 PUSH0 DUP6 PUSH20 0xFFFFFFFFFFFFFFFFFFFFFFFFFFFFFFFFFFFFFFFF AND PUSH20 0xFFFFFFFFFFFFFFFFFFFFFFFFFFFFFFFFFFFFFFFF AND DUP2 MSTORE PUSH1 0x20 ADD SWAP1 DUP2 MSTORE PUSH1 0x20 ADD PUSH0 KECCAK256 PUSH0 DUP3 DUP3 SLOAD PUSH2 0x652 SWAP2 SWAP1 PUSH2 0xE3C JUMP JUMPDEST SWAP3 POP POP DUP2 SWAP1 SSTORE POP DUP3 PUSH20 0xFFFFFFFFFFFFFFFFFFFFFFFFFFFFFFFFFFFFFFFF AND DUP5 PUSH20 0xFFFFFFFFFFFFFFFFFFFFFFFFFFFFFFFFFFFFFFFF AND PUSH32 0xDDF252AD1BE2C89B69C2B068FC378DAA952BA7F163C4A11628F55A4DF523B3EF DUP5 PUSH1 0x40 MLOAD PUSH2 0x6B6 SWAP2 SWAP1 PUSH2 0xB41 JUMP JUMPDEST PUSH1 0x40 MLOAD DUP1 SWAP2 SUB SWAP1 LOG3 PUSH1 0x1 SWAP1 POP SWAP4 SWAP3 POP POP POP JUMP JUMPDEST PUSH1 0x2 PUSH0 SWAP1 SLOAD SWAP1 PUSH2 0x100 EXP SWAP1 DIV PUSH1 0xFF AND DUP2 JUMP JUMPDEST PUSH1 0x4 PUSH1 0x20 MSTORE DUP1 PUSH0 MSTORE PUSH1 0x40 PUSH0 KECCAK256 PUSH0 SWAP2 POP SWAP1 POP SLOAD DUP2 JUMP JUMPDEST PUSH1 0x1 DUP1 SLOAD PUSH2 0x6FD SWAP1 PUSH2 0xC74 JUMP JUMPDEST DUP1 PUSH1 0x1F ADD PUSH1 0x20 DUP1 SWAP2 DIV MUL PUSH1 0x20 ADD PUSH1 0x40 MLOAD SWAP1 DUP2 ADD PUSH1 0x40 MSTORE DUP1 SWAP3 SWAP2 SWAP1 DUP2 DUP2 MSTORE PUSH1 0x20 ADD DUP3 DUP1 SLOAD PUSH2 0x729 SWAP1 PUSH2 0xC74 JUMP JUMPDEST DUP1 ISZERO PUSH2 0x774 JUMPI DUP1 PUSH1 0x1F LT PUSH2 0x74B JUMPI PUSH2 0x100 DUP1 DUP4 SLOAD DIV MUL DUP4 MSTORE SWAP2 PUSH1 0x20 ADD SWAP2 PUSH2 0x774 JUMP JUMPDEST DUP3 ADD SWAP2 SWAP1 PUSH0 MSTORE PUSH1 0x20 PUSH0 KECCAK256 SWAP1 JUMPDEST DUP2 SLOAD DUP2 MSTORE SWAP1 PUSH1 0x1 ADD SWAP1 PUSH1 0x20 ADD DUP1 DUP4 GT PUSH2 0x757 JUMPI DUP3 SWAP1 SUB PUSH1 0x1F AND DUP3 ADD SWAP2 JUMPDEST POP POP POP POP POP DUP2 JUMP JUMPDEST PUSH1 0x5 PUSH1 0x20 MSTORE DUP2 PUSH0 MSTORE PUSH1 0x40 PUSH0 KECCAK256 PUSH1 0x20 MSTORE DUP1 PUSH0 MSTORE PUSH1 0x40 PUSH0 KECCAK256 PUSH0 SWAP2 POP SWAP2 POP POP SLOAD DUP2 JUMP JUMPDEST PUSH0 PUSH0 PUSH20 0xFFFFFFFFFFFFFFFFFFFFFFFFFFFFFFFFFFFFFFFF AND DUP4 PUSH20 0xFFFFFFFFFFFFFFFFFFFFFFFFFFFFFFFFFFFFFFFF AND SUB PUSH2 0x80B JUMPI PUSH1 0x40 MLOAD PUSH32 0x8C379A000000000000000000000000000000000000000000000000000000000 DUP2 MSTORE PUSH1 0x4 ADD PUSH2 0x802 SWAP1 PUSH2 0xEB9 JUMP JUMPDEST PUSH1 0x40 MLOAD DUP1 SWAP2 SUB SWAP1 REVERT JUMPDEST DUP2 PUSH1 0x4 PUSH0 CALLER PUSH20 0xFFFFFFFFFFFFFFFFFFFFFFFFFFFFFFFFFFFFFFFF AND PUSH20 0xFFFFFFFFFFFFFFFFFFFFFFFFFFFFFFFFFFFFFFFF AND DUP2 MSTORE PUSH1 0x20 ADD SWAP1 DUP2 MSTORE PUSH1 0x20 ADD PUSH0 KECCAK256 SLOAD LT ISZERO PUSH2 0x88B JUMPI PUSH1 0x40 MLOAD PUSH32 0x8C379A000000000000000000000000000000000000000000000000000000000 DUP2 MSTORE PUSH1 0x4 ADD PUSH2 0x882 SWAP1 PUSH2 0xF21 JUMP JUMPDEST PUSH1 0x40 MLOAD DUP1 SWAP2 SUB SWAP1 REVERT JUMPDEST DUP2 PUSH1 0x4 PUSH0 CALLER PUSH20 0xFFFFFFFFFFFFFFFFFFFFFFFFFFFFFFFFFFFFFFFF AND PUSH20 0xFFFFFFFFFFFFFFFFFFFFFFFFFFFFFFFFFFFFFFFF AND DUP2 MSTORE PUSH1 0x20 ADD SWAP1 DUP2 MSTORE PUSH1 0x20 ADD PUSH0 KECCAK256 PUSH0 DUP3 DUP3 SLOAD PUSH2 0x8D7 SWAP2 SWAP1 PUSH2 0xE09 JUMP JUMPDEST SWAP3 POP POP DUP2 SWAP1 SSTORE POP DUP2 PUSH1 0x4 PUSH0 DUP6 PUSH20 0xFFFFFFFFFFFFFFFFFFFFFFFFFFFFFFFFFFFFFFFF AND PUSH20 0xFFFFFFFFFFFFFFFFFFFFFFFFFFFFFFFFFFFFFFFF AND DUP2 MSTORE PUSH1 0x20 ADD SWAP1 DUP2 MSTORE PUSH1 0x20 ADD PUSH0 KECCAK256 PUSH0 DUP3 DUP3 SLOAD PUSH2 0x92A SWAP2 SWAP1 PUSH2 0xE3C JUMP JUMPDEST SWAP3 POP POP DUP2 SWAP1 SSTORE POP DUP3 PUSH20 0xFFFFFFFFFFFFFFFFFFFFFFFFFFFFFFFFFFFFFFFF AND CALLER PUSH20 0xFFFFFFFFFFFFFFFFFFFFFFFFFFFFFFFFFFFFFFFF AND PUSH32 0xDDF252AD1BE2C89B69C2B068FC378DAA952BA7F163C4A11628F55A4DF523B3EF DUP5 PUSH1 0x40 MLOAD PUSH2 0x98E SWAP2 SWAP1 PUSH2 0xB41 JUMP JUMPDEST PUSH1 0x40 MLOAD DUP1 SWAP2 SUB SWAP1 LOG3 PUSH1 0x1 SWAP1 POP SWAP3 SWAP2 POP POP JUMP JUMPDEST PUSH0 DUP2 MLOAD SWAP1 POP SWAP2 SWAP1 POP JUMP JUMPDEST PUSH0 DUP3 DUP3 MSTORE PUSH1 0x20 DUP3 ADD SWAP1 POP SWAP3 SWAP2 POP POP JUMP JUMPDEST DUP3 DUP2 DUP4 MCOPY PUSH0 DUP4 DUP4 ADD MSTORE POP POP POP JUMP JUMPDEST PUSH0 PUSH1 0x1F NOT PUSH1 0x1F DUP4 ADD AND SWAP1 POP SWAP2 SWAP1 POP JUMP JUMPDEST PUSH0 PUSH2 0x9E2 DUP3 PUSH2 0x9A0 JUMP JUMPDEST PUSH2 0x9EC DUP2 DUP6 PUSH2 0x9AA JUMP JUMPDEST SWAP4 POP PUSH2 0x9FC DUP2 DUP6 PUSH1 0x20 DUP7 ADD PUSH2 0x9BA JUMP JUMPDEST PUSH2 0xA05 DUP2 PUSH2 0x9C8 JUMP JUMPDEST DUP5 ADD SWAP2 POP POP SWAP3 SWAP2 POP POP JUMP JUMPDEST PUSH0 PUSH1 0x20 DUP3 ADD SWAP1 POP DUP2 DUP2 SUB PUSH0 DUP4 ADD MSTORE PUSH2 0xA28 DUP2 DUP5 PUSH2 0x9D8 JUMP JUMPDEST SWAP1 POP SWAP3 SWAP2 POP POP JUMP JUMPDEST PUSH0 PUSH0 REVERT JUMPDEST PUSH0 PUSH20 0xFFFFFFFFFFFFFFFFFFFFFFFFFFFFFFFFFFFFFFFF DUP3 AND SWAP1 POP SWAP2 SWAP1 POP JUMP JUMPDEST PUSH0 PUSH2 0xA5D DUP3 PUSH2 0xA34 JUMP JUMPDEST SWAP1 POP SWAP2 SWAP1 POP JUMP JUMPDEST PUSH2 0xA6D DUP2 PUSH2 0xA53 JUMP JUMPDEST DUP2 EQ PUSH2 0xA77 JUMPI PUSH0 PUSH0 REVERT JUMPDEST POP JUMP JUMPDEST PUSH0 DUP2 CALLDATALOAD SWAP1 POP PUSH2 0xA88 DUP2 PUSH2 0xA64 JUMP JUMPDEST SWAP3 SWAP2 POP POP JUMP JUMPDEST PUSH0 DUP2 SWAP1 POP SWAP2 SWAP1 POP JUMP JUMPDEST PUSH2 0xAA0 DUP2 PUSH2 0xA8E JUMP JUMPDEST DUP2 EQ PUSH2 0xAAA JUMPI PUSH0 PUSH0 REVERT JUMPDEST POP JUMP JUMPDEST PUSH0 DUP2 CALLDATALOAD SWAP1 POP PUSH2 0xABB DUP2 PUSH2 0xA97 JUMP JUMPDEST SWAP3 SWAP2 POP POP JUMP JUMPDEST PUSH0 PUSH0 PUSH1 0x40 DUP4 DUP6 SUB SLT ISZERO PUSH2 0xAD7 JUMPI PUSH2 0xAD6 PUSH2 0xA30 JUMP JUMPDEST JUMPDEST PUSH0 PUSH2 0xAE4 DUP6 DUP3 DUP7 ADD PUSH2 0xA7A JUMP JUMPDEST SWAP3 POP POP PUSH1 0x20 PUSH2 0xAF5 DUP6 DUP3 DUP7 ADD PUSH2 0xAAD JUMP JUMPDEST SWAP2 POP POP SWAP3 POP SWAP3 SWAP1 POP JUMP JUMPDEST PUSH0 DUP2 ISZERO ISZERO SWAP1 POP SWAP2 SWAP1 POP JUMP JUMPDEST PUSH2 0xB13 DUP2 PUSH2 0xAFF JUMP JUMPDEST DUP3 MSTORE POP POP JUMP JUMPDEST PUSH0 PUSH1 0x20 DUP3 ADD SWAP1 POP PUSH2 0xB2C PUSH0 DUP4 ADD DUP5 PUSH2 0xB0A JUMP JUMPDEST SWAP3 SWAP2 POP POP JUMP JUMPDEST PUSH2 0xB3B DUP2 PUSH2 0xA8E JUMP JUMPDEST DUP3 MSTORE POP POP JUMP JUMPDEST PUSH0 PUSH1 0x20 DUP3 ADD SWAP1 POP PUSH2 0xB54 PUSH0 DUP4 ADD DUP5 PUSH2 0xB32 JUMP JUMPDEST SWAP3 SWAP2 POP POP JUMP JUMPDEST PUSH0 PUSH0 PUSH0 PUSH1 0x60 DUP5 DUP7 SUB SLT ISZERO PUSH2 0xB71 JUMPI PUSH2 0xB70 PUSH2 0xA30 JUMP JUMPDEST JUMPDEST PUSH0 PUSH2 0xB7E DUP7 DUP3 DUP8 ADD PUSH2 0xA7A JUMP JUMPDEST SWAP4 POP POP PUSH1 0x20 PUSH2 0xB8F DUP7 DUP3 DUP8 ADD PUSH2 0xA7A JUMP JUMPDEST SWAP3 POP POP PUSH1 0x40 PUSH2 0xBA0 DUP7 DUP3 DUP8 ADD PUSH2 0xAAD JUMP JUMPDEST SWAP2 POP POP SWAP3 POP SWAP3 POP SWAP3 JUMP JUMPDEST PUSH0 PUSH1 0xFF DUP3 AND SWAP1 POP SWAP2 SWAP1 POP JUMP JUMPDEST PUSH2 0xBBF DUP2 PUSH2 0xBAA JUMP JUMPDEST DUP3 MSTORE POP POP JUMP JUMPDEST PUSH0 PUSH1 0x20 DUP3 ADD SWAP1 POP PUSH2 0xBD8 PUSH0 DUP4 ADD DUP5 PUSH2 0xBB6 JUMP JUMPDEST SWAP3 SWAP2 POP POP JUMP JUMPDEST PUSH0 PUSH1 0x20 DUP3 DUP5 SUB SLT ISZERO PUSH2 0xBF3 JUMPI PUSH2 0xBF2 PUSH2 0xA30 JUMP JUMPDEST JUMPDEST PUSH0 PUSH2 0xC00 DUP5 DUP3 DUP6 ADD PUSH2 0xA7A JUMP JUMPDEST SWAP2 POP POP SWAP3 SWAP2 POP POP JUMP JUMPDEST PUSH0 PUSH0 PUSH1 0x40 DUP4 DUP6 SUB SLT ISZERO PUSH2 0xC1F JUMPI PUSH2 0xC1E PUSH2 0xA30 JUMP JUMPDEST JUMPDEST PUSH0 PUSH2 0xC2C DUP6 DUP3 DUP7 ADD PUSH2 0xA7A JUMP JUMPDEST SWAP3 POP POP PUSH1 0x20 PUSH2 0xC3D DUP6 DUP3 DUP7 ADD PUSH2 0xA7A JUMP JUMPDEST SWAP2 POP POP SWAP3 POP SWAP3 SWAP1 POP JUMP JUMPDEST PUSH32 0x4E487B7100000000000000000000000000000000000000000000000000000000 PUSH0 MSTORE PUSH1 0x22 PUSH1 0x4 MSTORE PUSH1 0x24 PUSH0 REVERT JUMPDEST PUSH0 PUSH1 0x2 DUP3 DIV SWAP1 POP PUSH1 0x1 DUP3 AND DUP1 PUSH2 0xC8B JUMPI PUSH1 0x7F DUP3 AND SWAP2 POP JUMPDEST PUSH1 0x20 DUP3 LT DUP2 SUB PUSH2 0xC9E JUMPI PUSH2 0xC9D PUSH2 0xC47 JUMP JUMPDEST JUMPDEST POP SWAP2 SWAP1 POP JUMP JUMPDEST PUSH32 0x696E76616C6964207370656E6465720000000000000000000000000000000000 PUSH0 DUP3 ADD MSTORE POP JUMP JUMPDEST PUSH0 PUSH2 0xCD8 PUSH1 0xF DUP4 PUSH2 0x9AA JUMP JUMPDEST SWAP2 POP PUSH2 0xCE3 DUP3 PUSH2 0xCA4 JUMP JUMPDEST PUSH1 0x20 DUP3 ADD SWAP1 POP SWAP2 SWAP1 POP JUMP JUMPDEST PUSH0 PUSH1 0x20 DUP3 ADD SWAP1 POP DUP2 DUP2 SUB PUSH0 DUP4 ADD MSTORE PUSH2 0xD05 DUP2 PUSH2 0xCCC JUMP JUMPDEST SWAP1 POP SWAP2 SWAP1 POP JUMP JUMPDEST PUSH32 0x696E73756666696369656E742062616C616E6365000000000000000000000000 PUSH0 DUP3 ADD MSTORE POP JUMP JUMPDEST PUSH0 PUSH2 0xD40 PUSH1 0x14 DUP4 PUSH2 0x9AA JUMP JUMPDEST SWAP2 POP PUSH2 0xD4B DUP3 PUSH2 0xD0C JUMP JUMPDEST PUSH1 0x20 DUP3 ADD SWAP1 POP SWAP2 SWAP1 POP JUMP JUMPDEST PUSH0 PUSH1 0x20 DUP3 ADD SWAP1 POP DUP2 DUP2 SUB PUSH0 DUP4 ADD MSTORE PUSH2 0xD6D DUP2 PUSH2 0xD34 JUMP JUMPDEST SWAP1 POP SWAP2 SWAP1 POP JUMP JUMPDEST PUSH32 0x616C6C6F77616E63652065786365656465640000000000000000000000000000 PUSH0 DUP3 ADD MSTORE POP JUMP JUMPDEST PUSH0 PUSH2 0xDA8 PUSH1 0x12 DUP4 PUSH2 0x9AA JUMP JUMPDEST SWAP2 POP PUSH2 0xDB3 DUP3 PUSH2 0xD74 JUMP JUMPDEST PUSH1 0x20 DUP3 ADD SWAP1 POP SWAP2 SWAP1 POP JUMP JUMPDEST PUSH0 PUSH1 0x20 DUP3 ADD SWAP1 POP DUP2 DUP2 SUB PUSH0 DUP4 ADD MSTORE PUSH2 0xDD5 DUP2 PUSH2 0xD9C JUMP JUMPDEST SWAP1 POP SWAP2 SWAP1 POP JUMP JUMPDEST PUSH32 0x4E487B7100000000000000000000000000000000000000000000000000000000 PUSH0 MSTORE PUSH1 0x11 PUSH1 0x4 MSTORE PUSH1 0x24 PUSH0 REVERT JUMPDEST PUSH0 PUSH2 0xE13 DUP3 PUSH2 0xA8E JUMP JUMPDEST SWAP2 POP PUSH2 0xE1E DUP4 PUSH2 0xA8E JUMP JUMPDEST SWAP3 POP DUP3 DUP3 SUB SWAP1 POP DUP2 DUP2 GT ISZERO PUSH2 0xE36 JUMPI PUSH2 0xE35 PUSH2 0xDDC JUMP JUMPDEST JUMPDEST SWAP3 SWAP2 POP POP JUMP JUMPDEST PUSH0 PUSH2 0xE46 DUP3 PUSH2 0xA8E JUMP JUMPDEST SWAP2 POP PUSH2 0xE51 DUP4 PUSH2 0xA8E JUMP JUMPDEST SWAP3 POP DUP3 DUP3 ADD SWAP1 POP DUP1 DUP3 GT ISZERO PUSH2 0xE69 JUMPI PUSH2 0xE68 PUSH2 0xDDC JUMP JUMPDEST JUMPDEST SWAP3 SWAP2 POP POP JUMP JUMPDEST PUSH32 0x696E76616C696420616464726573730000000000000000000000000000000000 PUSH0 DUP3 ADD MSTORE POP JUMP JUMPDEST PUSH0 PUSH2 0xEA3 PUSH1 0xF DUP4 PUSH2 0x9AA JUMP JUMPDEST SWAP2 POP PUSH2 0xEAE DUP3 PUSH2 0xE6F JUMP JUMPDEST PUSH1 0x20 DUP3 ADD SWAP1 POP SWAP2 SWAP1 POP JUMP JUMPDEST PUSH0 PUSH1 0x20 DUP3 ADD SWAP1 POP DUP2 DUP2 SUB PUSH0 DUP4 ADD MSTORE PUSH2 0xED0 DUP2 PUSH2 0xE97 JUMP JUMPDEST SWAP1 POP SWAP2 SWAP1 POP JUMP JUMPDEST PUSH32 0x696E73756666656369656E7420616D6F756E7400000000000000000000000000 PUSH0 DUP3 ADD MSTORE POP JUMP JUMPDEST PUSH0 PUSH2 0xF0B PUSH1 0x13 DUP4 PUSH2 0x9AA JUMP JUMPDEST SWAP2 POP PUSH2 0xF16 DUP3 PUSH2 0xED7 JUMP JUMPDEST PUSH1 0x20 DUP3 ADD SWAP1 POP SWAP2 SWAP1 POP JUMP JUMPDEST PUSH0 PUSH1 0x20 DUP3 ADD SWAP1 POP DUP2 DUP2 SUB PUSH0 DUP4 ADD MSTORE PUSH2 0xF38 DUP2 PUSH2 0xEFF JUMP JUMPDEST SWAP1 POP SWAP2 SWAP1 POP JUMP INVALID LOG2 PUSH5 0x6970667358 0x22 SLT KECCAK256 DUPN 0xCC DUP12 JUMPF 0x8069 GT 0xB1 0xC2 CODECOPY SWAP16 SAR DATALOADN 0x8986 SWAP6 0xBE GASPRICE 0xC9 0xC4 PUSH8 0xCFEC2B6EC866192E JUMPI 0xBF SWAP12 PUSH5 0x736F6C6343 STOP ADDMOD 0x1E STOP CALLER "
				},
				"gasEstimates": {
					"creation": {
						"codeDepositCost": "791400",
						"executionCost": "infinite",
						"totalCost": "infinite"
					},
					"external": {
						"allownce(address,address)": "infinite",
						"approve(address,uint256)": "infinite",
						"balanceOf(address)": "2824",
						"decimals()": "2466",
						"name()": "infinite",
						"symbol()": "infinite",
						"totalSupply()": "2470",
						"transfer(address,uint256)": "infinite",
						"transferFrom(address,address,uint256)": "infinite"
					},
					"internal": {
						"_mint(address,uint256)": "infinite"
					}
				},
				"methodIdentifiers": {
					"allownce(address,address)": "a20bc7fe",
					"approve(address,uint256)": "095ea7b3",
					"balanceOf(address)": "70a08231",
					"decimals()": "313ce567",
					"name()": "06fdde03",
					"symbol()": "95d89b41",
					"totalSupply()": "18160ddd",
					"transfer(address,uint256)": "a9059cbb",
					"transferFrom(address,address,uint256)": "23b872dd"
				}
			},
			"storageLayout": {
				"storage": [
					{
						"astId": 6,
						"contract": "contracts/core/ERC20.sol:ERC20",
						"label": "name",
						"offset": 0,
						"slot": "0",
						"type": "t_string_storage"
					},
					{
						"astId": 8,
						"contract": "contracts/core/ERC20.sol:ERC20",
						"label": "symbol",
						"offset": 0,
						"slot": "1",
						"type": "t_string_storage"
					},
					{
						"astId": 10,
						"contract": "contracts/core/ERC20.sol:ERC20",
						"label": "decimals",
						"offset": 0,
						"slot": "2",
						"type": "t_uint8"
					},
					{
						"astId": 12,
						"contract": "contracts/core/ERC20.sol:ERC20",
						"label": "totalSupply",
						"offset": 0,
						"slot": "3",
						"type": "t_uint256"
					},
					{
						"astId": 16,
						"contract": "contracts/core/ERC20.sol:ERC20",
						"label": "balanceOf",
						"offset": 0,
						"slot": "4",
						"type": "t_mapping(t_address,t_uint256)"
					},
					{
						"astId": 22,
						"contract": "contracts/core/ERC20.sol:ERC20",
						"label": "allownce",
						"offset": 0,
						"slot": "5",
						"type": "t_mapping(t_address,t_mapping(t_address,t_uint256))"
					}
				],
				"types": {
					"t_address": {
						"encoding": "inplace",
						"label": "address",
						"numberOfBytes": "20"
					},
					"t_mapping(t_address,t_mapping(t_address,t_uint256))": {
						"encoding": "mapping",
						"key": "t_address",
						"label": "mapping(address => mapping(address => uint256))",
						"numberOfBytes": "32",
						"value": "t_mapping(t_address,t_uint256)"
					},
					"t_mapping(t_address,t_uint256)": {
						"encoding": "mapping",
						"key": "t_address",
						"label": "mapping(address => uint256)",
						"numberOfBytes": "32",
						"value": "t_uint256"
					},
					"t_string_storage": {
						"encoding": "bytes",
						"label": "string",
						"numberOfBytes": "32"
					},
					"t_uint256": {
						"encoding": "inplace",
						"label": "uint256",
						"numberOfBytes": "32"
					},
					"t_uint8": {
						"encoding": "inplace",
						"label": "uint8",
						"numberOfBytes": "1"
					}
				}
			},
			"userdoc": {
				"kind": "user",
				"methods": {},
				"version": 1
			}
		}
	}
}